{
  "_format": "hh-sol-artifact-1",
  "contractName": "EventEscrow",
  "sourceName": "contracts/EventEscrow.sol",
  "abi": [
    {
      "inputs": [
        {
          "internalType": "contract IERC20",
          "name": "_usdcToken",
          "type": "address"
        },
        {
          "internalType": "address[]",
          "name": "_beneficiaries",
          "type": "address[]"
        },
        {
          "internalType": "uint256[]",
          "name": "_shares",
          "type": "uint256[]"
        }
      ],
      "stateMutability": "nonpayable",
      "type": "constructor"
    },
    {
      "anonymous": false,
      "inputs": [
        {
          "indexed": false,
          "internalType": "address",
          "name": "usdcToken",
          "type": "address"
        },
        {
          "indexed": false,
          "internalType": "address[]",
          "name": "beneficiaries",
          "type": "address[]"
        },
        {
          "indexed": false,
          "internalType": "uint256[]",
          "name": "shares",
          "type": "uint256[]"
        },
        {
          "indexed": false,
          "internalType": "uint256",
          "name": "numBeneficiaries",
          "type": "uint256"
        }
      ],
      "name": "EventEscrowDeployed",
      "type": "event"
    },
    {
      "anonymous": false,
      "inputs": [
        {
          "indexed": false,
          "internalType": "address",
          "name": "beneficiary",
          "type": "address"
        },
        {
          "indexed": false,
          "internalType": "uint256",
          "name": "amount",
          "type": "uint256"
        },
        {
          "indexed": false,
          "internalType": "address",
          "name": "indexedcaller",
          "type": "address"
        }
      ],
      "name": "PaymentDistributed",
      "type": "event"
    },
    {
      "inputs": [
        {
          "internalType": "uint256",
          "name": "",
          "type": "uint256"
        }
      ],
      "name": "beneficiaries",
      "outputs": [
        {
          "internalType": "address",
          "name": "",
          "type": "address"
        }
      ],
      "stateMutability": "view",
      "type": "function"
    },
    {
      "inputs": [],
      "name": "distributePayments",
      "outputs": [],
      "stateMutability": "nonpayable",
      "type": "function"
    },
    {
      "inputs": [],
      "name": "numBeneficiaries",
      "outputs": [
        {
          "internalType": "uint256",
          "name": "",
          "type": "uint256"
        }
      ],
      "stateMutability": "view",
      "type": "function"
    },
    {
      "inputs": [
        {
          "internalType": "address",
          "name": "",
          "type": "address"
        }
      ],
      "name": "payouts",
      "outputs": [
        {
          "internalType": "uint256",
          "name": "",
          "type": "uint256"
        }
      ],
      "stateMutability": "view",
      "type": "function"
    },
    {
      "inputs": [],
      "name": "totalShares",
      "outputs": [
        {
          "internalType": "uint256",
          "name": "",
          "type": "uint256"
        }
      ],
      "stateMutability": "view",
      "type": "function"
    },
    {
      "inputs": [],
      "name": "usdcToken",
      "outputs": [
        {
          "internalType": "contract IERC20",
          "name": "",
          "type": "address"
        }
      ],
      "stateMutability": "view",
      "type": "function"
    }
  ],
  "bytecode": "0x60806040523480156200001157600080fd5b50604051620009f0380380620009f0833981016040819052620000349162000347565b8051825114620000965760405162461bcd60e51b8152602060048201526024808201527f4d69736d6174636865642062656e6566696369617269657320616e64207368616044820152633932b99760e11b606482015260840160405180910390fd5b600080546001600160a01b0319166001600160a01b0385161790558151620000c6906002906020850190620001cb565b5060005b82518110156200018157818181518110620000e957620000e96200042f565b6020026020010151600160008584815181106200010a576200010a6200042f565b60200260200101516001600160a01b03166001600160a01b03168152602001908152602001600020819055508181815181106200014b576200014b6200042f565b6020026020010151600360008282546200016691906200045b565b90915550819050620001788162000477565b915050620000ca565b507fa206eefa9ecfbee4f058a5617db2ce9a919c99fed7592e8be16064abd72eddc88383838551604051620001ba949392919062000493565b60405180910390a150505062000533565b82805482825590600052602060002090810192821562000223579160200282015b828111156200022357825182546001600160a01b0319166001600160a01b03909116178255602090920191600190910190620001ec565b506200023192915062000235565b5090565b5b8082111562000231576000815560010162000236565b6001600160a01b03811681146200026257600080fd5b50565b634e487b7160e01b600052604160045260246000fd5b604051601f8201601f191681016001600160401b0381118282101715620002a657620002a662000265565b604052919050565b60006001600160401b03821115620002ca57620002ca62000265565b5060051b60200190565b600082601f830112620002e657600080fd5b81516020620002ff620002f983620002ae565b6200027b565b82815260059290921b840181019181810190868411156200031f57600080fd5b8286015b848110156200033c578051835291830191830162000323565b509695505050505050565b6000806000606084860312156200035d57600080fd5b83516200036a816200024c565b602085810151919450906001600160401b03808211156200038a57600080fd5b818701915087601f8301126200039f57600080fd5b8151620003b0620002f982620002ae565b81815260059190911b8301840190848101908a831115620003d057600080fd5b938501935b82851015620003fb578451620003eb816200024c565b82529385019390850190620003d5565b60408a015190975094505050808311156200041557600080fd5b50506200042586828701620002d4565b9150509250925092565b634e487b7160e01b600052603260045260246000fd5b634e487b7160e01b600052601160045260246000fd5b8082018082111562000471576200047162000445565b92915050565b6000600182016200048c576200048c62000445565b5060010190565b6001600160a01b0385811682526080602080840182905286519184018290526000928782019290919060a0860190855b81811015620004e3578551851683529483019491830191600101620004c3565b5050858103604087015287518082529082019350915080870160005b838110156200051d57815185529382019390820190600101620004ff565b5050505060609290920192909252949350505050565b6104ad80620005436000396000f3fe608060405234801561001057600080fd5b50600436106100625760003560e01c806311eac855146100675780633a98ef391461009757806365bcfbe7146100ae578063cb22d41b146100ce578063dd84b5f6146100d6578063efeb5e58146100e0575b600080fd5b60005461007a906001600160a01b031681565b6040516001600160a01b0390911681526020015b60405180910390f35b6100a060035481565b60405190815260200161008e565b6100a06100bc36600461036f565b60016020526000908152604090205481565b6002546100a0565b6100de6100f3565b005b61007a6100ee36600461039f565b610345565b336000908152600160205260409020546101485760405162461bcd60e51b81526020600482015260116024820152704e6f7420612062656e656669636961727960781b60448201526064015b60405180910390fd5b600080546040516370a0823160e01b81523060048201526001600160a01b03909116906370a0823190602401602060405180830381865afa158015610191573d6000803e3d6000fd5b505050506040513d601f19601f820116820180604052508101906101b591906103b8565b9050600081116102075760405162461bcd60e51b815260206004820152601760248201527f4e6f2066756e647320746f20646973747269627574652e000000000000000000604482015260640161013f565b60005b60025481101561034157600060028281548110610229576102296103d1565b60009182526020808320909101546003546001600160a01b03909116808452600190925260408320549193509061026090866103fd565b61026a919061041a565b60005460405163a9059cbb60e01b81526001600160a01b0385811660048301526024820184905292935091169063a9059cbb906044016020604051808303816000875af11580156102bf573d6000803e3d6000fd5b505050506040513d601f19601f820116820180604052508101906102e3919061043c565b50604080516001600160a01b038416815260208101839052338183015290517f54671ed5b46041912e71433c137078ccb494dc08e8e10fe9ec7d2d691cc42a3e9181900360600190a1505080806103399061045e565b91505061020a565b5050565b6002818154811061035557600080fd5b6000918252602090912001546001600160a01b0316905081565b60006020828403121561038157600080fd5b81356001600160a01b038116811461039857600080fd5b9392505050565b6000602082840312156103b157600080fd5b5035919050565b6000602082840312156103ca57600080fd5b5051919050565b634e487b7160e01b600052603260045260246000fd5b634e487b7160e01b600052601160045260246000fd5b8082028115828204841417610414576104146103e7565b92915050565b60008261043757634e487b7160e01b600052601260045260246000fd5b500490565b60006020828403121561044e57600080fd5b8151801515811461039857600080fd5b600060018201610470576104706103e7565b506001019056fea26469706673582212200c5c61fe96953075e64f2ad0956ef8a5c242dacec3344064262e6bbb4e6f5a1c64736f6c63430008140033",
  "linkReferences": {},
  "deployedLinkReferences": {}
}