{
	"compilerInput": "{\"language\":\"Solidity\",\"sources\":{\"recesip.sol\":{\"content\":\"// SPDX-License-Identifier: MIT\\r\\npragma solidity ^0.8.21;\\r\\n\\r\\nimport \\\"@openzeppelin/contracts/security/ReentrancyGuard.sol\\\"; // Importing ReentrancyGuard for additional security\\r\\n\\r\\ncontract RevenueSharingContract is ReentrancyGuard {\\r\\n    // Variables\\r\\n    address payable public rs1;\\r\\n    address payable public rs2;\\r\\n    address payable public rs3;\\r\\n    uint256 public ps;\\r\\n    bool public fundsDistributed;\\r\\n    uint256 public constant MAX_RECEIVE_AMOUNT = 11 ether;\\r\\n\\r\\n    // Events\\r\\n    event FundsDistributed(uint256 rs2Share, uint256 rs3Share);\\r\\n    event ContractFunded(address sender, uint256 amount);\\r\\n    event RemainingBalanceReturned(address recipient, uint256 amount);\\r\\n\\r\\n    // Constructor\\r\\n    constructor(address payable _rs2, address payable _rs3, uint256 _ps) payable {\\r\\n        require(_rs2 != address(0) && _rs3 != address(0), \\\"Invalid participant addresses.\\\");\\r\\n        require(_ps > 0 && _ps <= 100, \\\"Percentage share should be between 1 and 100.\\\");\\r\\n\\r\\n        rs1 = payable(msg.sender);\\r\\n        rs2 = _rs2;\\r\\n        rs3 = _rs3;\\r\\n        ps = _ps;\\r\\n    }\\r\\n\\r\\n    // Modifier to ensure only the contract owner can perform certain actions\\r\\n    modifier onlyOwner() {\\r\\n        require(msg.sender == rs1, \\\"Only the contract owner can perform this action.\\\");\\r\\n        _;\\r\\n    }\\r\\n\\r\\n    // Modifier to ensure funds are not distributed more than once\\r\\n    modifier fundsNotDistributed() {\\r\\n        require(!fundsDistributed, \\\"Funds have already been distributed.\\\");\\r\\n        _;\\r\\n    }\\r\\n\\r\\n    // Combined funding function, optimized by merging functionality of receive() and fundContractBalance()\\r\\n    function fundContract() external payable {\\r\\n        require(msg.value > 0 && msg.value <= MAX_RECEIVE_AMOUNT, \\\"Invalid amount. You can send up to 11 Ether.\\\");\\r\\n        emit ContractFunded(msg.sender, msg.value); // Emitting event to track funding\\r\\n    }\\r\\n\\r\\n    // Distribute funds function\\r\\n    function distributeFunds() external payable onlyOwner fundsNotDistributed nonReentrant { // Using OpenZeppelin's nonReentrant modifier\\r\\n        require(address(this).balance > 0, \\\"No funds available to distribute.\\\");\\r\\n\\r\\n        uint256 contractBalance = address(this).balance;\\r\\n        uint256 rs2Share = (contractBalance * ps) / 100;\\r\\n        uint256 rs3Share = contractBalance - rs2Share;\\r\\n\\r\\n        fundsDistributed = true;\\r\\n\\r\\n        // Transfer funds\\r\\n        rs2.transfer(rs2Share);\\r\\n        rs3.transfer(rs3Share);\\r\\n\\r\\n        // Send remaining balance back to rs1 - handles rounding errors by returning any leftover balance\\r\\n        uint256 remainingBalance = address(this).balance;\\r\\n        if (remainingBalance > 0) {\\r\\n            rs1.transfer(remainingBalance);\\r\\n            emit RemainingBalanceReturned(rs1, remainingBalance); // Emitting event to track remaining balance transfer\\r\\n        }\\r\\n\\r\\n        emit FundsDistributed(rs2Share, rs3Share); // Emitting event to track distribution\\r\\n    }\\r\\n\\r\\n    // Function to check the balance of the contract\\r\\n    function getContractBalance() external view returns (uint256) {\\r\\n        return address(this).balance;\\r\\n    }\\r\\n\\r\\n    // Fallback function to allow owner to recover any stuck funds\\r\\n    function recoverStuckFunds() external onlyOwner {\\r\\n        require(address(this).balance > 0, \\\"No funds to recover.\\\");\\r\\n        rs1.transfer(address(this).balance);\\r\\n    }\\r\\n}\\r\\n\"},\"@openzeppelin/contracts/security/ReentrancyGuard.sol\":{\"content\":\"// SPDX-License-Identifier: MIT\\n// OpenZeppelin Contracts (last updated v4.9.0) (security/ReentrancyGuard.sol)\\n\\npragma solidity ^0.8.0;\\n\\n/**\\n * @dev Contract module that helps prevent reentrant calls to a function.\\n *\\n * Inheriting from `ReentrancyGuard` will make the {nonReentrant} modifier\\n * available, which can be applied to functions to make sure there are no nested\\n * (reentrant) calls to them.\\n *\\n * Note that because there is a single `nonReentrant` guard, functions marked as\\n * `nonReentrant` may not call one another. This can be worked around by making\\n * those functions `private`, and then adding `external` `nonReentrant` entry\\n * points to them.\\n *\\n * TIP: If you would like to learn more about reentrancy and alternative ways\\n * to protect against it, check out our blog post\\n * https://blog.openzeppelin.com/reentrancy-after-istanbul/[Reentrancy After Istanbul].\\n */\\nabstract contract ReentrancyGuard {\\n    // Booleans are more expensive than uint256 or any type that takes up a full\\n    // word because each write operation emits an extra SLOAD to first read the\\n    // slot's contents, replace the bits taken up by the boolean, and then write\\n    // back. This is the compiler's defense against contract upgrades and\\n    // pointer aliasing, and it cannot be disabled.\\n\\n    // The values being non-zero value makes deployment a bit more expensive,\\n    // but in exchange the refund on every call to nonReentrant will be lower in\\n    // amount. Since refunds are capped to a percentage of the total\\n    // transaction's gas, it is best to keep them low in cases like this one, to\\n    // increase the likelihood of the full refund coming into effect.\\n    uint256 private constant _NOT_ENTERED = 1;\\n    uint256 private constant _ENTERED = 2;\\n\\n    uint256 private _status;\\n\\n    constructor() {\\n        _status = _NOT_ENTERED;\\n    }\\n\\n    /**\\n     * @dev Prevents a contract from calling itself, directly or indirectly.\\n     * Calling a `nonReentrant` function from another `nonReentrant`\\n     * function is not supported. It is possible to prevent this from happening\\n     * by making the `nonReentrant` function external, and making it call a\\n     * `private` function that does the actual work.\\n     */\\n    modifier nonReentrant() {\\n        _nonReentrantBefore();\\n        _;\\n        _nonReentrantAfter();\\n    }\\n\\n    function _nonReentrantBefore() private {\\n        // On the first call to nonReentrant, _status will be _NOT_ENTERED\\n        require(_status != _ENTERED, \\\"ReentrancyGuard: reentrant call\\\");\\n\\n        // Any calls to nonReentrant after this point will fail\\n        _status = _ENTERED;\\n    }\\n\\n    function _nonReentrantAfter() private {\\n        // By storing the original value once again, a refund is triggered (see\\n        // https://eips.ethereum.org/EIPS/eip-2200)\\n        _status = _NOT_ENTERED;\\n    }\\n\\n    /**\\n     * @dev Returns true if the reentrancy guard is currently set to \\\"entered\\\", which indicates there is a\\n     * `nonReentrant` function in the call stack.\\n     */\\n    function _reentrancyGuardEntered() internal view returns (bool) {\\n        return _status == _ENTERED;\\n    }\\n}\\n\"}},\"settings\":{\"optimizer\":{\"enabled\":false,\"runs\":200},\"outputSelection\":{\"*\":{\"\":[\"ast\"],\"*\":[\"abi\",\"metadata\",\"devdoc\",\"userdoc\",\"storageLayout\",\"evm.legacyAssembly\",\"evm.bytecode\",\"evm.deployedBytecode\",\"evm.methodIdentifiers\",\"evm.gasEstimates\",\"evm.assembly\"]}}}}",
	"name": "RevenueSharingContract",
	"bytecode": {
		"linkReferences": {},
		"object": "6080604052604051620011f8380380620011f883398181016040528101906200002991906200029b565b60015f819055505f73ffffffffffffffffffffffffffffffffffffffff168373ffffffffffffffffffffffffffffffffffffffff16141580156200009957505f73ffffffffffffffffffffffffffffffffffffffff168273ffffffffffffffffffffffffffffffffffffffff1614155b620000db576040517f08c379a0000000000000000000000000000000000000000000000000000000008152600401620000d29062000352565b60405180910390fd5b5f81118015620000ec575060648111155b6200012e576040517f08c379a00000000000000000000000000000000000000000000000000000000081526004016200012590620003e6565b60405180910390fd5b3360015f6101000a81548173ffffffffffffffffffffffffffffffffffffffff021916908373ffffffffffffffffffffffffffffffffffffffff1602179055508260025f6101000a81548173ffffffffffffffffffffffffffffffffffffffff021916908373ffffffffffffffffffffffffffffffffffffffff1602179055508160035f6101000a81548173ffffffffffffffffffffffffffffffffffffffff021916908373ffffffffffffffffffffffffffffffffffffffff1602179055508060048190555050505062000406565b5f80fd5b5f73ffffffffffffffffffffffffffffffffffffffff82169050919050565b5f6200022d8262000202565b9050919050565b6200023f8162000221565b81146200024a575f80fd5b50565b5f815190506200025d8162000234565b92915050565b5f819050919050565b620002778162000263565b811462000282575f80fd5b50565b5f8151905062000295816200026c565b92915050565b5f805f60608486031215620002b557620002b4620001fe565b5b5f620002c4868287016200024d565b9350506020620002d7868287016200024d565b9250506040620002ea8682870162000285565b9150509250925092565b5f82825260208201905092915050565b7f496e76616c6964207061727469636970616e74206164647265737365732e00005f82015250565b5f6200033a601e83620002f4565b9150620003478262000304565b602082019050919050565b5f6020820190508181035f8301526200036b816200032c565b9050919050565b7f50657263656e746167652073686172652073686f756c642062652062657477655f8201527f656e203120616e64203130302e00000000000000000000000000000000000000602082015250565b5f620003ce602d83620002f4565b9150620003db8262000372565b604082019050919050565b5f6020820190508181035f830152620003ff81620003c0565b9050919050565b610de480620004145f395ff3fe608060405260043610610090575f3560e01c8063babe2b7611610058578063babe2b7614610146578063bcf5750114610170578063bd097e2114610186578063e929afc414610190578063f11c7f3d146101ba57610090565b80633a6a4d2e146100945780633d68ed691461009e57806341a54550146100c85780636f95b3f3146100f25780636f9fb98a1461011c575b5f80fd5b61009c6101e4565b005b3480156100a9575f80fd5b506100b2610533565b6040516100bf919061082b565b60405180910390f35b3480156100d3575f80fd5b506100dc610558565b6040516100e9919061085c565b60405180910390f35b3480156100fd575f80fd5b5061010661055e565b604051610113919061088f565b60405180910390f35b348015610127575f80fd5b50610130610570565b60405161013d919061085c565b60405180910390f35b348015610151575f80fd5b5061015a610577565b604051610167919061085c565b60405180910390f35b34801561017b575f80fd5b50610184610583565b005b61018e6106bb565b005b34801561019b575f80fd5b506101a461074c565b6040516101b1919061082b565b60405180910390f35b3480156101c5575f80fd5b506101ce610771565b6040516101db919061082b565b60405180910390f35b60015f9054906101000a900473ffffffffffffffffffffffffffffffffffffffff1673ffffffffffffffffffffffffffffffffffffffff163373ffffffffffffffffffffffffffffffffffffffff1614610273576040517f08c379a000000000000000000000000000000000000000000000000000000000815260040161026a90610928565b60405180910390fd5b60055f9054906101000a900460ff16156102c2576040517f08c379a00000000000000000000000000000000000000000000000000000000081526004016102b9906109b6565b60405180910390fd5b6102ca610796565b5f471161030c576040517f08c379a000000000000000000000000000000000000000000000000000000000815260040161030390610a44565b60405180910390fd5b5f4790505f6064600454836103219190610a8f565b61032b9190610afd565b90505f818361033a9190610b2d565b9050600160055f6101000a81548160ff02191690831515021790555060025f9054906101000a900473ffffffffffffffffffffffffffffffffffffffff1673ffffffffffffffffffffffffffffffffffffffff166108fc8390811502906040515f60405180830381858888f193505050501580156103ba573d5f803e3d5ffd5b5060035f9054906101000a900473ffffffffffffffffffffffffffffffffffffffff1673ffffffffffffffffffffffffffffffffffffffff166108fc8290811502906040515f60405180830381858888f1935050505015801561041f573d5f803e3d5ffd5b505f4790505f8111156104ec5760015f9054906101000a900473ffffffffffffffffffffffffffffffffffffffff1673ffffffffffffffffffffffffffffffffffffffff166108fc8290811502906040515f60405180830381858888f19350505050158015610490573d5f803e3d5ffd5b507f262600a14409bf795e747ab7eb71cb691ccbdbdeba406804ea8627e9a0ce316460015f9054906101000a900473ffffffffffffffffffffffffffffffffffffffff16826040516104e3929190610bbb565b60405180910390a15b7f40d8c854b6d5329fd5fccae04f5a931d7529963fbab81aced7337394e737cb4d838360405161051d929190610be2565b60405180910390a1505050506105316107e3565b565b60035f9054906101000a900473ffffffffffffffffffffffffffffffffffffffff1681565b60045481565b60055f9054906101000a900460ff1681565b5f47905090565b6798a7d9b8314c000081565b60015f9054906101000a900473ffffffffffffffffffffffffffffffffffffffff1673ffffffffffffffffffffffffffffffffffffffff163373ffffffffffffffffffffffffffffffffffffffff1614610612576040517f08c379a000000000000000000000000000000000000000000000000000000000815260040161060990610928565b60405180910390fd5b5f4711610654576040517f08c379a000000000000000000000000000000000000000000000000000000000815260040161064b90610c53565b60405180910390fd5b60015f9054906101000a900473ffffffffffffffffffffffffffffffffffffffff1673ffffffffffffffffffffffffffffffffffffffff166108fc4790811502906040515f60405180830381858888f193505050501580156106b8573d5f803e3d5ffd5b50565b5f341180156106d257506798a7d9b8314c00003411155b610711576040517f08c379a000000000000000000000000000000000000000000000000000000000815260040161070890610ce1565b60405180910390fd5b7f0939f6f4877faf071412e527bc4c6d0bd65ad077e52b57334f7765265647a7f13334604051610742929190610d1f565b60405180910390a1565b60025f9054906101000a900473ffffffffffffffffffffffffffffffffffffffff1681565b60015f9054906101000a900473ffffffffffffffffffffffffffffffffffffffff1681565b60025f54036107da576040517f08c379a00000000000000000000000000000000000000000000000000000000081526004016107d190610d90565b60405180910390fd5b60025f81905550565b60015f81905550565b5f73ffffffffffffffffffffffffffffffffffffffff82169050919050565b5f610815826107ec565b9050919050565b6108258161080b565b82525050565b5f60208201905061083e5f83018461081c565b92915050565b5f819050919050565b61085681610844565b82525050565b5f60208201905061086f5f83018461084d565b92915050565b5f8115159050919050565b61088981610875565b82525050565b5f6020820190506108a25f830184610880565b92915050565b5f82825260208201905092915050565b7f4f6e6c792074686520636f6e7472616374206f776e65722063616e20706572665f8201527f6f726d207468697320616374696f6e2e00000000000000000000000000000000602082015250565b5f6109126030836108a8565b915061091d826108b8565b604082019050919050565b5f6020820190508181035f83015261093f81610906565b9050919050565b7f46756e6473206861766520616c7265616479206265656e2064697374726962755f8201527f7465642e00000000000000000000000000000000000000000000000000000000602082015250565b5f6109a06024836108a8565b91506109ab82610946565b604082019050919050565b5f6020820190508181035f8301526109cd81610994565b9050919050565b7f4e6f2066756e647320617661696c61626c6520746f20646973747269627574655f8201527f2e00000000000000000000000000000000000000000000000000000000000000602082015250565b5f610a2e6021836108a8565b9150610a39826109d4565b604082019050919050565b5f6020820190508181035f830152610a5b81610a22565b9050919050565b7f4e487b71000000000000000000000000000000000000000000000000000000005f52601160045260245ffd5b5f610a9982610844565b9150610aa483610844565b9250828202610ab281610844565b91508282048414831517610ac957610ac8610a62565b5b5092915050565b7f4e487b71000000000000000000000000000000000000000000000000000000005f52601260045260245ffd5b5f610b0782610844565b9150610b1283610844565b925082610b2257610b21610ad0565b5b828204905092915050565b5f610b3782610844565b9150610b4283610844565b9250828203905081811115610b5a57610b59610a62565b5b92915050565b5f819050919050565b5f610b83610b7e610b79846107ec565b610b60565b6107ec565b9050919050565b5f610b9482610b69565b9050919050565b5f610ba582610b8a565b9050919050565b610bb581610b9b565b82525050565b5f604082019050610bce5f830185610bac565b610bdb602083018461084d565b9392505050565b5f604082019050610bf55f83018561084d565b610c02602083018461084d565b9392505050565b7f4e6f2066756e647320746f207265636f7665722e0000000000000000000000005f82015250565b5f610c3d6014836108a8565b9150610c4882610c09565b602082019050919050565b5f6020820190508181035f830152610c6a81610c31565b9050919050565b7f496e76616c696420616d6f756e742e20596f752063616e2073656e64207570205f8201527f746f2031312045746865722e0000000000000000000000000000000000000000602082015250565b5f610ccb602c836108a8565b9150610cd682610c71565b604082019050919050565b5f6020820190508181035f830152610cf881610cbf565b9050919050565b5f610d09826107ec565b9050919050565b610d1981610cff565b82525050565b5f604082019050610d325f830185610d10565b610d3f602083018461084d565b9392505050565b7f5265656e7472616e637947756172643a207265656e7472616e742063616c6c005f82015250565b5f610d7a601f836108a8565b9150610d8582610d46565b602082019050919050565b5f6020820190508181035f830152610da781610d6e565b905091905056fea26469706673582212200052436d40cb3a4fff565399b8512f72a43fb8288d9daee13f2177be93b4fdbd64736f6c63430008150033",
		"opcodes": "PUSH1 0x80 PUSH1 0x40 MSTORE PUSH1 0x40 MLOAD PUSH3 0x11F8 CODESIZE SUB DUP1 PUSH3 0x11F8 DUP4 CODECOPY DUP2 DUP2 ADD PUSH1 0x40 MSTORE DUP2 ADD SWAP1 PUSH3 0x29 SWAP2 SWAP1 PUSH3 0x29B JUMP JUMPDEST PUSH1 0x1 PUSH0 DUP2 SWAP1 SSTORE POP PUSH0 PUSH20 0xFFFFFFFFFFFFFFFFFFFFFFFFFFFFFFFFFFFFFFFF AND DUP4 PUSH20 0xFFFFFFFFFFFFFFFFFFFFFFFFFFFFFFFFFFFFFFFF AND EQ ISZERO DUP1 ISZERO PUSH3 0x99 JUMPI POP PUSH0 PUSH20 0xFFFFFFFFFFFFFFFFFFFFFFFFFFFFFFFFFFFFFFFF AND DUP3 PUSH20 0xFFFFFFFFFFFFFFFFFFFFFFFFFFFFFFFFFFFFFFFF AND EQ ISZERO JUMPDEST PUSH3 0xDB JUMPI PUSH1 0x40 MLOAD PUSH32 0x8C379A000000000000000000000000000000000000000000000000000000000 DUP2 MSTORE PUSH1 0x4 ADD PUSH3 0xD2 SWAP1 PUSH3 0x352 JUMP JUMPDEST PUSH1 0x40 MLOAD DUP1 SWAP2 SUB SWAP1 REVERT JUMPDEST PUSH0 DUP2 GT DUP1 ISZERO PUSH3 0xEC JUMPI POP PUSH1 0x64 DUP2 GT ISZERO JUMPDEST PUSH3 0x12E JUMPI PUSH1 0x40 MLOAD PUSH32 0x8C379A000000000000000000000000000000000000000000000000000000000 DUP2 MSTORE PUSH1 0x4 ADD PUSH3 0x125 SWAP1 PUSH3 0x3E6 JUMP JUMPDEST PUSH1 0x40 MLOAD DUP1 SWAP2 SUB SWAP1 REVERT JUMPDEST CALLER PUSH1 0x1 PUSH0 PUSH2 0x100 EXP DUP2 SLOAD DUP2 PUSH20 0xFFFFFFFFFFFFFFFFFFFFFFFFFFFFFFFFFFFFFFFF MUL NOT AND SWAP1 DUP4 PUSH20 0xFFFFFFFFFFFFFFFFFFFFFFFFFFFFFFFFFFFFFFFF AND MUL OR SWAP1 SSTORE POP DUP3 PUSH1 0x2 PUSH0 PUSH2 0x100 EXP DUP2 SLOAD DUP2 PUSH20 0xFFFFFFFFFFFFFFFFFFFFFFFFFFFFFFFFFFFFFFFF MUL NOT AND SWAP1 DUP4 PUSH20 0xFFFFFFFFFFFFFFFFFFFFFFFFFFFFFFFFFFFFFFFF AND MUL OR SWAP1 SSTORE POP DUP2 PUSH1 0x3 PUSH0 PUSH2 0x100 EXP DUP2 SLOAD DUP2 PUSH20 0xFFFFFFFFFFFFFFFFFFFFFFFFFFFFFFFFFFFFFFFF MUL NOT AND SWAP1 DUP4 PUSH20 0xFFFFFFFFFFFFFFFFFFFFFFFFFFFFFFFFFFFFFFFF AND MUL OR SWAP1 SSTORE POP DUP1 PUSH1 0x4 DUP2 SWAP1 SSTORE POP POP POP POP PUSH3 0x406 JUMP JUMPDEST PUSH0 DUP1 REVERT JUMPDEST PUSH0 PUSH20 0xFFFFFFFFFFFFFFFFFFFFFFFFFFFFFFFFFFFFFFFF DUP3 AND SWAP1 POP SWAP2 SWAP1 POP JUMP JUMPDEST PUSH0 PUSH3 0x22D DUP3 PUSH3 0x202 JUMP JUMPDEST SWAP1 POP SWAP2 SWAP1 POP JUMP JUMPDEST PUSH3 0x23F DUP2 PUSH3 0x221 JUMP JUMPDEST DUP2 EQ PUSH3 0x24A JUMPI PUSH0 DUP1 REVERT JUMPDEST POP JUMP JUMPDEST PUSH0 DUP2 MLOAD SWAP1 POP PUSH3 0x25D DUP2 PUSH3 0x234 JUMP JUMPDEST SWAP3 SWAP2 POP POP JUMP JUMPDEST PUSH0 DUP2 SWAP1 POP SWAP2 SWAP1 POP JUMP JUMPDEST PUSH3 0x277 DUP2 PUSH3 0x263 JUMP JUMPDEST DUP2 EQ PUSH3 0x282 JUMPI PUSH0 DUP1 REVERT JUMPDEST POP JUMP JUMPDEST PUSH0 DUP2 MLOAD SWAP1 POP PUSH3 0x295 DUP2 PUSH3 0x26C JUMP JUMPDEST SWAP3 SWAP2 POP POP JUMP JUMPDEST PUSH0 DUP1 PUSH0 PUSH1 0x60 DUP5 DUP7 SUB SLT ISZERO PUSH3 0x2B5 JUMPI PUSH3 0x2B4 PUSH3 0x1FE JUMP JUMPDEST JUMPDEST PUSH0 PUSH3 0x2C4 DUP7 DUP3 DUP8 ADD PUSH3 0x24D JUMP JUMPDEST SWAP4 POP POP PUSH1 0x20 PUSH3 0x2D7 DUP7 DUP3 DUP8 ADD PUSH3 0x24D JUMP JUMPDEST SWAP3 POP POP PUSH1 0x40 PUSH3 0x2EA DUP7 DUP3 DUP8 ADD PUSH3 0x285 JUMP JUMPDEST SWAP2 POP POP SWAP3 POP SWAP3 POP SWAP3 JUMP JUMPDEST PUSH0 DUP3 DUP3 MSTORE PUSH1 0x20 DUP3 ADD SWAP1 POP SWAP3 SWAP2 POP POP JUMP JUMPDEST PUSH32 0x496E76616C6964207061727469636970616E74206164647265737365732E0000 PUSH0 DUP3 ADD MSTORE POP JUMP JUMPDEST PUSH0 PUSH3 0x33A PUSH1 0x1E DUP4 PUSH3 0x2F4 JUMP JUMPDEST SWAP2 POP PUSH3 0x347 DUP3 PUSH3 0x304 JUMP JUMPDEST PUSH1 0x20 DUP3 ADD SWAP1 POP SWAP2 SWAP1 POP JUMP JUMPDEST PUSH0 PUSH1 0x20 DUP3 ADD SWAP1 POP DUP2 DUP2 SUB PUSH0 DUP4 ADD MSTORE PUSH3 0x36B DUP2 PUSH3 0x32C JUMP JUMPDEST SWAP1 POP SWAP2 SWAP1 POP JUMP JUMPDEST PUSH32 0x50657263656E746167652073686172652073686F756C64206265206265747765 PUSH0 DUP3 ADD MSTORE PUSH32 0x656E203120616E64203130302E00000000000000000000000000000000000000 PUSH1 0x20 DUP3 ADD MSTORE POP JUMP JUMPDEST PUSH0 PUSH3 0x3CE PUSH1 0x2D DUP4 PUSH3 0x2F4 JUMP JUMPDEST SWAP2 POP PUSH3 0x3DB DUP3 PUSH3 0x372 JUMP JUMPDEST PUSH1 0x40 DUP3 ADD SWAP1 POP SWAP2 SWAP1 POP JUMP JUMPDEST PUSH0 PUSH1 0x20 DUP3 ADD SWAP1 POP DUP2 DUP2 SUB PUSH0 DUP4 ADD MSTORE PUSH3 0x3FF DUP2 PUSH3 0x3C0 JUMP JUMPDEST SWAP1 POP SWAP2 SWAP1 POP JUMP JUMPDEST PUSH2 0xDE4 DUP1 PUSH3 0x414 PUSH0 CODECOPY PUSH0 RETURN INVALID PUSH1 0x80 PUSH1 0x40 MSTORE PUSH1 0x4 CALLDATASIZE LT PUSH2 0x90 JUMPI PUSH0 CALLDATALOAD PUSH1 0xE0 SHR DUP1 PUSH4 0xBABE2B76 GT PUSH2 0x58 JUMPI DUP1 PUSH4 0xBABE2B76 EQ PUSH2 0x146 JUMPI DUP1 PUSH4 0xBCF57501 EQ PUSH2 0x170 JUMPI DUP1 PUSH4 0xBD097E21 EQ PUSH2 0x186 JUMPI DUP1 PUSH4 0xE929AFC4 EQ PUSH2 0x190 JUMPI DUP1 PUSH4 0xF11C7F3D EQ PUSH2 0x1BA JUMPI PUSH2 0x90 JUMP JUMPDEST DUP1 PUSH4 0x3A6A4D2E EQ PUSH2 0x94 JUMPI DUP1 PUSH4 0x3D68ED69 EQ PUSH2 0x9E JUMPI DUP1 PUSH4 0x41A54550 EQ PUSH2 0xC8 JUMPI DUP1 PUSH4 0x6F95B3F3 EQ PUSH2 0xF2 JUMPI DUP1 PUSH4 0x6F9FB98A EQ PUSH2 0x11C JUMPI JUMPDEST PUSH0 DUP1 REVERT JUMPDEST PUSH2 0x9C PUSH2 0x1E4 JUMP JUMPDEST STOP JUMPDEST CALLVALUE DUP1 ISZERO PUSH2 0xA9 JUMPI PUSH0 DUP1 REVERT JUMPDEST POP PUSH2 0xB2 PUSH2 0x533 JUMP JUMPDEST PUSH1 0x40 MLOAD PUSH2 0xBF SWAP2 SWAP1 PUSH2 0x82B JUMP JUMPDEST PUSH1 0x40 MLOAD DUP1 SWAP2 SUB SWAP1 RETURN JUMPDEST CALLVALUE DUP1 ISZERO PUSH2 0xD3 JUMPI PUSH0 DUP1 REVERT JUMPDEST POP PUSH2 0xDC PUSH2 0x558 JUMP JUMPDEST PUSH1 0x40 MLOAD PUSH2 0xE9 SWAP2 SWAP1 PUSH2 0x85C JUMP JUMPDEST PUSH1 0x40 MLOAD DUP1 SWAP2 SUB SWAP1 RETURN JUMPDEST CALLVALUE DUP1 ISZERO PUSH2 0xFD JUMPI PUSH0 DUP1 REVERT JUMPDEST POP PUSH2 0x106 PUSH2 0x55E JUMP JUMPDEST PUSH1 0x40 MLOAD PUSH2 0x113 SWAP2 SWAP1 PUSH2 0x88F JUMP JUMPDEST PUSH1 0x40 MLOAD DUP1 SWAP2 SUB SWAP1 RETURN JUMPDEST CALLVALUE DUP1 ISZERO PUSH2 0x127 JUMPI PUSH0 DUP1 REVERT JUMPDEST POP PUSH2 0x130 PUSH2 0x570 JUMP JUMPDEST PUSH1 0x40 MLOAD PUSH2 0x13D SWAP2 SWAP1 PUSH2 0x85C JUMP JUMPDEST PUSH1 0x40 MLOAD DUP1 SWAP2 SUB SWAP1 RETURN JUMPDEST CALLVALUE DUP1 ISZERO PUSH2 0x151 JUMPI PUSH0 DUP1 REVERT JUMPDEST POP PUSH2 0x15A PUSH2 0x577 JUMP JUMPDEST PUSH1 0x40 MLOAD PUSH2 0x167 SWAP2 SWAP1 PUSH2 0x85C JUMP JUMPDEST PUSH1 0x40 MLOAD DUP1 SWAP2 SUB SWAP1 RETURN JUMPDEST CALLVALUE DUP1 ISZERO PUSH2 0x17B JUMPI PUSH0 DUP1 REVERT JUMPDEST POP PUSH2 0x184 PUSH2 0x583 JUMP JUMPDEST STOP JUMPDEST PUSH2 0x18E PUSH2 0x6BB JUMP JUMPDEST STOP JUMPDEST CALLVALUE DUP1 ISZERO PUSH2 0x19B JUMPI PUSH0 DUP1 REVERT JUMPDEST POP PUSH2 0x1A4 PUSH2 0x74C JUMP JUMPDEST PUSH1 0x40 MLOAD PUSH2 0x1B1 SWAP2 SWAP1 PUSH2 0x82B JUMP JUMPDEST PUSH1 0x40 MLOAD DUP1 SWAP2 SUB SWAP1 RETURN JUMPDEST CALLVALUE DUP1 ISZERO PUSH2 0x1C5 JUMPI PUSH0 DUP1 REVERT JUMPDEST POP PUSH2 0x1CE PUSH2 0x771 JUMP JUMPDEST PUSH1 0x40 MLOAD PUSH2 0x1DB SWAP2 SWAP1 PUSH2 0x82B JUMP JUMPDEST PUSH1 0x40 MLOAD DUP1 SWAP2 SUB SWAP1 RETURN JUMPDEST PUSH1 0x1 PUSH0 SWAP1 SLOAD SWAP1 PUSH2 0x100 EXP SWAP1 DIV PUSH20 0xFFFFFFFFFFFFFFFFFFFFFFFFFFFFFFFFFFFFFFFF AND PUSH20 0xFFFFFFFFFFFFFFFFFFFFFFFFFFFFFFFFFFFFFFFF AND CALLER PUSH20 0xFFFFFFFFFFFFFFFFFFFFFFFFFFFFFFFFFFFFFFFF AND EQ PUSH2 0x273 JUMPI PUSH1 0x40 MLOAD PUSH32 0x8C379A000000000000000000000000000000000000000000000000000000000 DUP2 MSTORE PUSH1 0x4 ADD PUSH2 0x26A SWAP1 PUSH2 0x928 JUMP JUMPDEST PUSH1 0x40 MLOAD DUP1 SWAP2 SUB SWAP1 REVERT JUMPDEST PUSH1 0x5 PUSH0 SWAP1 SLOAD SWAP1 PUSH2 0x100 EXP SWAP1 DIV PUSH1 0xFF AND ISZERO PUSH2 0x2C2 JUMPI PUSH1 0x40 MLOAD PUSH32 0x8C379A000000000000000000000000000000000000000000000000000000000 DUP2 MSTORE PUSH1 0x4 ADD PUSH2 0x2B9 SWAP1 PUSH2 0x9B6 JUMP JUMPDEST PUSH1 0x40 MLOAD DUP1 SWAP2 SUB SWAP1 REVERT JUMPDEST PUSH2 0x2CA PUSH2 0x796 JUMP JUMPDEST PUSH0 SELFBALANCE GT PUSH2 0x30C JUMPI PUSH1 0x40 MLOAD PUSH32 0x8C379A000000000000000000000000000000000000000000000000000000000 DUP2 MSTORE PUSH1 0x4 ADD PUSH2 0x303 SWAP1 PUSH2 0xA44 JUMP JUMPDEST PUSH1 0x40 MLOAD DUP1 SWAP2 SUB SWAP1 REVERT JUMPDEST PUSH0 SELFBALANCE SWAP1 POP PUSH0 PUSH1 0x64 PUSH1 0x4 SLOAD DUP4 PUSH2 0x321 SWAP2 SWAP1 PUSH2 0xA8F JUMP JUMPDEST PUSH2 0x32B SWAP2 SWAP1 PUSH2 0xAFD JUMP JUMPDEST SWAP1 POP PUSH0 DUP2 DUP4 PUSH2 0x33A SWAP2 SWAP1 PUSH2 0xB2D JUMP JUMPDEST SWAP1 POP PUSH1 0x1 PUSH1 0x5 PUSH0 PUSH2 0x100 EXP DUP2 SLOAD DUP2 PUSH1 0xFF MUL NOT AND SWAP1 DUP4 ISZERO ISZERO MUL OR SWAP1 SSTORE POP PUSH1 0x2 PUSH0 SWAP1 SLOAD SWAP1 PUSH2 0x100 EXP SWAP1 DIV PUSH20 0xFFFFFFFFFFFFFFFFFFFFFFFFFFFFFFFFFFFFFFFF AND PUSH20 0xFFFFFFFFFFFFFFFFFFFFFFFFFFFFFFFFFFFFFFFF AND PUSH2 0x8FC DUP4 SWAP1 DUP2 ISZERO MUL SWAP1 PUSH1 0x40 MLOAD PUSH0 PUSH1 0x40 MLOAD DUP1 DUP4 SUB DUP2 DUP6 DUP9 DUP9 CALL SWAP4 POP POP POP POP ISZERO DUP1 ISZERO PUSH2 0x3BA JUMPI RETURNDATASIZE PUSH0 DUP1 RETURNDATACOPY RETURNDATASIZE PUSH0 REVERT JUMPDEST POP PUSH1 0x3 PUSH0 SWAP1 SLOAD SWAP1 PUSH2 0x100 EXP SWAP1 DIV PUSH20 0xFFFFFFFFFFFFFFFFFFFFFFFFFFFFFFFFFFFFFFFF AND PUSH20 0xFFFFFFFFFFFFFFFFFFFFFFFFFFFFFFFFFFFFFFFF AND PUSH2 0x8FC DUP3 SWAP1 DUP2 ISZERO MUL SWAP1 PUSH1 0x40 MLOAD PUSH0 PUSH1 0x40 MLOAD DUP1 DUP4 SUB DUP2 DUP6 DUP9 DUP9 CALL SWAP4 POP POP POP POP ISZERO DUP1 ISZERO PUSH2 0x41F JUMPI RETURNDATASIZE PUSH0 DUP1 RETURNDATACOPY RETURNDATASIZE PUSH0 REVERT JUMPDEST POP PUSH0 SELFBALANCE SWAP1 POP PUSH0 DUP2 GT ISZERO PUSH2 0x4EC JUMPI PUSH1 0x1 PUSH0 SWAP1 SLOAD SWAP1 PUSH2 0x100 EXP SWAP1 DIV PUSH20 0xFFFFFFFFFFFFFFFFFFFFFFFFFFFFFFFFFFFFFFFF AND PUSH20 0xFFFFFFFFFFFFFFFFFFFFFFFFFFFFFFFFFFFFFFFF AND PUSH2 0x8FC DUP3 SWAP1 DUP2 ISZERO MUL SWAP1 PUSH1 0x40 MLOAD PUSH0 PUSH1 0x40 MLOAD DUP1 DUP4 SUB DUP2 DUP6 DUP9 DUP9 CALL SWAP4 POP POP POP POP ISZERO DUP1 ISZERO PUSH2 0x490 JUMPI RETURNDATASIZE PUSH0 DUP1 RETURNDATACOPY RETURNDATASIZE PUSH0 REVERT JUMPDEST POP PUSH32 0x262600A14409BF795E747AB7EB71CB691CCBDBDEBA406804EA8627E9A0CE3164 PUSH1 0x1 PUSH0 SWAP1 SLOAD SWAP1 PUSH2 0x100 EXP SWAP1 DIV PUSH20 0xFFFFFFFFFFFFFFFFFFFFFFFFFFFFFFFFFFFFFFFF AND DUP3 PUSH1 0x40 MLOAD PUSH2 0x4E3 SWAP3 SWAP2 SWAP1 PUSH2 0xBBB JUMP JUMPDEST PUSH1 0x40 MLOAD DUP1 SWAP2 SUB SWAP1 LOG1 JUMPDEST PUSH32 0x40D8C854B6D5329FD5FCCAE04F5A931D7529963FBAB81ACED7337394E737CB4D DUP4 DUP4 PUSH1 0x40 MLOAD PUSH2 0x51D SWAP3 SWAP2 SWAP1 PUSH2 0xBE2 JUMP JUMPDEST PUSH1 0x40 MLOAD DUP1 SWAP2 SUB SWAP1 LOG1 POP POP POP POP PUSH2 0x531 PUSH2 0x7E3 JUMP JUMPDEST JUMP JUMPDEST PUSH1 0x3 PUSH0 SWAP1 SLOAD SWAP1 PUSH2 0x100 EXP SWAP1 DIV PUSH20 0xFFFFFFFFFFFFFFFFFFFFFFFFFFFFFFFFFFFFFFFF AND DUP2 JUMP JUMPDEST PUSH1 0x4 SLOAD DUP2 JUMP JUMPDEST PUSH1 0x5 PUSH0 SWAP1 SLOAD SWAP1 PUSH2 0x100 EXP SWAP1 DIV PUSH1 0xFF AND DUP2 JUMP JUMPDEST PUSH0 SELFBALANCE SWAP1 POP SWAP1 JUMP JUMPDEST PUSH8 0x98A7D9B8314C0000 DUP2 JUMP JUMPDEST PUSH1 0x1 PUSH0 SWAP1 SLOAD SWAP1 PUSH2 0x100 EXP SWAP1 DIV PUSH20 0xFFFFFFFFFFFFFFFFFFFFFFFFFFFFFFFFFFFFFFFF AND PUSH20 0xFFFFFFFFFFFFFFFFFFFFFFFFFFFFFFFFFFFFFFFF AND CALLER PUSH20 0xFFFFFFFFFFFFFFFFFFFFFFFFFFFFFFFFFFFFFFFF AND EQ PUSH2 0x612 JUMPI PUSH1 0x40 MLOAD PUSH32 0x8C379A000000000000000000000000000000000000000000000000000000000 DUP2 MSTORE PUSH1 0x4 ADD PUSH2 0x609 SWAP1 PUSH2 0x928 JUMP JUMPDEST PUSH1 0x40 MLOAD DUP1 SWAP2 SUB SWAP1 REVERT JUMPDEST PUSH0 SELFBALANCE GT PUSH2 0x654 JUMPI PUSH1 0x40 MLOAD PUSH32 0x8C379A000000000000000000000000000000000000000000000000000000000 DUP2 MSTORE PUSH1 0x4 ADD PUSH2 0x64B SWAP1 PUSH2 0xC53 JUMP JUMPDEST PUSH1 0x40 MLOAD DUP1 SWAP2 SUB SWAP1 REVERT JUMPDEST PUSH1 0x1 PUSH0 SWAP1 SLOAD SWAP1 PUSH2 0x100 EXP SWAP1 DIV PUSH20 0xFFFFFFFFFFFFFFFFFFFFFFFFFFFFFFFFFFFFFFFF AND PUSH20 0xFFFFFFFFFFFFFFFFFFFFFFFFFFFFFFFFFFFFFFFF AND PUSH2 0x8FC SELFBALANCE SWAP1 DUP2 ISZERO MUL SWAP1 PUSH1 0x40 MLOAD PUSH0 PUSH1 0x40 MLOAD DUP1 DUP4 SUB DUP2 DUP6 DUP9 DUP9 CALL SWAP4 POP POP POP POP ISZERO DUP1 ISZERO PUSH2 0x6B8 JUMPI RETURNDATASIZE PUSH0 DUP1 RETURNDATACOPY RETURNDATASIZE PUSH0 REVERT JUMPDEST POP JUMP JUMPDEST PUSH0 CALLVALUE GT DUP1 ISZERO PUSH2 0x6D2 JUMPI POP PUSH8 0x98A7D9B8314C0000 CALLVALUE GT ISZERO JUMPDEST PUSH2 0x711 JUMPI PUSH1 0x40 MLOAD PUSH32 0x8C379A000000000000000000000000000000000000000000000000000000000 DUP2 MSTORE PUSH1 0x4 ADD PUSH2 0x708 SWAP1 PUSH2 0xCE1 JUMP JUMPDEST PUSH1 0x40 MLOAD DUP1 SWAP2 SUB SWAP1 REVERT JUMPDEST PUSH32 0x939F6F4877FAF071412E527BC4C6D0BD65AD077E52B57334F7765265647A7F1 CALLER CALLVALUE PUSH1 0x40 MLOAD PUSH2 0x742 SWAP3 SWAP2 SWAP1 PUSH2 0xD1F JUMP JUMPDEST PUSH1 0x40 MLOAD DUP1 SWAP2 SUB SWAP1 LOG1 JUMP JUMPDEST PUSH1 0x2 PUSH0 SWAP1 SLOAD SWAP1 PUSH2 0x100 EXP SWAP1 DIV PUSH20 0xFFFFFFFFFFFFFFFFFFFFFFFFFFFFFFFFFFFFFFFF AND DUP2 JUMP JUMPDEST PUSH1 0x1 PUSH0 SWAP1 SLOAD SWAP1 PUSH2 0x100 EXP SWAP1 DIV PUSH20 0xFFFFFFFFFFFFFFFFFFFFFFFFFFFFFFFFFFFFFFFF AND DUP2 JUMP JUMPDEST PUSH1 0x2 PUSH0 SLOAD SUB PUSH2 0x7DA JUMPI PUSH1 0x40 MLOAD PUSH32 0x8C379A000000000000000000000000000000000000000000000000000000000 DUP2 MSTORE PUSH1 0x4 ADD PUSH2 0x7D1 SWAP1 PUSH2 0xD90 JUMP JUMPDEST PUSH1 0x40 MLOAD DUP1 SWAP2 SUB SWAP1 REVERT JUMPDEST PUSH1 0x2 PUSH0 DUP2 SWAP1 SSTORE POP JUMP JUMPDEST PUSH1 0x1 PUSH0 DUP2 SWAP1 SSTORE POP JUMP JUMPDEST PUSH0 PUSH20 0xFFFFFFFFFFFFFFFFFFFFFFFFFFFFFFFFFFFFFFFF DUP3 AND SWAP1 POP SWAP2 SWAP1 POP JUMP JUMPDEST PUSH0 PUSH2 0x815 DUP3 PUSH2 0x7EC JUMP JUMPDEST SWAP1 POP SWAP2 SWAP1 POP JUMP JUMPDEST PUSH2 0x825 DUP2 PUSH2 0x80B JUMP JUMPDEST DUP3 MSTORE POP POP JUMP JUMPDEST PUSH0 PUSH1 0x20 DUP3 ADD SWAP1 POP PUSH2 0x83E PUSH0 DUP4 ADD DUP5 PUSH2 0x81C JUMP JUMPDEST SWAP3 SWAP2 POP POP JUMP JUMPDEST PUSH0 DUP2 SWAP1 POP SWAP2 SWAP1 POP JUMP JUMPDEST PUSH2 0x856 DUP2 PUSH2 0x844 JUMP JUMPDEST DUP3 MSTORE POP POP JUMP JUMPDEST PUSH0 PUSH1 0x20 DUP3 ADD SWAP1 POP PUSH2 0x86F PUSH0 DUP4 ADD DUP5 PUSH2 0x84D JUMP JUMPDEST SWAP3 SWAP2 POP POP JUMP JUMPDEST PUSH0 DUP2 ISZERO ISZERO SWAP1 POP SWAP2 SWAP1 POP JUMP JUMPDEST PUSH2 0x889 DUP2 PUSH2 0x875 JUMP JUMPDEST DUP3 MSTORE POP POP JUMP JUMPDEST PUSH0 PUSH1 0x20 DUP3 ADD SWAP1 POP PUSH2 0x8A2 PUSH0 DUP4 ADD DUP5 PUSH2 0x880 JUMP JUMPDEST SWAP3 SWAP2 POP POP JUMP JUMPDEST PUSH0 DUP3 DUP3 MSTORE PUSH1 0x20 DUP3 ADD SWAP1 POP SWAP3 SWAP2 POP POP JUMP JUMPDEST PUSH32 0x4F6E6C792074686520636F6E7472616374206F776E65722063616E2070657266 PUSH0 DUP3 ADD MSTORE PUSH32 0x6F726D207468697320616374696F6E2E00000000000000000000000000000000 PUSH1 0x20 DUP3 ADD MSTORE POP JUMP JUMPDEST PUSH0 PUSH2 0x912 PUSH1 0x30 DUP4 PUSH2 0x8A8 JUMP JUMPDEST SWAP2 POP PUSH2 0x91D DUP3 PUSH2 0x8B8 JUMP JUMPDEST PUSH1 0x40 DUP3 ADD SWAP1 POP SWAP2 SWAP1 POP JUMP JUMPDEST PUSH0 PUSH1 0x20 DUP3 ADD SWAP1 POP DUP2 DUP2 SUB PUSH0 DUP4 ADD MSTORE PUSH2 0x93F DUP2 PUSH2 0x906 JUMP JUMPDEST SWAP1 POP SWAP2 SWAP1 POP JUMP JUMPDEST PUSH32 0x46756E6473206861766520616C7265616479206265656E206469737472696275 PUSH0 DUP3 ADD MSTORE PUSH32 0x7465642E00000000000000000000000000000000000000000000000000000000 PUSH1 0x20 DUP3 ADD MSTORE POP JUMP JUMPDEST PUSH0 PUSH2 0x9A0 PUSH1 0x24 DUP4 PUSH2 0x8A8 JUMP JUMPDEST SWAP2 POP PUSH2 0x9AB DUP3 PUSH2 0x946 JUMP JUMPDEST PUSH1 0x40 DUP3 ADD SWAP1 POP SWAP2 SWAP1 POP JUMP JUMPDEST PUSH0 PUSH1 0x20 DUP3 ADD SWAP1 POP DUP2 DUP2 SUB PUSH0 DUP4 ADD MSTORE PUSH2 0x9CD DUP2 PUSH2 0x994 JUMP JUMPDEST SWAP1 POP SWAP2 SWAP1 POP JUMP JUMPDEST PUSH32 0x4E6F2066756E647320617661696C61626C6520746F2064697374726962757465 PUSH0 DUP3 ADD MSTORE PUSH32 0x2E00000000000000000000000000000000000000000000000000000000000000 PUSH1 0x20 DUP3 ADD MSTORE POP JUMP JUMPDEST PUSH0 PUSH2 0xA2E PUSH1 0x21 DUP4 PUSH2 0x8A8 JUMP JUMPDEST SWAP2 POP PUSH2 0xA39 DUP3 PUSH2 0x9D4 JUMP JUMPDEST PUSH1 0x40 DUP3 ADD SWAP1 POP SWAP2 SWAP1 POP JUMP JUMPDEST PUSH0 PUSH1 0x20 DUP3 ADD SWAP1 POP DUP2 DUP2 SUB PUSH0 DUP4 ADD MSTORE PUSH2 0xA5B DUP2 PUSH2 0xA22 JUMP JUMPDEST SWAP1 POP SWAP2 SWAP1 POP JUMP JUMPDEST PUSH32 0x4E487B7100000000000000000000000000000000000000000000000000000000 PUSH0 MSTORE PUSH1 0x11 PUSH1 0x4 MSTORE PUSH1 0x24 PUSH0 REVERT JUMPDEST PUSH0 PUSH2 0xA99 DUP3 PUSH2 0x844 JUMP JUMPDEST SWAP2 POP PUSH2 0xAA4 DUP4 PUSH2 0x844 JUMP JUMPDEST SWAP3 POP DUP3 DUP3 MUL PUSH2 0xAB2 DUP2 PUSH2 0x844 JUMP JUMPDEST SWAP2 POP DUP3 DUP3 DIV DUP5 EQ DUP4 ISZERO OR PUSH2 0xAC9 JUMPI PUSH2 0xAC8 PUSH2 0xA62 JUMP JUMPDEST JUMPDEST POP SWAP3 SWAP2 POP POP JUMP JUMPDEST PUSH32 0x4E487B7100000000000000000000000000000000000000000000000000000000 PUSH0 MSTORE PUSH1 0x12 PUSH1 0x4 MSTORE PUSH1 0x24 PUSH0 REVERT JUMPDEST PUSH0 PUSH2 0xB07 DUP3 PUSH2 0x844 JUMP JUMPDEST SWAP2 POP PUSH2 0xB12 DUP4 PUSH2 0x844 JUMP JUMPDEST SWAP3 POP DUP3 PUSH2 0xB22 JUMPI PUSH2 0xB21 PUSH2 0xAD0 JUMP JUMPDEST JUMPDEST DUP3 DUP3 DIV SWAP1 POP SWAP3 SWAP2 POP POP JUMP JUMPDEST PUSH0 PUSH2 0xB37 DUP3 PUSH2 0x844 JUMP JUMPDEST SWAP2 POP PUSH2 0xB42 DUP4 PUSH2 0x844 JUMP JUMPDEST SWAP3 POP DUP3 DUP3 SUB SWAP1 POP DUP2 DUP2 GT ISZERO PUSH2 0xB5A JUMPI PUSH2 0xB59 PUSH2 0xA62 JUMP JUMPDEST JUMPDEST SWAP3 SWAP2 POP POP JUMP JUMPDEST PUSH0 DUP2 SWAP1 POP SWAP2 SWAP1 POP JUMP JUMPDEST PUSH0 PUSH2 0xB83 PUSH2 0xB7E PUSH2 0xB79 DUP5 PUSH2 0x7EC JUMP JUMPDEST PUSH2 0xB60 JUMP JUMPDEST PUSH2 0x7EC JUMP JUMPDEST SWAP1 POP SWAP2 SWAP1 POP JUMP JUMPDEST PUSH0 PUSH2 0xB94 DUP3 PUSH2 0xB69 JUMP JUMPDEST SWAP1 POP SWAP2 SWAP1 POP JUMP JUMPDEST PUSH0 PUSH2 0xBA5 DUP3 PUSH2 0xB8A JUMP JUMPDEST SWAP1 POP SWAP2 SWAP1 POP JUMP JUMPDEST PUSH2 0xBB5 DUP2 PUSH2 0xB9B JUMP JUMPDEST DUP3 MSTORE POP POP JUMP JUMPDEST PUSH0 PUSH1 0x40 DUP3 ADD SWAP1 POP PUSH2 0xBCE PUSH0 DUP4 ADD DUP6 PUSH2 0xBAC JUMP JUMPDEST PUSH2 0xBDB PUSH1 0x20 DUP4 ADD DUP5 PUSH2 0x84D JUMP JUMPDEST SWAP4 SWAP3 POP POP POP JUMP JUMPDEST PUSH0 PUSH1 0x40 DUP3 ADD SWAP1 POP PUSH2 0xBF5 PUSH0 DUP4 ADD DUP6 PUSH2 0x84D JUMP JUMPDEST PUSH2 0xC02 PUSH1 0x20 DUP4 ADD DUP5 PUSH2 0x84D JUMP JUMPDEST SWAP4 SWAP3 POP POP POP JUMP JUMPDEST PUSH32 0x4E6F2066756E647320746F207265636F7665722E000000000000000000000000 PUSH0 DUP3 ADD MSTORE POP JUMP JUMPDEST PUSH0 PUSH2 0xC3D PUSH1 0x14 DUP4 PUSH2 0x8A8 JUMP JUMPDEST SWAP2 POP PUSH2 0xC48 DUP3 PUSH2 0xC09 JUMP JUMPDEST PUSH1 0x20 DUP3 ADD SWAP1 POP SWAP2 SWAP1 POP JUMP JUMPDEST PUSH0 PUSH1 0x20 DUP3 ADD SWAP1 POP DUP2 DUP2 SUB PUSH0 DUP4 ADD MSTORE PUSH2 0xC6A DUP2 PUSH2 0xC31 JUMP JUMPDEST SWAP1 POP SWAP2 SWAP1 POP JUMP JUMPDEST PUSH32 0x496E76616C696420616D6F756E742E20596F752063616E2073656E6420757020 PUSH0 DUP3 ADD MSTORE PUSH32 0x746F2031312045746865722E0000000000000000000000000000000000000000 PUSH1 0x20 DUP3 ADD MSTORE POP JUMP JUMPDEST PUSH0 PUSH2 0xCCB PUSH1 0x2C DUP4 PUSH2 0x8A8 JUMP JUMPDEST SWAP2 POP PUSH2 0xCD6 DUP3 PUSH2 0xC71 JUMP JUMPDEST PUSH1 0x40 DUP3 ADD SWAP1 POP SWAP2 SWAP1 POP JUMP JUMPDEST PUSH0 PUSH1 0x20 DUP3 ADD SWAP1 POP DUP2 DUP2 SUB PUSH0 DUP4 ADD MSTORE PUSH2 0xCF8 DUP2 PUSH2 0xCBF JUMP JUMPDEST SWAP1 POP SWAP2 SWAP1 POP JUMP JUMPDEST PUSH0 PUSH2 0xD09 DUP3 PUSH2 0x7EC JUMP JUMPDEST SWAP1 POP SWAP2 SWAP1 POP JUMP JUMPDEST PUSH2 0xD19 DUP2 PUSH2 0xCFF JUMP JUMPDEST DUP3 MSTORE POP POP JUMP JUMPDEST PUSH0 PUSH1 0x40 DUP3 ADD SWAP1 POP PUSH2 0xD32 PUSH0 DUP4 ADD DUP6 PUSH2 0xD10 JUMP JUMPDEST PUSH2 0xD3F PUSH1 0x20 DUP4 ADD DUP5 PUSH2 0x84D JUMP JUMPDEST SWAP4 SWAP3 POP POP POP JUMP JUMPDEST PUSH32 0x5265656E7472616E637947756172643A207265656E7472616E742063616C6C00 PUSH0 DUP3 ADD MSTORE POP JUMP JUMPDEST PUSH0 PUSH2 0xD7A PUSH1 0x1F DUP4 PUSH2 0x8A8 JUMP JUMPDEST SWAP2 POP PUSH2 0xD85 DUP3 PUSH2 0xD46 JUMP JUMPDEST PUSH1 0x20 DUP3 ADD SWAP1 POP SWAP2 SWAP1 POP JUMP JUMPDEST PUSH0 PUSH1 0x20 DUP3 ADD SWAP1 POP DUP2 DUP2 SUB PUSH0 DUP4 ADD MSTORE PUSH2 0xDA7 DUP2 PUSH2 0xD6E JUMP JUMPDEST SWAP1 POP SWAP2 SWAP1 POP JUMP INVALID LOG2 PUSH5 0x6970667358 0x22 SLT KECCAK256 STOP MSTORE NUMBER PUSH14 0x40CB3A4FFF565399B8512F72A43F 0xB8 0x28 DUP14 SWAP14 0xAE 0xE1 EXTCODEHASH 0x21 PUSH24 0xBE93B4FDBD64736F6C634300081500330000000000000000 "
	},
	"abi": [
		{
			"inputs": [
				{
					"internalType": "address payable",
					"name": "_rs2",
					"type": "address"
				},
				{
					"internalType": "address payable",
					"name": "_rs3",
					"type": "address"
				},
				{
					"internalType": "uint256",
					"name": "_ps",
					"type": "uint256"
				}
			],
			"stateMutability": "payable",
			"type": "constructor"
		},
		{
			"anonymous": false,
			"inputs": [
				{
					"indexed": false,
					"internalType": "address",
					"name": "sender",
					"type": "address"
				},
				{
					"indexed": false,
					"internalType": "uint256",
					"name": "amount",
					"type": "uint256"
				}
			],
			"name": "ContractFunded",
			"type": "event"
		},
		{
			"inputs": [],
			"name": "distributeFunds",
			"outputs": [],
			"stateMutability": "payable",
			"type": "function"
		},
		{
			"inputs": [],
			"name": "fundContract",
			"outputs": [],
			"stateMutability": "payable",
			"type": "function"
		},
		{
			"anonymous": false,
			"inputs": [
				{
					"indexed": false,
					"internalType": "uint256",
					"name": "rs2Share",
					"type": "uint256"
				},
				{
					"indexed": false,
					"internalType": "uint256",
					"name": "rs3Share",
					"type": "uint256"
				}
			],
			"name": "FundsDistributed",
			"type": "event"
		},
		{
			"inputs": [],
			"name": "recoverStuckFunds",
			"outputs": [],
			"stateMutability": "nonpayable",
			"type": "function"
		},
		{
			"anonymous": false,
			"inputs": [
				{
					"indexed": false,
					"internalType": "address",
					"name": "recipient",
					"type": "address"
				},
				{
					"indexed": false,
					"internalType": "uint256",
					"name": "amount",
					"type": "uint256"
				}
			],
			"name": "RemainingBalanceReturned",
			"type": "event"
		},
		{
			"inputs": [],
			"name": "fundsDistributed",
			"outputs": [
				{
					"internalType": "bool",
					"name": "",
					"type": "bool"
				}
			],
			"stateMutability": "view",
			"type": "function"
		},
		{
			"inputs": [],
			"name": "getContractBalance",
			"outputs": [
				{
					"internalType": "uint256",
					"name": "",
					"type": "uint256"
				}
			],
			"stateMutability": "view",
			"type": "function"
		},
		{
			"inputs": [],
			"name": "MAX_RECEIVE_AMOUNT",
			"outputs": [
				{
					"internalType": "uint256",
					"name": "",
					"type": "uint256"
				}
			],
			"stateMutability": "view",
			"type": "function"
		},
		{
			"inputs": [],
			"name": "ps",
			"outputs": [
				{
					"internalType": "uint256",
					"name": "",
					"type": "uint256"
				}
			],
			"stateMutability": "view",
			"type": "function"
		},
		{
			"inputs": [],
			"name": "rs1",
			"outputs": [
				{
					"internalType": "address payable",
					"name": "",
					"type": "address"
				}
			],
			"stateMutability": "view",
			"type": "function"
		},
		{
			"inputs": [],
			"name": "rs2",
			"outputs": [
				{
					"internalType": "address payable",
					"name": "",
					"type": "address"
				}
			],
			"stateMutability": "view",
			"type": "function"
		},
		{
			"inputs": [],
			"name": "rs3",
			"outputs": [
				{
					"internalType": "address payable",
					"name": "",
					"type": "address"
				}
			],
			"stateMutability": "view",
			"type": "function"
		}
	],
	"storageLayout": {
		"storage": [
			{
				"astId": 10,
				"contract": "recesip.sol:RevenueSharingContract",
				"label": "_status",
				"offset": 0,
				"slot": "0",
				"type": "t_uint256"
			},
			{
				"astId": 71,
				"contract": "recesip.sol:RevenueSharingContract",
				"label": "rs1",
				"offset": 0,
				"slot": "1",
				"type": "t_address_payable"
			},
			{
				"astId": 73,
				"contract": "recesip.sol:RevenueSharingContract",
				"label": "rs2",
				"offset": 0,
				"slot": "2",
				"type": "t_address_payable"
			},
			{
				"astId": 75,
				"contract": "recesip.sol:RevenueSharingContract",
				"label": "rs3",
				"offset": 0,
				"slot": "3",
				"type": "t_address_payable"
			},
			{
				"astId": 77,
				"contract": "recesip.sol:RevenueSharingContract",
				"label": "ps",
				"offset": 0,
				"slot": "4",
				"type": "t_uint256"
			},
			{
				"astId": 79,
				"contract": "recesip.sol:RevenueSharingContract",
				"label": "fundsDistributed",
				"offset": 0,
				"slot": "5",
				"type": "t_bool"
			}
		],
		"types": {
			"t_address_payable": {
				"encoding": "inplace",
				"label": "address payable",
				"numberOfBytes": "20"
			},
			"t_bool": {
				"encoding": "inplace",
				"label": "bool",
				"numberOfBytes": "1"
			},
			"t_uint256": {
				"encoding": "inplace",
				"label": "uint256",
				"numberOfBytes": "32"
			}
		}
	},
	"web3Deploy": "var _rs2 = /* var of type address here */ ;\nvar _rs3 = /* var of type address here */ ;\nvar _ps = /* var of type uint256 here */ ;\nvar revenuesharingcontractContract = new web3.eth.Contract([{\"inputs\":[{\"internalType\":\"address payable\",\"name\":\"_rs2\",\"type\":\"address\"},{\"internalType\":\"address payable\",\"name\":\"_rs3\",\"type\":\"address\"},{\"internalType\":\"uint256\",\"name\":\"_ps\",\"type\":\"uint256\"}],\"stateMutability\":\"payable\",\"type\":\"constructor\"},{\"anonymous\":false,\"inputs\":[{\"indexed\":false,\"internalType\":\"address\",\"name\":\"sender\",\"type\":\"address\"},{\"indexed\":false,\"internalType\":\"uint256\",\"name\":\"amount\",\"type\":\"uint256\"}],\"name\":\"ContractFunded\",\"type\":\"event\"},{\"anonymous\":false,\"inputs\":[{\"indexed\":false,\"internalType\":\"uint256\",\"name\":\"rs2Share\",\"type\":\"uint256\"},{\"indexed\":false,\"internalType\":\"uint256\",\"name\":\"rs3Share\",\"type\":\"uint256\"}],\"name\":\"FundsDistributed\",\"type\":\"event\"},{\"anonymous\":false,\"inputs\":[{\"indexed\":false,\"internalType\":\"address\",\"name\":\"recipient\",\"type\":\"address\"},{\"indexed\":false,\"internalType\":\"uint256\",\"name\":\"amount\",\"type\":\"uint256\"}],\"name\":\"RemainingBalanceReturned\",\"type\":\"event\"},{\"inputs\":[],\"name\":\"MAX_RECEIVE_AMOUNT\",\"outputs\":[{\"internalType\":\"uint256\",\"name\":\"\",\"type\":\"uint256\"}],\"stateMutability\":\"view\",\"type\":\"function\"},{\"inputs\":[],\"name\":\"distributeFunds\",\"outputs\":[],\"stateMutability\":\"payable\",\"type\":\"function\"},{\"inputs\":[],\"name\":\"fundContract\",\"outputs\":[],\"stateMutability\":\"payable\",\"type\":\"function\"},{\"inputs\":[],\"name\":\"fundsDistributed\",\"outputs\":[{\"internalType\":\"bool\",\"name\":\"\",\"type\":\"bool\"}],\"stateMutability\":\"view\",\"type\":\"function\"},{\"inputs\":[],\"name\":\"getContractBalance\",\"outputs\":[{\"internalType\":\"uint256\",\"name\":\"\",\"type\":\"uint256\"}],\"stateMutability\":\"view\",\"type\":\"function\"},{\"inputs\":[],\"name\":\"ps\",\"outputs\":[{\"internalType\":\"uint256\",\"name\":\"\",\"type\":\"uint256\"}],\"stateMutability\":\"view\",\"type\":\"function\"},{\"inputs\":[],\"name\":\"recoverStuckFunds\",\"outputs\":[],\"stateMutability\":\"nonpayable\",\"type\":\"function\"},{\"inputs\":[],\"name\":\"rs1\",\"outputs\":[{\"internalType\":\"address payable\",\"name\":\"\",\"type\":\"address\"}],\"stateMutability\":\"view\",\"type\":\"function\"},{\"inputs\":[],\"name\":\"rs2\",\"outputs\":[{\"internalType\":\"address payable\",\"name\":\"\",\"type\":\"address\"}],\"stateMutability\":\"view\",\"type\":\"function\"},{\"inputs\":[],\"name\":\"rs3\",\"outputs\":[{\"internalType\":\"address payable\",\"name\":\"\",\"type\":\"address\"}],\"stateMutability\":\"view\",\"type\":\"function\"}]);\nvar revenuesharingcontract = revenuesharingcontractContract.deploy({\n     data: '0x6080604052604051620011f8380380620011f883398181016040528101906200002991906200029b565b60015f819055505f73ffffffffffffffffffffffffffffffffffffffff168373ffffffffffffffffffffffffffffffffffffffff16141580156200009957505f73ffffffffffffffffffffffffffffffffffffffff168273ffffffffffffffffffffffffffffffffffffffff1614155b620000db576040517f08c379a0000000000000000000000000000000000000000000000000000000008152600401620000d29062000352565b60405180910390fd5b5f81118015620000ec575060648111155b6200012e576040517f08c379a00000000000000000000000000000000000000000000000000000000081526004016200012590620003e6565b60405180910390fd5b3360015f6101000a81548173ffffffffffffffffffffffffffffffffffffffff021916908373ffffffffffffffffffffffffffffffffffffffff1602179055508260025f6101000a81548173ffffffffffffffffffffffffffffffffffffffff021916908373ffffffffffffffffffffffffffffffffffffffff1602179055508160035f6101000a81548173ffffffffffffffffffffffffffffffffffffffff021916908373ffffffffffffffffffffffffffffffffffffffff1602179055508060048190555050505062000406565b5f80fd5b5f73ffffffffffffffffffffffffffffffffffffffff82169050919050565b5f6200022d8262000202565b9050919050565b6200023f8162000221565b81146200024a575f80fd5b50565b5f815190506200025d8162000234565b92915050565b5f819050919050565b620002778162000263565b811462000282575f80fd5b50565b5f8151905062000295816200026c565b92915050565b5f805f60608486031215620002b557620002b4620001fe565b5b5f620002c4868287016200024d565b9350506020620002d7868287016200024d565b9250506040620002ea8682870162000285565b9150509250925092565b5f82825260208201905092915050565b7f496e76616c6964207061727469636970616e74206164647265737365732e00005f82015250565b5f6200033a601e83620002f4565b9150620003478262000304565b602082019050919050565b5f6020820190508181035f8301526200036b816200032c565b9050919050565b7f50657263656e746167652073686172652073686f756c642062652062657477655f8201527f656e203120616e64203130302e00000000000000000000000000000000000000602082015250565b5f620003ce602d83620002f4565b9150620003db8262000372565b604082019050919050565b5f6020820190508181035f830152620003ff81620003c0565b9050919050565b610de480620004145f395ff3fe608060405260043610610090575f3560e01c8063babe2b7611610058578063babe2b7614610146578063bcf5750114610170578063bd097e2114610186578063e929afc414610190578063f11c7f3d146101ba57610090565b80633a6a4d2e146100945780633d68ed691461009e57806341a54550146100c85780636f95b3f3146100f25780636f9fb98a1461011c575b5f80fd5b61009c6101e4565b005b3480156100a9575f80fd5b506100b2610533565b6040516100bf919061082b565b60405180910390f35b3480156100d3575f80fd5b506100dc610558565b6040516100e9919061085c565b60405180910390f35b3480156100fd575f80fd5b5061010661055e565b604051610113919061088f565b60405180910390f35b348015610127575f80fd5b50610130610570565b60405161013d919061085c565b60405180910390f35b348015610151575f80fd5b5061015a610577565b604051610167919061085c565b60405180910390f35b34801561017b575f80fd5b50610184610583565b005b61018e6106bb565b005b34801561019b575f80fd5b506101a461074c565b6040516101b1919061082b565b60405180910390f35b3480156101c5575f80fd5b506101ce610771565b6040516101db919061082b565b60405180910390f35b60015f9054906101000a900473ffffffffffffffffffffffffffffffffffffffff1673ffffffffffffffffffffffffffffffffffffffff163373ffffffffffffffffffffffffffffffffffffffff1614610273576040517f08c379a000000000000000000000000000000000000000000000000000000000815260040161026a90610928565b60405180910390fd5b60055f9054906101000a900460ff16156102c2576040517f08c379a00000000000000000000000000000000000000000000000000000000081526004016102b9906109b6565b60405180910390fd5b6102ca610796565b5f471161030c576040517f08c379a000000000000000000000000000000000000000000000000000000000815260040161030390610a44565b60405180910390fd5b5f4790505f6064600454836103219190610a8f565b61032b9190610afd565b90505f818361033a9190610b2d565b9050600160055f6101000a81548160ff02191690831515021790555060025f9054906101000a900473ffffffffffffffffffffffffffffffffffffffff1673ffffffffffffffffffffffffffffffffffffffff166108fc8390811502906040515f60405180830381858888f193505050501580156103ba573d5f803e3d5ffd5b5060035f9054906101000a900473ffffffffffffffffffffffffffffffffffffffff1673ffffffffffffffffffffffffffffffffffffffff166108fc8290811502906040515f60405180830381858888f1935050505015801561041f573d5f803e3d5ffd5b505f4790505f8111156104ec5760015f9054906101000a900473ffffffffffffffffffffffffffffffffffffffff1673ffffffffffffffffffffffffffffffffffffffff166108fc8290811502906040515f60405180830381858888f19350505050158015610490573d5f803e3d5ffd5b507f262600a14409bf795e747ab7eb71cb691ccbdbdeba406804ea8627e9a0ce316460015f9054906101000a900473ffffffffffffffffffffffffffffffffffffffff16826040516104e3929190610bbb565b60405180910390a15b7f40d8c854b6d5329fd5fccae04f5a931d7529963fbab81aced7337394e737cb4d838360405161051d929190610be2565b60405180910390a1505050506105316107e3565b565b60035f9054906101000a900473ffffffffffffffffffffffffffffffffffffffff1681565b60045481565b60055f9054906101000a900460ff1681565b5f47905090565b6798a7d9b8314c000081565b60015f9054906101000a900473ffffffffffffffffffffffffffffffffffffffff1673ffffffffffffffffffffffffffffffffffffffff163373ffffffffffffffffffffffffffffffffffffffff1614610612576040517f08c379a000000000000000000000000000000000000000000000000000000000815260040161060990610928565b60405180910390fd5b5f4711610654576040517f08c379a000000000000000000000000000000000000000000000000000000000815260040161064b90610c53565b60405180910390fd5b60015f9054906101000a900473ffffffffffffffffffffffffffffffffffffffff1673ffffffffffffffffffffffffffffffffffffffff166108fc4790811502906040515f60405180830381858888f193505050501580156106b8573d5f803e3d5ffd5b50565b5f341180156106d257506798a7d9b8314c00003411155b610711576040517f08c379a000000000000000000000000000000000000000000000000000000000815260040161070890610ce1565b60405180910390fd5b7f0939f6f4877faf071412e527bc4c6d0bd65ad077e52b57334f7765265647a7f13334604051610742929190610d1f565b60405180910390a1565b60025f9054906101000a900473ffffffffffffffffffffffffffffffffffffffff1681565b60015f9054906101000a900473ffffffffffffffffffffffffffffffffffffffff1681565b60025f54036107da576040517f08c379a00000000000000000000000000000000000000000000000000000000081526004016107d190610d90565b60405180910390fd5b60025f81905550565b60015f81905550565b5f73ffffffffffffffffffffffffffffffffffffffff82169050919050565b5f610815826107ec565b9050919050565b6108258161080b565b82525050565b5f60208201905061083e5f83018461081c565b92915050565b5f819050919050565b61085681610844565b82525050565b5f60208201905061086f5f83018461084d565b92915050565b5f8115159050919050565b61088981610875565b82525050565b5f6020820190506108a25f830184610880565b92915050565b5f82825260208201905092915050565b7f4f6e6c792074686520636f6e7472616374206f776e65722063616e20706572665f8201527f6f726d207468697320616374696f6e2e00000000000000000000000000000000602082015250565b5f6109126030836108a8565b915061091d826108b8565b604082019050919050565b5f6020820190508181035f83015261093f81610906565b9050919050565b7f46756e6473206861766520616c7265616479206265656e2064697374726962755f8201527f7465642e00000000000000000000000000000000000000000000000000000000602082015250565b5f6109a06024836108a8565b91506109ab82610946565b604082019050919050565b5f6020820190508181035f8301526109cd81610994565b9050919050565b7f4e6f2066756e647320617661696c61626c6520746f20646973747269627574655f8201527f2e00000000000000000000000000000000000000000000000000000000000000602082015250565b5f610a2e6021836108a8565b9150610a39826109d4565b604082019050919050565b5f6020820190508181035f830152610a5b81610a22565b9050919050565b7f4e487b71000000000000000000000000000000000000000000000000000000005f52601160045260245ffd5b5f610a9982610844565b9150610aa483610844565b9250828202610ab281610844565b91508282048414831517610ac957610ac8610a62565b5b5092915050565b7f4e487b71000000000000000000000000000000000000000000000000000000005f52601260045260245ffd5b5f610b0782610844565b9150610b1283610844565b925082610b2257610b21610ad0565b5b828204905092915050565b5f610b3782610844565b9150610b4283610844565b9250828203905081811115610b5a57610b59610a62565b5b92915050565b5f819050919050565b5f610b83610b7e610b79846107ec565b610b60565b6107ec565b9050919050565b5f610b9482610b69565b9050919050565b5f610ba582610b8a565b9050919050565b610bb581610b9b565b82525050565b5f604082019050610bce5f830185610bac565b610bdb602083018461084d565b9392505050565b5f604082019050610bf55f83018561084d565b610c02602083018461084d565b9392505050565b7f4e6f2066756e647320746f207265636f7665722e0000000000000000000000005f82015250565b5f610c3d6014836108a8565b9150610c4882610c09565b602082019050919050565b5f6020820190508181035f830152610c6a81610c31565b9050919050565b7f496e76616c696420616d6f756e742e20596f752063616e2073656e64207570205f8201527f746f2031312045746865722e0000000000000000000000000000000000000000602082015250565b5f610ccb602c836108a8565b9150610cd682610c71565b604082019050919050565b5f6020820190508181035f830152610cf881610cbf565b9050919050565b5f610d09826107ec565b9050919050565b610d1981610cff565b82525050565b5f604082019050610d325f830185610d10565b610d3f602083018461084d565b9392505050565b7f5265656e7472616e637947756172643a207265656e7472616e742063616c6c005f82015250565b5f610d7a601f836108a8565b9150610d8582610d46565b602082019050919050565b5f6020820190508181035f830152610da781610d6e565b905091905056fea26469706673582212200052436d40cb3a4fff565399b8512f72a43fb8288d9daee13f2177be93b4fdbd64736f6c63430008150033', \n     arguments: [\n          _rs2,\n          _rs3,\n          _ps,\n     ]\n}).send({\n     from: web3.eth.accounts[0], \n     gas: '4700000'\n   }, function (e, contract){\n    console.log(e, contract);\n    if (typeof contract.address !== 'undefined') {\n         console.log('Contract mined! address: ' + contract.address + ' transactionHash: ' + contract.transactionHash);\n    }\n })",
	"functionHashes": {
		"babe2b76": "MAX_RECEIVE_AMOUNT()",
		"3a6a4d2e": "distributeFunds()",
		"bd097e21": "fundContract()",
		"6f95b3f3": "fundsDistributed()",
		"6f9fb98a": "getContractBalance()",
		"41a54550": "ps()",
		"bcf57501": "recoverStuckFunds()",
		"f11c7f3d": "rs1()",
		"e929afc4": "rs2()",
		"3d68ed69": "rs3()"
	},
	"gasEstimates": {
		"Creation": {
			"codeDepositCost": "711200",
			"executionCost": "infinite",
			"totalCost": "infinite"
		},
		"External": {
			"MAX_RECEIVE_AMOUNT()": "325",
			"distributeFunds()": "infinite",
			"fundContract()": "1809",
			"fundsDistributed()": "2533",
			"getContractBalance()": "423",
			"ps()": "2470",
			"recoverStuckFunds()": "infinite",
			"rs1()": "2596",
			"rs2()": "2574",
			"rs3()": "2531"
		}
	},
	"devdoc": {
		"kind": "dev",
		"methods": {},
		"version": 1
	},
	"userdoc": {
		"kind": "user",
		"methods": {},
		"version": 1
	},
	"Runtime Bytecode": {
		"immutableReferences": {},
		"linkReferences": {},
		"object": "608060405260043610610090575f3560e01c8063babe2b7611610058578063babe2b7614610146578063bcf5750114610170578063bd097e2114610186578063e929afc414610190578063f11c7f3d146101ba57610090565b80633a6a4d2e146100945780633d68ed691461009e57806341a54550146100c85780636f95b3f3146100f25780636f9fb98a1461011c575b5f80fd5b61009c6101e4565b005b3480156100a9575f80fd5b506100b2610533565b6040516100bf919061082b565b60405180910390f35b3480156100d3575f80fd5b506100dc610558565b6040516100e9919061085c565b60405180910390f35b3480156100fd575f80fd5b5061010661055e565b604051610113919061088f565b60405180910390f35b348015610127575f80fd5b50610130610570565b60405161013d919061085c565b60405180910390f35b348015610151575f80fd5b5061015a610577565b604051610167919061085c565b60405180910390f35b34801561017b575f80fd5b50610184610583565b005b61018e6106bb565b005b34801561019b575f80fd5b506101a461074c565b6040516101b1919061082b565b60405180910390f35b3480156101c5575f80fd5b506101ce610771565b6040516101db919061082b565b60405180910390f35b60015f9054906101000a900473ffffffffffffffffffffffffffffffffffffffff1673ffffffffffffffffffffffffffffffffffffffff163373ffffffffffffffffffffffffffffffffffffffff1614610273576040517f08c379a000000000000000000000000000000000000000000000000000000000815260040161026a90610928565b60405180910390fd5b60055f9054906101000a900460ff16156102c2576040517f08c379a00000000000000000000000000000000000000000000000000000000081526004016102b9906109b6565b60405180910390fd5b6102ca610796565b5f471161030c576040517f08c379a000000000000000000000000000000000000000000000000000000000815260040161030390610a44565b60405180910390fd5b5f4790505f6064600454836103219190610a8f565b61032b9190610afd565b90505f818361033a9190610b2d565b9050600160055f6101000a81548160ff02191690831515021790555060025f9054906101000a900473ffffffffffffffffffffffffffffffffffffffff1673ffffffffffffffffffffffffffffffffffffffff166108fc8390811502906040515f60405180830381858888f193505050501580156103ba573d5f803e3d5ffd5b5060035f9054906101000a900473ffffffffffffffffffffffffffffffffffffffff1673ffffffffffffffffffffffffffffffffffffffff166108fc8290811502906040515f60405180830381858888f1935050505015801561041f573d5f803e3d5ffd5b505f4790505f8111156104ec5760015f9054906101000a900473ffffffffffffffffffffffffffffffffffffffff1673ffffffffffffffffffffffffffffffffffffffff166108fc8290811502906040515f60405180830381858888f19350505050158015610490573d5f803e3d5ffd5b507f262600a14409bf795e747ab7eb71cb691ccbdbdeba406804ea8627e9a0ce316460015f9054906101000a900473ffffffffffffffffffffffffffffffffffffffff16826040516104e3929190610bbb565b60405180910390a15b7f40d8c854b6d5329fd5fccae04f5a931d7529963fbab81aced7337394e737cb4d838360405161051d929190610be2565b60405180910390a1505050506105316107e3565b565b60035f9054906101000a900473ffffffffffffffffffffffffffffffffffffffff1681565b60045481565b60055f9054906101000a900460ff1681565b5f47905090565b6798a7d9b8314c000081565b60015f9054906101000a900473ffffffffffffffffffffffffffffffffffffffff1673ffffffffffffffffffffffffffffffffffffffff163373ffffffffffffffffffffffffffffffffffffffff1614610612576040517f08c379a000000000000000000000000000000000000000000000000000000000815260040161060990610928565b60405180910390fd5b5f4711610654576040517f08c379a000000000000000000000000000000000000000000000000000000000815260040161064b90610c53565b60405180910390fd5b60015f9054906101000a900473ffffffffffffffffffffffffffffffffffffffff1673ffffffffffffffffffffffffffffffffffffffff166108fc4790811502906040515f60405180830381858888f193505050501580156106b8573d5f803e3d5ffd5b50565b5f341180156106d257506798a7d9b8314c00003411155b610711576040517f08c379a000000000000000000000000000000000000000000000000000000000815260040161070890610ce1565b60405180910390fd5b7f0939f6f4877faf071412e527bc4c6d0bd65ad077e52b57334f7765265647a7f13334604051610742929190610d1f565b60405180910390a1565b60025f9054906101000a900473ffffffffffffffffffffffffffffffffffffffff1681565b60015f9054906101000a900473ffffffffffffffffffffffffffffffffffffffff1681565b60025f54036107da576040517f08c379a00000000000000000000000000000000000000000000000000000000081526004016107d190610d90565b60405180910390fd5b60025f81905550565b60015f81905550565b5f73ffffffffffffffffffffffffffffffffffffffff82169050919050565b5f610815826107ec565b9050919050565b6108258161080b565b82525050565b5f60208201905061083e5f83018461081c565b92915050565b5f819050919050565b61085681610844565b82525050565b5f60208201905061086f5f83018461084d565b92915050565b5f8115159050919050565b61088981610875565b82525050565b5f6020820190506108a25f830184610880565b92915050565b5f82825260208201905092915050565b7f4f6e6c792074686520636f6e7472616374206f776e65722063616e20706572665f8201527f6f726d207468697320616374696f6e2e00000000000000000000000000000000602082015250565b5f6109126030836108a8565b915061091d826108b8565b604082019050919050565b5f6020820190508181035f83015261093f81610906565b9050919050565b7f46756e6473206861766520616c7265616479206265656e2064697374726962755f8201527f7465642e00000000000000000000000000000000000000000000000000000000602082015250565b5f6109a06024836108a8565b91506109ab82610946565b604082019050919050565b5f6020820190508181035f8301526109cd81610994565b9050919050565b7f4e6f2066756e647320617661696c61626c6520746f20646973747269627574655f8201527f2e00000000000000000000000000000000000000000000000000000000000000602082015250565b5f610a2e6021836108a8565b9150610a39826109d4565b604082019050919050565b5f6020820190508181035f830152610a5b81610a22565b9050919050565b7f4e487b71000000000000000000000000000000000000000000000000000000005f52601160045260245ffd5b5f610a9982610844565b9150610aa483610844565b9250828202610ab281610844565b91508282048414831517610ac957610ac8610a62565b5b5092915050565b7f4e487b71000000000000000000000000000000000000000000000000000000005f52601260045260245ffd5b5f610b0782610844565b9150610b1283610844565b925082610b2257610b21610ad0565b5b828204905092915050565b5f610b3782610844565b9150610b4283610844565b9250828203905081811115610b5a57610b59610a62565b5b92915050565b5f819050919050565b5f610b83610b7e610b79846107ec565b610b60565b6107ec565b9050919050565b5f610b9482610b69565b9050919050565b5f610ba582610b8a565b9050919050565b610bb581610b9b565b82525050565b5f604082019050610bce5f830185610bac565b610bdb602083018461084d565b9392505050565b5f604082019050610bf55f83018561084d565b610c02602083018461084d565b9392505050565b7f4e6f2066756e647320746f207265636f7665722e0000000000000000000000005f82015250565b5f610c3d6014836108a8565b9150610c4882610c09565b602082019050919050565b5f6020820190508181035f830152610c6a81610c31565b9050919050565b7f496e76616c696420616d6f756e742e20596f752063616e2073656e64207570205f8201527f746f2031312045746865722e0000000000000000000000000000000000000000602082015250565b5f610ccb602c836108a8565b9150610cd682610c71565b604082019050919050565b5f6020820190508181035f830152610cf881610cbf565b9050919050565b5f610d09826107ec565b9050919050565b610d1981610cff565b82525050565b5f604082019050610d325f830185610d10565b610d3f602083018461084d565b9392505050565b7f5265656e7472616e637947756172643a207265656e7472616e742063616c6c005f82015250565b5f610d7a601f836108a8565b9150610d8582610d46565b602082019050919050565b5f6020820190508181035f830152610da781610d6e565b905091905056fea26469706673582212200052436d40cb3a4fff565399b8512f72a43fb8288d9daee13f2177be93b4fdbd64736f6c63430008150033",
		"opcodes": "PUSH1 0x80 PUSH1 0x40 MSTORE PUSH1 0x4 CALLDATASIZE LT PUSH2 0x90 JUMPI PUSH0 CALLDATALOAD PUSH1 0xE0 SHR DUP1 PUSH4 0xBABE2B76 GT PUSH2 0x58 JUMPI DUP1 PUSH4 0xBABE2B76 EQ PUSH2 0x146 JUMPI DUP1 PUSH4 0xBCF57501 EQ PUSH2 0x170 JUMPI DUP1 PUSH4 0xBD097E21 EQ PUSH2 0x186 JUMPI DUP1 PUSH4 0xE929AFC4 EQ PUSH2 0x190 JUMPI DUP1 PUSH4 0xF11C7F3D EQ PUSH2 0x1BA JUMPI PUSH2 0x90 JUMP JUMPDEST DUP1 PUSH4 0x3A6A4D2E EQ PUSH2 0x94 JUMPI DUP1 PUSH4 0x3D68ED69 EQ PUSH2 0x9E JUMPI DUP1 PUSH4 0x41A54550 EQ PUSH2 0xC8 JUMPI DUP1 PUSH4 0x6F95B3F3 EQ PUSH2 0xF2 JUMPI DUP1 PUSH4 0x6F9FB98A EQ PUSH2 0x11C JUMPI JUMPDEST PUSH0 DUP1 REVERT JUMPDEST PUSH2 0x9C PUSH2 0x1E4 JUMP JUMPDEST STOP JUMPDEST CALLVALUE DUP1 ISZERO PUSH2 0xA9 JUMPI PUSH0 DUP1 REVERT JUMPDEST POP PUSH2 0xB2 PUSH2 0x533 JUMP JUMPDEST PUSH1 0x40 MLOAD PUSH2 0xBF SWAP2 SWAP1 PUSH2 0x82B JUMP JUMPDEST PUSH1 0x40 MLOAD DUP1 SWAP2 SUB SWAP1 RETURN JUMPDEST CALLVALUE DUP1 ISZERO PUSH2 0xD3 JUMPI PUSH0 DUP1 REVERT JUMPDEST POP PUSH2 0xDC PUSH2 0x558 JUMP JUMPDEST PUSH1 0x40 MLOAD PUSH2 0xE9 SWAP2 SWAP1 PUSH2 0x85C JUMP JUMPDEST PUSH1 0x40 MLOAD DUP1 SWAP2 SUB SWAP1 RETURN JUMPDEST CALLVALUE DUP1 ISZERO PUSH2 0xFD JUMPI PUSH0 DUP1 REVERT JUMPDEST POP PUSH2 0x106 PUSH2 0x55E JUMP JUMPDEST PUSH1 0x40 MLOAD PUSH2 0x113 SWAP2 SWAP1 PUSH2 0x88F JUMP JUMPDEST PUSH1 0x40 MLOAD DUP1 SWAP2 SUB SWAP1 RETURN JUMPDEST CALLVALUE DUP1 ISZERO PUSH2 0x127 JUMPI PUSH0 DUP1 REVERT JUMPDEST POP PUSH2 0x130 PUSH2 0x570 JUMP JUMPDEST PUSH1 0x40 MLOAD PUSH2 0x13D SWAP2 SWAP1 PUSH2 0x85C JUMP JUMPDEST PUSH1 0x40 MLOAD DUP1 SWAP2 SUB SWAP1 RETURN JUMPDEST CALLVALUE DUP1 ISZERO PUSH2 0x151 JUMPI PUSH0 DUP1 REVERT JUMPDEST POP PUSH2 0x15A PUSH2 0x577 JUMP JUMPDEST PUSH1 0x40 MLOAD PUSH2 0x167 SWAP2 SWAP1 PUSH2 0x85C JUMP JUMPDEST PUSH1 0x40 MLOAD DUP1 SWAP2 SUB SWAP1 RETURN JUMPDEST CALLVALUE DUP1 ISZERO PUSH2 0x17B JUMPI PUSH0 DUP1 REVERT JUMPDEST POP PUSH2 0x184 PUSH2 0x583 JUMP JUMPDEST STOP JUMPDEST PUSH2 0x18E PUSH2 0x6BB JUMP JUMPDEST STOP JUMPDEST CALLVALUE DUP1 ISZERO PUSH2 0x19B JUMPI PUSH0 DUP1 REVERT JUMPDEST POP PUSH2 0x1A4 PUSH2 0x74C JUMP JUMPDEST PUSH1 0x40 MLOAD PUSH2 0x1B1 SWAP2 SWAP1 PUSH2 0x82B JUMP JUMPDEST PUSH1 0x40 MLOAD DUP1 SWAP2 SUB SWAP1 RETURN JUMPDEST CALLVALUE DUP1 ISZERO PUSH2 0x1C5 JUMPI PUSH0 DUP1 REVERT JUMPDEST POP PUSH2 0x1CE PUSH2 0x771 JUMP JUMPDEST PUSH1 0x40 MLOAD PUSH2 0x1DB SWAP2 SWAP1 PUSH2 0x82B JUMP JUMPDEST PUSH1 0x40 MLOAD DUP1 SWAP2 SUB SWAP1 RETURN JUMPDEST PUSH1 0x1 PUSH0 SWAP1 SLOAD SWAP1 PUSH2 0x100 EXP SWAP1 DIV PUSH20 0xFFFFFFFFFFFFFFFFFFFFFFFFFFFFFFFFFFFFFFFF AND PUSH20 0xFFFFFFFFFFFFFFFFFFFFFFFFFFFFFFFFFFFFFFFF AND CALLER PUSH20 0xFFFFFFFFFFFFFFFFFFFFFFFFFFFFFFFFFFFFFFFF AND EQ PUSH2 0x273 JUMPI PUSH1 0x40 MLOAD PUSH32 0x8C379A000000000000000000000000000000000000000000000000000000000 DUP2 MSTORE PUSH1 0x4 ADD PUSH2 0x26A SWAP1 PUSH2 0x928 JUMP JUMPDEST PUSH1 0x40 MLOAD DUP1 SWAP2 SUB SWAP1 REVERT JUMPDEST PUSH1 0x5 PUSH0 SWAP1 SLOAD SWAP1 PUSH2 0x100 EXP SWAP1 DIV PUSH1 0xFF AND ISZERO PUSH2 0x2C2 JUMPI PUSH1 0x40 MLOAD PUSH32 0x8C379A000000000000000000000000000000000000000000000000000000000 DUP2 MSTORE PUSH1 0x4 ADD PUSH2 0x2B9 SWAP1 PUSH2 0x9B6 JUMP JUMPDEST PUSH1 0x40 MLOAD DUP1 SWAP2 SUB SWAP1 REVERT JUMPDEST PUSH2 0x2CA PUSH2 0x796 JUMP JUMPDEST PUSH0 SELFBALANCE GT PUSH2 0x30C JUMPI PUSH1 0x40 MLOAD PUSH32 0x8C379A000000000000000000000000000000000000000000000000000000000 DUP2 MSTORE PUSH1 0x4 ADD PUSH2 0x303 SWAP1 PUSH2 0xA44 JUMP JUMPDEST PUSH1 0x40 MLOAD DUP1 SWAP2 SUB SWAP1 REVERT JUMPDEST PUSH0 SELFBALANCE SWAP1 POP PUSH0 PUSH1 0x64 PUSH1 0x4 SLOAD DUP4 PUSH2 0x321 SWAP2 SWAP1 PUSH2 0xA8F JUMP JUMPDEST PUSH2 0x32B SWAP2 SWAP1 PUSH2 0xAFD JUMP JUMPDEST SWAP1 POP PUSH0 DUP2 DUP4 PUSH2 0x33A SWAP2 SWAP1 PUSH2 0xB2D JUMP JUMPDEST SWAP1 POP PUSH1 0x1 PUSH1 0x5 PUSH0 PUSH2 0x100 EXP DUP2 SLOAD DUP2 PUSH1 0xFF MUL NOT AND SWAP1 DUP4 ISZERO ISZERO MUL OR SWAP1 SSTORE POP PUSH1 0x2 PUSH0 SWAP1 SLOAD SWAP1 PUSH2 0x100 EXP SWAP1 DIV PUSH20 0xFFFFFFFFFFFFFFFFFFFFFFFFFFFFFFFFFFFFFFFF AND PUSH20 0xFFFFFFFFFFFFFFFFFFFFFFFFFFFFFFFFFFFFFFFF AND PUSH2 0x8FC DUP4 SWAP1 DUP2 ISZERO MUL SWAP1 PUSH1 0x40 MLOAD PUSH0 PUSH1 0x40 MLOAD DUP1 DUP4 SUB DUP2 DUP6 DUP9 DUP9 CALL SWAP4 POP POP POP POP ISZERO DUP1 ISZERO PUSH2 0x3BA JUMPI RETURNDATASIZE PUSH0 DUP1 RETURNDATACOPY RETURNDATASIZE PUSH0 REVERT JUMPDEST POP PUSH1 0x3 PUSH0 SWAP1 SLOAD SWAP1 PUSH2 0x100 EXP SWAP1 DIV PUSH20 0xFFFFFFFFFFFFFFFFFFFFFFFFFFFFFFFFFFFFFFFF AND PUSH20 0xFFFFFFFFFFFFFFFFFFFFFFFFFFFFFFFFFFFFFFFF AND PUSH2 0x8FC DUP3 SWAP1 DUP2 ISZERO MUL SWAP1 PUSH1 0x40 MLOAD PUSH0 PUSH1 0x40 MLOAD DUP1 DUP4 SUB DUP2 DUP6 DUP9 DUP9 CALL SWAP4 POP POP POP POP ISZERO DUP1 ISZERO PUSH2 0x41F JUMPI RETURNDATASIZE PUSH0 DUP1 RETURNDATACOPY RETURNDATASIZE PUSH0 REVERT JUMPDEST POP PUSH0 SELFBALANCE SWAP1 POP PUSH0 DUP2 GT ISZERO PUSH2 0x4EC JUMPI PUSH1 0x1 PUSH0 SWAP1 SLOAD SWAP1 PUSH2 0x100 EXP SWAP1 DIV PUSH20 0xFFFFFFFFFFFFFFFFFFFFFFFFFFFFFFFFFFFFFFFF AND PUSH20 0xFFFFFFFFFFFFFFFFFFFFFFFFFFFFFFFFFFFFFFFF AND PUSH2 0x8FC DUP3 SWAP1 DUP2 ISZERO MUL SWAP1 PUSH1 0x40 MLOAD PUSH0 PUSH1 0x40 MLOAD DUP1 DUP4 SUB DUP2 DUP6 DUP9 DUP9 CALL SWAP4 POP POP POP POP ISZERO DUP1 ISZERO PUSH2 0x490 JUMPI RETURNDATASIZE PUSH0 DUP1 RETURNDATACOPY RETURNDATASIZE PUSH0 REVERT JUMPDEST POP PUSH32 0x262600A14409BF795E747AB7EB71CB691CCBDBDEBA406804EA8627E9A0CE3164 PUSH1 0x1 PUSH0 SWAP1 SLOAD SWAP1 PUSH2 0x100 EXP SWAP1 DIV PUSH20 0xFFFFFFFFFFFFFFFFFFFFFFFFFFFFFFFFFFFFFFFF AND DUP3 PUSH1 0x40 MLOAD PUSH2 0x4E3 SWAP3 SWAP2 SWAP1 PUSH2 0xBBB JUMP JUMPDEST PUSH1 0x40 MLOAD DUP1 SWAP2 SUB SWAP1 LOG1 JUMPDEST PUSH32 0x40D8C854B6D5329FD5FCCAE04F5A931D7529963FBAB81ACED7337394E737CB4D DUP4 DUP4 PUSH1 0x40 MLOAD PUSH2 0x51D SWAP3 SWAP2 SWAP1 PUSH2 0xBE2 JUMP JUMPDEST PUSH1 0x40 MLOAD DUP1 SWAP2 SUB SWAP1 LOG1 POP POP POP POP PUSH2 0x531 PUSH2 0x7E3 JUMP JUMPDEST JUMP JUMPDEST PUSH1 0x3 PUSH0 SWAP1 SLOAD SWAP1 PUSH2 0x100 EXP SWAP1 DIV PUSH20 0xFFFFFFFFFFFFFFFFFFFFFFFFFFFFFFFFFFFFFFFF AND DUP2 JUMP JUMPDEST PUSH1 0x4 SLOAD DUP2 JUMP JUMPDEST PUSH1 0x5 PUSH0 SWAP1 SLOAD SWAP1 PUSH2 0x100 EXP SWAP1 DIV PUSH1 0xFF AND DUP2 JUMP JUMPDEST PUSH0 SELFBALANCE SWAP1 POP SWAP1 JUMP JUMPDEST PUSH8 0x98A7D9B8314C0000 DUP2 JUMP JUMPDEST PUSH1 0x1 PUSH0 SWAP1 SLOAD SWAP1 PUSH2 0x100 EXP SWAP1 DIV PUSH20 0xFFFFFFFFFFFFFFFFFFFFFFFFFFFFFFFFFFFFFFFF AND PUSH20 0xFFFFFFFFFFFFFFFFFFFFFFFFFFFFFFFFFFFFFFFF AND CALLER PUSH20 0xFFFFFFFFFFFFFFFFFFFFFFFFFFFFFFFFFFFFFFFF AND EQ PUSH2 0x612 JUMPI PUSH1 0x40 MLOAD PUSH32 0x8C379A000000000000000000000000000000000000000000000000000000000 DUP2 MSTORE PUSH1 0x4 ADD PUSH2 0x609 SWAP1 PUSH2 0x928 JUMP JUMPDEST PUSH1 0x40 MLOAD DUP1 SWAP2 SUB SWAP1 REVERT JUMPDEST PUSH0 SELFBALANCE GT PUSH2 0x654 JUMPI PUSH1 0x40 MLOAD PUSH32 0x8C379A000000000000000000000000000000000000000000000000000000000 DUP2 MSTORE PUSH1 0x4 ADD PUSH2 0x64B SWAP1 PUSH2 0xC53 JUMP JUMPDEST PUSH1 0x40 MLOAD DUP1 SWAP2 SUB SWAP1 REVERT JUMPDEST PUSH1 0x1 PUSH0 SWAP1 SLOAD SWAP1 PUSH2 0x100 EXP SWAP1 DIV PUSH20 0xFFFFFFFFFFFFFFFFFFFFFFFFFFFFFFFFFFFFFFFF AND PUSH20 0xFFFFFFFFFFFFFFFFFFFFFFFFFFFFFFFFFFFFFFFF AND PUSH2 0x8FC SELFBALANCE SWAP1 DUP2 ISZERO MUL SWAP1 PUSH1 0x40 MLOAD PUSH0 PUSH1 0x40 MLOAD DUP1 DUP4 SUB DUP2 DUP6 DUP9 DUP9 CALL SWAP4 POP POP POP POP ISZERO DUP1 ISZERO PUSH2 0x6B8 JUMPI RETURNDATASIZE PUSH0 DUP1 RETURNDATACOPY RETURNDATASIZE PUSH0 REVERT JUMPDEST POP JUMP JUMPDEST PUSH0 CALLVALUE GT DUP1 ISZERO PUSH2 0x6D2 JUMPI POP PUSH8 0x98A7D9B8314C0000 CALLVALUE GT ISZERO JUMPDEST PUSH2 0x711 JUMPI PUSH1 0x40 MLOAD PUSH32 0x8C379A000000000000000000000000000000000000000000000000000000000 DUP2 MSTORE PUSH1 0x4 ADD PUSH2 0x708 SWAP1 PUSH2 0xCE1 JUMP JUMPDEST PUSH1 0x40 MLOAD DUP1 SWAP2 SUB SWAP1 REVERT JUMPDEST PUSH32 0x939F6F4877FAF071412E527BC4C6D0BD65AD077E52B57334F7765265647A7F1 CALLER CALLVALUE PUSH1 0x40 MLOAD PUSH2 0x742 SWAP3 SWAP2 SWAP1 PUSH2 0xD1F JUMP JUMPDEST PUSH1 0x40 MLOAD DUP1 SWAP2 SUB SWAP1 LOG1 JUMP JUMPDEST PUSH1 0x2 PUSH0 SWAP1 SLOAD SWAP1 PUSH2 0x100 EXP SWAP1 DIV PUSH20 0xFFFFFFFFFFFFFFFFFFFFFFFFFFFFFFFFFFFFFFFF AND DUP2 JUMP JUMPDEST PUSH1 0x1 PUSH0 SWAP1 SLOAD SWAP1 PUSH2 0x100 EXP SWAP1 DIV PUSH20 0xFFFFFFFFFFFFFFFFFFFFFFFFFFFFFFFFFFFFFFFF AND DUP2 JUMP JUMPDEST PUSH1 0x2 PUSH0 SLOAD SUB PUSH2 0x7DA JUMPI PUSH1 0x40 MLOAD PUSH32 0x8C379A000000000000000000000000000000000000000000000000000000000 DUP2 MSTORE PUSH1 0x4 ADD PUSH2 0x7D1 SWAP1 PUSH2 0xD90 JUMP JUMPDEST PUSH1 0x40 MLOAD DUP1 SWAP2 SUB SWAP1 REVERT JUMPDEST PUSH1 0x2 PUSH0 DUP2 SWAP1 SSTORE POP JUMP JUMPDEST PUSH1 0x1 PUSH0 DUP2 SWAP1 SSTORE POP JUMP JUMPDEST PUSH0 PUSH20 0xFFFFFFFFFFFFFFFFFFFFFFFFFFFFFFFFFFFFFFFF DUP3 AND SWAP1 POP SWAP2 SWAP1 POP JUMP JUMPDEST PUSH0 PUSH2 0x815 DUP3 PUSH2 0x7EC JUMP JUMPDEST SWAP1 POP SWAP2 SWAP1 POP JUMP JUMPDEST PUSH2 0x825 DUP2 PUSH2 0x80B JUMP JUMPDEST DUP3 MSTORE POP POP JUMP JUMPDEST PUSH0 PUSH1 0x20 DUP3 ADD SWAP1 POP PUSH2 0x83E PUSH0 DUP4 ADD DUP5 PUSH2 0x81C JUMP JUMPDEST SWAP3 SWAP2 POP POP JUMP JUMPDEST PUSH0 DUP2 SWAP1 POP SWAP2 SWAP1 POP JUMP JUMPDEST PUSH2 0x856 DUP2 PUSH2 0x844 JUMP JUMPDEST DUP3 MSTORE POP POP JUMP JUMPDEST PUSH0 PUSH1 0x20 DUP3 ADD SWAP1 POP PUSH2 0x86F PUSH0 DUP4 ADD DUP5 PUSH2 0x84D JUMP JUMPDEST SWAP3 SWAP2 POP POP JUMP JUMPDEST PUSH0 DUP2 ISZERO ISZERO SWAP1 POP SWAP2 SWAP1 POP JUMP JUMPDEST PUSH2 0x889 DUP2 PUSH2 0x875 JUMP JUMPDEST DUP3 MSTORE POP POP JUMP JUMPDEST PUSH0 PUSH1 0x20 DUP3 ADD SWAP1 POP PUSH2 0x8A2 PUSH0 DUP4 ADD DUP5 PUSH2 0x880 JUMP JUMPDEST SWAP3 SWAP2 POP POP JUMP JUMPDEST PUSH0 DUP3 DUP3 MSTORE PUSH1 0x20 DUP3 ADD SWAP1 POP SWAP3 SWAP2 POP POP JUMP JUMPDEST PUSH32 0x4F6E6C792074686520636F6E7472616374206F776E65722063616E2070657266 PUSH0 DUP3 ADD MSTORE PUSH32 0x6F726D207468697320616374696F6E2E00000000000000000000000000000000 PUSH1 0x20 DUP3 ADD MSTORE POP JUMP JUMPDEST PUSH0 PUSH2 0x912 PUSH1 0x30 DUP4 PUSH2 0x8A8 JUMP JUMPDEST SWAP2 POP PUSH2 0x91D DUP3 PUSH2 0x8B8 JUMP JUMPDEST PUSH1 0x40 DUP3 ADD SWAP1 POP SWAP2 SWAP1 POP JUMP JUMPDEST PUSH0 PUSH1 0x20 DUP3 ADD SWAP1 POP DUP2 DUP2 SUB PUSH0 DUP4 ADD MSTORE PUSH2 0x93F DUP2 PUSH2 0x906 JUMP JUMPDEST SWAP1 POP SWAP2 SWAP1 POP JUMP JUMPDEST PUSH32 0x46756E6473206861766520616C7265616479206265656E206469737472696275 PUSH0 DUP3 ADD MSTORE PUSH32 0x7465642E00000000000000000000000000000000000000000000000000000000 PUSH1 0x20 DUP3 ADD MSTORE POP JUMP JUMPDEST PUSH0 PUSH2 0x9A0 PUSH1 0x24 DUP4 PUSH2 0x8A8 JUMP JUMPDEST SWAP2 POP PUSH2 0x9AB DUP3 PUSH2 0x946 JUMP JUMPDEST PUSH1 0x40 DUP3 ADD SWAP1 POP SWAP2 SWAP1 POP JUMP JUMPDEST PUSH0 PUSH1 0x20 DUP3 ADD SWAP1 POP DUP2 DUP2 SUB PUSH0 DUP4 ADD MSTORE PUSH2 0x9CD DUP2 PUSH2 0x994 JUMP JUMPDEST SWAP1 POP SWAP2 SWAP1 POP JUMP JUMPDEST PUSH32 0x4E6F2066756E647320617661696C61626C6520746F2064697374726962757465 PUSH0 DUP3 ADD MSTORE PUSH32 0x2E00000000000000000000000000000000000000000000000000000000000000 PUSH1 0x20 DUP3 ADD MSTORE POP JUMP JUMPDEST PUSH0 PUSH2 0xA2E PUSH1 0x21 DUP4 PUSH2 0x8A8 JUMP JUMPDEST SWAP2 POP PUSH2 0xA39 DUP3 PUSH2 0x9D4 JUMP JUMPDEST PUSH1 0x40 DUP3 ADD SWAP1 POP SWAP2 SWAP1 POP JUMP JUMPDEST PUSH0 PUSH1 0x20 DUP3 ADD SWAP1 POP DUP2 DUP2 SUB PUSH0 DUP4 ADD MSTORE PUSH2 0xA5B DUP2 PUSH2 0xA22 JUMP JUMPDEST SWAP1 POP SWAP2 SWAP1 POP JUMP JUMPDEST PUSH32 0x4E487B7100000000000000000000000000000000000000000000000000000000 PUSH0 MSTORE PUSH1 0x11 PUSH1 0x4 MSTORE PUSH1 0x24 PUSH0 REVERT JUMPDEST PUSH0 PUSH2 0xA99 DUP3 PUSH2 0x844 JUMP JUMPDEST SWAP2 POP PUSH2 0xAA4 DUP4 PUSH2 0x844 JUMP JUMPDEST SWAP3 POP DUP3 DUP3 MUL PUSH2 0xAB2 DUP2 PUSH2 0x844 JUMP JUMPDEST SWAP2 POP DUP3 DUP3 DIV DUP5 EQ DUP4 ISZERO OR PUSH2 0xAC9 JUMPI PUSH2 0xAC8 PUSH2 0xA62 JUMP JUMPDEST JUMPDEST POP SWAP3 SWAP2 POP POP JUMP JUMPDEST PUSH32 0x4E487B7100000000000000000000000000000000000000000000000000000000 PUSH0 MSTORE PUSH1 0x12 PUSH1 0x4 MSTORE PUSH1 0x24 PUSH0 REVERT JUMPDEST PUSH0 PUSH2 0xB07 DUP3 PUSH2 0x844 JUMP JUMPDEST SWAP2 POP PUSH2 0xB12 DUP4 PUSH2 0x844 JUMP JUMPDEST SWAP3 POP DUP3 PUSH2 0xB22 JUMPI PUSH2 0xB21 PUSH2 0xAD0 JUMP JUMPDEST JUMPDEST DUP3 DUP3 DIV SWAP1 POP SWAP3 SWAP2 POP POP JUMP JUMPDEST PUSH0 PUSH2 0xB37 DUP3 PUSH2 0x844 JUMP JUMPDEST SWAP2 POP PUSH2 0xB42 DUP4 PUSH2 0x844 JUMP JUMPDEST SWAP3 POP DUP3 DUP3 SUB SWAP1 POP DUP2 DUP2 GT ISZERO PUSH2 0xB5A JUMPI PUSH2 0xB59 PUSH2 0xA62 JUMP JUMPDEST JUMPDEST SWAP3 SWAP2 POP POP JUMP JUMPDEST PUSH0 DUP2 SWAP1 POP SWAP2 SWAP1 POP JUMP JUMPDEST PUSH0 PUSH2 0xB83 PUSH2 0xB7E PUSH2 0xB79 DUP5 PUSH2 0x7EC JUMP JUMPDEST PUSH2 0xB60 JUMP JUMPDEST PUSH2 0x7EC JUMP JUMPDEST SWAP1 POP SWAP2 SWAP1 POP JUMP JUMPDEST PUSH0 PUSH2 0xB94 DUP3 PUSH2 0xB69 JUMP JUMPDEST SWAP1 POP SWAP2 SWAP1 POP JUMP JUMPDEST PUSH0 PUSH2 0xBA5 DUP3 PUSH2 0xB8A JUMP JUMPDEST SWAP1 POP SWAP2 SWAP1 POP JUMP JUMPDEST PUSH2 0xBB5 DUP2 PUSH2 0xB9B JUMP JUMPDEST DUP3 MSTORE POP POP JUMP JUMPDEST PUSH0 PUSH1 0x40 DUP3 ADD SWAP1 POP PUSH2 0xBCE PUSH0 DUP4 ADD DUP6 PUSH2 0xBAC JUMP JUMPDEST PUSH2 0xBDB PUSH1 0x20 DUP4 ADD DUP5 PUSH2 0x84D JUMP JUMPDEST SWAP4 SWAP3 POP POP POP JUMP JUMPDEST PUSH0 PUSH1 0x40 DUP3 ADD SWAP1 POP PUSH2 0xBF5 PUSH0 DUP4 ADD DUP6 PUSH2 0x84D JUMP JUMPDEST PUSH2 0xC02 PUSH1 0x20 DUP4 ADD DUP5 PUSH2 0x84D JUMP JUMPDEST SWAP4 SWAP3 POP POP POP JUMP JUMPDEST PUSH32 0x4E6F2066756E647320746F207265636F7665722E000000000000000000000000 PUSH0 DUP3 ADD MSTORE POP JUMP JUMPDEST PUSH0 PUSH2 0xC3D PUSH1 0x14 DUP4 PUSH2 0x8A8 JUMP JUMPDEST SWAP2 POP PUSH2 0xC48 DUP3 PUSH2 0xC09 JUMP JUMPDEST PUSH1 0x20 DUP3 ADD SWAP1 POP SWAP2 SWAP1 POP JUMP JUMPDEST PUSH0 PUSH1 0x20 DUP3 ADD SWAP1 POP DUP2 DUP2 SUB PUSH0 DUP4 ADD MSTORE PUSH2 0xC6A DUP2 PUSH2 0xC31 JUMP JUMPDEST SWAP1 POP SWAP2 SWAP1 POP JUMP JUMPDEST PUSH32 0x496E76616C696420616D6F756E742E20596F752063616E2073656E6420757020 PUSH0 DUP3 ADD MSTORE PUSH32 0x746F2031312045746865722E0000000000000000000000000000000000000000 PUSH1 0x20 DUP3 ADD MSTORE POP JUMP JUMPDEST PUSH0 PUSH2 0xCCB PUSH1 0x2C DUP4 PUSH2 0x8A8 JUMP JUMPDEST SWAP2 POP PUSH2 0xCD6 DUP3 PUSH2 0xC71 JUMP JUMPDEST PUSH1 0x40 DUP3 ADD SWAP1 POP SWAP2 SWAP1 POP JUMP JUMPDEST PUSH0 PUSH1 0x20 DUP3 ADD SWAP1 POP DUP2 DUP2 SUB PUSH0 DUP4 ADD MSTORE PUSH2 0xCF8 DUP2 PUSH2 0xCBF JUMP JUMPDEST SWAP1 POP SWAP2 SWAP1 POP JUMP JUMPDEST PUSH0 PUSH2 0xD09 DUP3 PUSH2 0x7EC JUMP JUMPDEST SWAP1 POP SWAP2 SWAP1 POP JUMP JUMPDEST PUSH2 0xD19 DUP2 PUSH2 0xCFF JUMP JUMPDEST DUP3 MSTORE POP POP JUMP JUMPDEST PUSH0 PUSH1 0x40 DUP3 ADD SWAP1 POP PUSH2 0xD32 PUSH0 DUP4 ADD DUP6 PUSH2 0xD10 JUMP JUMPDEST PUSH2 0xD3F PUSH1 0x20 DUP4 ADD DUP5 PUSH2 0x84D JUMP JUMPDEST SWAP4 SWAP3 POP POP POP JUMP JUMPDEST PUSH32 0x5265656E7472616E637947756172643A207265656E7472616E742063616C6C00 PUSH0 DUP3 ADD MSTORE POP JUMP JUMPDEST PUSH0 PUSH2 0xD7A PUSH1 0x1F DUP4 PUSH2 0x8A8 JUMP JUMPDEST SWAP2 POP PUSH2 0xD85 DUP3 PUSH2 0xD46 JUMP JUMPDEST PUSH1 0x20 DUP3 ADD SWAP1 POP SWAP2 SWAP1 POP JUMP JUMPDEST PUSH0 PUSH1 0x20 DUP3 ADD SWAP1 POP DUP2 DUP2 SUB PUSH0 DUP4 ADD MSTORE PUSH2 0xDA7 DUP2 PUSH2 0xD6E JUMP JUMPDEST SWAP1 POP SWAP2 SWAP1 POP JUMP INVALID LOG2 PUSH5 0x6970667358 0x22 SLT KECCAK256 STOP MSTORE NUMBER PUSH14 0x40CB3A4FFF565399B8512F72A43F 0xB8 0x28 DUP14 SWAP14 0xAE 0xE1 EXTCODEHASH 0x21 PUSH24 0xBE93B4FDBD64736F6C634300081500330000000000000000 "
	},
	"Assembly": ".code\n  PUSH 80\t\t\tcontract RevenueSharingContrac...\n  PUSH 40\t\t\tcontract RevenueSharingContrac...\n  MSTORE \t\t\tcontract RevenueSharingContrac...\n  PUSH 40\t\t\tconstructor(address payable _r...\n  MLOAD \t\t\tconstructor(address payable _r...\n  PUSHSIZE \t\t\tconstructor(address payable _r...\n  CODESIZE \t\t\tconstructor(address payable _r...\n  SUB \t\t\tconstructor(address payable _r...\n  DUP1 \t\t\tconstructor(address payable _r...\n  PUSHSIZE \t\t\tconstructor(address payable _r...\n  DUP4 \t\t\tconstructor(address payable _r...\n  CODECOPY \t\t\tconstructor(address payable _r...\n  DUP2 \t\t\tconstructor(address payable _r...\n  DUP2 \t\t\tconstructor(address payable _r...\n  ADD \t\t\tconstructor(address payable _r...\n  PUSH 40\t\t\tconstructor(address payable _r...\n  MSTORE \t\t\tconstructor(address payable _r...\n  DUP2 \t\t\tconstructor(address payable _r...\n  ADD \t\t\tconstructor(address payable _r...\n  SWAP1 \t\t\tconstructor(address payable _r...\n  PUSH [tag] 1\t\t\tconstructor(address payable _r...\n  SWAP2 \t\t\tconstructor(address payable _r...\n  SWAP1 \t\t\tconstructor(address payable _r...\n  PUSH [tag] 2\t\t\tconstructor(address payable _r...\n  JUMP \t\t\tconstructor(address payable _r...\ntag 1\t\t\tconstructor(address payable _r...\n  JUMPDEST \t\t\tconstructor(address payable _r...\n  PUSH 1\t\t\t_\n  PUSH 0\t\t\tlue); /\n  DUP2 \t\t\tlue); // Emitting even\n  SWAP1 \t\t\tlue); // Emitting even\n  SSTORE \t\t\tlue); // Emitting even\n  POP \t\t\tlue); // Emitting even\n  PUSH 0\t\t\t0\n  PUSH FFFFFFFFFFFFFFFFFFFFFFFFFFFFFFFFFFFFFFFF\t\t\t_rs2 != address(0)\n  AND \t\t\t_rs2 != address(0)\n  DUP4 \t\t\t_rs2\n  PUSH FFFFFFFFFFFFFFFFFFFFFFFFFFFFFFFFFFFFFFFF\t\t\t_rs2 != address(0)\n  AND \t\t\t_rs2 != address(0)\n  EQ \t\t\t_rs2 != address(0)\n  ISZERO \t\t\t_rs2 != address(0)\n  DUP1 \t\t\t_rs2 != address(0) && _rs3 != ...\n  ISZERO \t\t\t_rs2 != address(0) && _rs3 != ...\n  PUSH [tag] 7\t\t\t_rs2 != address(0) && _rs3 != ...\n  JUMPI \t\t\t_rs2 != address(0) && _rs3 != ...\n  POP \t\t\t_rs2 != address(0) && _rs3 != ...\n  PUSH 0\t\t\t0\n  PUSH FFFFFFFFFFFFFFFFFFFFFFFFFFFFFFFFFFFFFFFF\t\t\t_rs3 != address(0)\n  AND \t\t\t_rs3 != address(0)\n  DUP3 \t\t\t_rs3\n  PUSH FFFFFFFFFFFFFFFFFFFFFFFFFFFFFFFFFFFFFFFF\t\t\t_rs3 != address(0)\n  AND \t\t\t_rs3 != address(0)\n  EQ \t\t\t_rs3 != address(0)\n  ISZERO \t\t\t_rs3 != address(0)\ntag 7\t\t\t_rs2 != address(0) && _rs3 != ...\n  JUMPDEST \t\t\t_rs2 != address(0) && _rs3 != ...\n  PUSH [tag] 8\t\t\trequire(_rs2 != address(0) && ...\n  JUMPI \t\t\trequire(_rs2 != address(0) && ...\n  PUSH 40\t\t\trequire(_rs2 != address(0) && ...\n  MLOAD \t\t\trequire(_rs2 != address(0) && ...\n  PUSH 8C379A000000000000000000000000000000000000000000000000000000000\t\t\trequire(_rs2 != address(0) && ...\n  DUP2 \t\t\trequire(_rs2 != address(0) && ...\n  MSTORE \t\t\trequire(_rs2 != address(0) && ...\n  PUSH 4\t\t\trequire(_rs2 != address(0) && ...\n  ADD \t\t\trequire(_rs2 != address(0) && ...\n  PUSH [tag] 9\t\t\trequire(_rs2 != address(0) && ...\n  SWAP1 \t\t\trequire(_rs2 != address(0) && ...\n  PUSH [tag] 10\t\t\trequire(_rs2 != address(0) && ...\n  JUMP \t\t\trequire(_rs2 != address(0) && ...\ntag 9\t\t\trequire(_rs2 != address(0) && ...\n  JUMPDEST \t\t\trequire(_rs2 != address(0) && ...\n  PUSH 40\t\t\trequire(_rs2 != address(0) && ...\n  MLOAD \t\t\trequire(_rs2 != address(0) && ...\n  DUP1 \t\t\trequire(_rs2 != address(0) && ...\n  SWAP2 \t\t\trequire(_rs2 != address(0) && ...\n  SUB \t\t\trequire(_rs2 != address(0) && ...\n  SWAP1 \t\t\trequire(_rs2 != address(0) && ...\n  REVERT \t\t\trequire(_rs2 != address(0) && ...\ntag 8\t\t\trequire(_rs2 != address(0) && ...\n  JUMPDEST \t\t\trequire(_rs2 != address(0) && ...\n  PUSH 0\t\t\t0\n  DUP2 \t\t\t_ps\n  GT \t\t\t_ps > 0\n  DUP1 \t\t\t_ps > 0 && _ps <= 100\n  ISZERO \t\t\t_ps > 0 && _ps <= 100\n  PUSH [tag] 11\t\t\t_ps > 0 && _ps <= 100\n  JUMPI \t\t\t_ps > 0 && _ps <= 100\n  POP \t\t\t_ps > 0 && _ps <= 100\n  PUSH 64\t\t\t100\n  DUP2 \t\t\t_ps\n  GT \t\t\t_ps <= 100\n  ISZERO \t\t\t_ps <= 100\ntag 11\t\t\t_ps > 0 && _ps <= 100\n  JUMPDEST \t\t\t_ps > 0 && _ps <= 100\n  PUSH [tag] 12\t\t\trequire(_ps > 0 && _ps <= 100,...\n  JUMPI \t\t\trequire(_ps > 0 && _ps <= 100,...\n  PUSH 40\t\t\trequire(_ps > 0 && _ps <= 100,...\n  MLOAD \t\t\trequire(_ps > 0 && _ps <= 100,...\n  PUSH 8C379A000000000000000000000000000000000000000000000000000000000\t\t\trequire(_ps > 0 && _ps <= 100,...\n  DUP2 \t\t\trequire(_ps > 0 && _ps <= 100,...\n  MSTORE \t\t\trequire(_ps > 0 && _ps <= 100,...\n  PUSH 4\t\t\trequire(_ps > 0 && _ps <= 100,...\n  ADD \t\t\trequire(_ps > 0 && _ps <= 100,...\n  PUSH [tag] 13\t\t\trequire(_ps > 0 && _ps <= 100,...\n  SWAP1 \t\t\trequire(_ps > 0 && _ps <= 100,...\n  PUSH [tag] 14\t\t\trequire(_ps > 0 && _ps <= 100,...\n  JUMP \t\t\trequire(_ps > 0 && _ps <= 100,...\ntag 13\t\t\trequire(_ps > 0 && _ps <= 100,...\n  JUMPDEST \t\t\trequire(_ps > 0 && _ps <= 100,...\n  PUSH 40\t\t\trequire(_ps > 0 && _ps <= 100,...\n  MLOAD \t\t\trequire(_ps > 0 && _ps <= 100,...\n  DUP1 \t\t\trequire(_ps > 0 && _ps <= 100,...\n  SWAP2 \t\t\trequire(_ps > 0 && _ps <= 100,...\n  SUB \t\t\trequire(_ps > 0 && _ps <= 100,...\n  SWAP1 \t\t\trequire(_ps > 0 && _ps <= 100,...\n  REVERT \t\t\trequire(_ps > 0 && _ps <= 100,...\ntag 12\t\t\trequire(_ps > 0 && _ps <= 100,...\n  JUMPDEST \t\t\trequire(_ps > 0 && _ps <= 100,...\n  CALLER \t\t\tmsg.sender\n  PUSH 1\t\t\trs1\n  PUSH 0\t\t\trs1\n  PUSH 100\t\t\trs1 = payable(msg.sender)\n  EXP \t\t\trs1 = payable(msg.sender)\n  DUP2 \t\t\trs1 = payable(msg.sender)\n  SLOAD \t\t\trs1 = payable(msg.sender)\n  DUP2 \t\t\trs1 = payable(msg.sender)\n  PUSH FFFFFFFFFFFFFFFFFFFFFFFFFFFFFFFFFFFFFFFF\t\t\trs1 = payable(msg.sender)\n  MUL \t\t\trs1 = payable(msg.sender)\n  NOT \t\t\trs1 = payable(msg.sender)\n  AND \t\t\trs1 = payable(msg.sender)\n  SWAP1 \t\t\trs1 = payable(msg.sender)\n  DUP4 \t\t\trs1 = payable(msg.sender)\n  PUSH FFFFFFFFFFFFFFFFFFFFFFFFFFFFFFFFFFFFFFFF\t\t\trs1 = payable(msg.sender)\n  AND \t\t\trs1 = payable(msg.sender)\n  MUL \t\t\trs1 = payable(msg.sender)\n  OR \t\t\trs1 = payable(msg.sender)\n  SWAP1 \t\t\trs1 = payable(msg.sender)\n  SSTORE \t\t\trs1 = payable(msg.sender)\n  POP \t\t\trs1 = payable(msg.sender)\n  DUP3 \t\t\t_rs2\n  PUSH 2\t\t\trs2\n  PUSH 0\t\t\trs2\n  PUSH 100\t\t\trs2 = _rs2\n  EXP \t\t\trs2 = _rs2\n  DUP2 \t\t\trs2 = _rs2\n  SLOAD \t\t\trs2 = _rs2\n  DUP2 \t\t\trs2 = _rs2\n  PUSH FFFFFFFFFFFFFFFFFFFFFFFFFFFFFFFFFFFFFFFF\t\t\trs2 = _rs2\n  MUL \t\t\trs2 = _rs2\n  NOT \t\t\trs2 = _rs2\n  AND \t\t\trs2 = _rs2\n  SWAP1 \t\t\trs2 = _rs2\n  DUP4 \t\t\trs2 = _rs2\n  PUSH FFFFFFFFFFFFFFFFFFFFFFFFFFFFFFFFFFFFFFFF\t\t\trs2 = _rs2\n  AND \t\t\trs2 = _rs2\n  MUL \t\t\trs2 = _rs2\n  OR \t\t\trs2 = _rs2\n  SWAP1 \t\t\trs2 = _rs2\n  SSTORE \t\t\trs2 = _rs2\n  POP \t\t\trs2 = _rs2\n  DUP2 \t\t\t_rs3\n  PUSH 3\t\t\trs3\n  PUSH 0\t\t\trs3\n  PUSH 100\t\t\trs3 = _rs3\n  EXP \t\t\trs3 = _rs3\n  DUP2 \t\t\trs3 = _rs3\n  SLOAD \t\t\trs3 = _rs3\n  DUP2 \t\t\trs3 = _rs3\n  PUSH FFFFFFFFFFFFFFFFFFFFFFFFFFFFFFFFFFFFFFFF\t\t\trs3 = _rs3\n  MUL \t\t\trs3 = _rs3\n  NOT \t\t\trs3 = _rs3\n  AND \t\t\trs3 = _rs3\n  SWAP1 \t\t\trs3 = _rs3\n  DUP4 \t\t\trs3 = _rs3\n  PUSH FFFFFFFFFFFFFFFFFFFFFFFFFFFFFFFFFFFFFFFF\t\t\trs3 = _rs3\n  AND \t\t\trs3 = _rs3\n  MUL \t\t\trs3 = _rs3\n  OR \t\t\trs3 = _rs3\n  SWAP1 \t\t\trs3 = _rs3\n  SSTORE \t\t\trs3 = _rs3\n  POP \t\t\trs3 = _rs3\n  DUP1 \t\t\t_ps\n  PUSH 4\t\t\tps\n  DUP2 \t\t\tps = _ps\n  SWAP1 \t\t\tps = _ps\n  SSTORE \t\t\tps = _ps\n  POP \t\t\tps = _ps\n  POP \t\t\tconstructor(address payable _r...\n  POP \t\t\tconstructor(address payable _r...\n  POP \t\t\tconstructor(address payable _r...\n  PUSH [tag] 15\t\t\tcontract RevenueSharingContrac...\n  JUMP \t\t\tcontract RevenueSharingContrac...\ntag 17\t\t\tacts/security/ReentrancyGuard....\n  JUMPDEST \t\t\tacts/security/ReentrancyGuard....\n  PUSH 0\t\t\th\n  DUP1 \t\t\tu\n  REVERT \t\t\tt RevenueSha\ntag 19\t\t\tble public rs3;\\r\\n    uint256...\n  JUMPDEST \t\t\tble public rs3;\\r\\n    uint256...\n  PUSH 0\t\t\ts;\\r\\n   \n  PUSH FFFFFFFFFFFFFFFFFFFFFFFFFFFFFFFFFFFFFFFF\t\t\t   uint256 public constant MAX...\n  DUP3 \t\t\tted;\\r\n  AND \t\t\tributed;\\r\\n    uint256 public...\n  SWAP1 \t\t\tc fundsDistributed;\\r\\n    uin...\n  POP \t\t\tc fundsDistributed;\\r\\n    uin...\n  SWAP2 \t\t\tble public rs3;\\r\\n    uint256...\n  SWAP1 \t\t\tble public rs3;\\r\\n    uint256...\n  POP \t\t\tble public rs3;\\r\\n    uint256...\n  JUMP \t\t\tble public rs3;\\r\\n    uint256...\ntag 20\t\t\tr;\\r\\n\\r\\n    // Events\\r\\n   ...\n  JUMPDEST \t\t\tr;\\r\\n\\r\\n    // Events\\r\\n   ...\n  PUSH 0\t\t\ted(uint\n  PUSH [tag] 37\t\t\trs3Share);\\r\\n    event Co\n  DUP3 \t\t\tent C\n  PUSH [tag] 19\t\t\trs3Share);\\r\\n    event Co\n  JUMP \t\t\trs3Share);\\r\\n    event Co\ntag 37\t\t\trs3Share);\\r\\n    event Co\n  JUMPDEST \t\t\trs3Share);\\r\\n    event Co\n  SWAP1 \t\t\te, uint256 rs3Share);\\r\\n    e...\n  POP \t\t\te, uint256 rs3Share);\\r\\n    e...\n  SWAP2 \t\t\tr;\\r\\n\\r\\n    // Events\\r\\n   ...\n  SWAP1 \t\t\tr;\\r\\n\\r\\n    // Events\\r\\n   ...\n  POP \t\t\tr;\\r\\n\\r\\n    // Events\\r\\n   ...\n  JUMP \t\t\tr;\\r\\n\\r\\n    // Events\\r\\n   ...\ntag 21\t\t\t(address sender, uint256 amoun...\n  JUMPDEST \t\t\t(address sender, uint256 amoun...\n  PUSH [tag] 39\t\t\tipient, uint256 amount);\\r\\n\\r...\n  DUP2 \t\t\t\\r\\n   \n  PUSH [tag] 20\t\t\tipient, uint256 amount);\\r\\n\\r...\n  JUMP \t\t\tipient, uint256 amount);\\r\\n\\r...\ntag 39\t\t\tipient, uint256 amount);\\r\\n\\r...\n  JUMPDEST \t\t\tipient, uint256 amount);\\r\\n\\r...\n  DUP2 \t\t\tess r\n  EQ \t\t\tddress recipient, uint256 amou...\n  PUSH [tag] 40\t\t\tReturned(address recipient, ui...\n  JUMPI \t\t\tReturned(address recipient, ui...\n  PUSH 0\t\t\t\\n\n  DUP1 \t\t\to\n  REVERT \t\t\tnstructor\\r\\n \ntag 40\t\t\tReturned(address recipient, ui...\n  JUMPDEST \t\t\tReturned(address recipient, ui...\n  POP \t\t\t(address sender, uint256 amoun...\n  JUMP \t\t\t(address sender, uint256 amoun...\ntag 22\t\t\t(address payable _rs2, address...\n  JUMPDEST \t\t\t(address payable _rs2, address...\n  PUSH 0\t\t\t {\\r\\n \n  DUP2 \t\t\tress(0\n  MLOAD \t\t\t!= address(0)\n  SWAP1 \t\t\tire(_rs2 != address(0)\n  POP \t\t\tire(_rs2 != address(0)\n  PUSH [tag] 42\t\t\t!= address(0), \"Invalid partic...\n  DUP2 \t\t\t addr\n  PUSH [tag] 21\t\t\t!= address(0), \"Invalid partic...\n  JUMP \t\t\t!= address(0), \"Invalid partic...\ntag 42\t\t\t!= address(0), \"Invalid partic...\n  JUMPDEST \t\t\t!= address(0), \"Invalid partic...\n  SWAP3 \t\t\t(address payable _rs2, address...\n  SWAP2 \t\t\t(address payable _rs2, address...\n  POP \t\t\t(address payable _rs2, address...\n  POP \t\t\t(address payable _rs2, address...\n  JUMP \t\t\t(address payable _rs2, address...\ntag 23\t\t\t      require(_ps > 0 && _ps <...\n  JUMPDEST \t\t\t      require(_ps > 0 && _ps <...\n  PUSH 0\t\t\t\"Percen\n  DUP2 \t\t\tetwee\n  SWAP1 \t\t\tshould be betwee\n  POP \t\t\tshould be betwee\n  SWAP2 \t\t\t      require(_ps > 0 && _ps <...\n  SWAP1 \t\t\t      require(_ps > 0 && _ps <...\n  POP \t\t\t      require(_ps > 0 && _ps <...\n  JUMP \t\t\t      require(_ps > 0 && _ps <...\ntag 24\t\t\t\");\\r\\n\\r\\n        rs1 = payab...\n  JUMPDEST \t\t\t\");\\r\\n\\r\\n        rs1 = payab...\n  PUSH [tag] 45\t\t\ts3 = _rs3;\\r\\n        ps =\n  DUP2 \t\t\t  ps \n  PUSH [tag] 23\t\t\ts3 = _rs3;\\r\\n        ps =\n  JUMP \t\t\ts3 = _rs3;\\r\\n        ps =\ntag 45\t\t\ts3 = _rs3;\\r\\n        ps =\n  JUMPDEST \t\t\ts3 = _rs3;\\r\\n        ps =\n  DUP2 \t\t\t     \n  EQ \t\t\t\\n        rs3 = _rs3;\\r\\n     ...\n  PUSH [tag] 46\t\t\t2 = _rs2;\\r\\n        rs3 = _rs...\n  JUMPI \t\t\t2 = _rs2;\\r\\n        rs3 = _rs...\n  PUSH 0\t\t\t\\n\n  DUP1 \t\t\t\\r\n  REVERT \t\t\t\\r\\n    }\\r\\n\\r\\n \ntag 46\t\t\t2 = _rs2;\\r\\n        rs3 = _rs...\n  JUMPDEST \t\t\t2 = _rs2;\\r\\n        rs3 = _rs...\n  POP \t\t\t\");\\r\\n\\r\\n        rs1 = payab...\n  JUMP \t\t\t\");\\r\\n\\r\\n        rs1 = payab...\ntag 25\t\t\t to ensure only the contract o...\n  JUMPDEST \t\t\t to ensure only the contract o...\n  PUSH 0\t\t\ttions\n  DUP2 \t\t\t {\\r\\n  \n  MLOAD \t\t\twner() {\\r\\n   \n  SWAP1 \t\t\tier onlyOwner() {\\r\\n   \n  POP \t\t\tier onlyOwner() {\\r\\n   \n  PUSH [tag] 48\t\t\tire(msg.sender == rs1, \"Only t...\n  DUP2 \t\t\ty the\n  PUSH [tag] 24\t\t\tire(msg.sender == rs1, \"Only t...\n  JUMP \t\t\tire(msg.sender == rs1, \"Only t...\ntag 48\t\t\tire(msg.sender == rs1, \"Only t...\n  JUMPDEST \t\t\tire(msg.sender == rs1, \"Only t...\n  SWAP3 \t\t\t to ensure only the contract o...\n  SWAP2 \t\t\t to ensure only the contract o...\n  POP \t\t\t to ensure only the contract o...\n  POP \t\t\t to ensure only the contract o...\n  JUMP \t\t\t to ensure only the contract o...\ntag 2\t\t\ter can perform this action.\");...\n  JUMPDEST \t\t\ter can perform this action.\");...\n  PUSH 0\t\t\t more \n  DUP1 \t\t\tan onc\n  PUSH 0\t\t\t\\n    m\n  PUSH 60\t\t\tqu\n  DUP5 \t\t\t\\r\\n       \n  DUP7 \t\t\tbuted()\n  SUB \t\t\tstributed() {\\r\\n        \n  SLT \t\t\totDistributed() {\\r\\n        r...\n  ISZERO \t\t\tdsNotDistributed() {\\r\\n      ...\n  PUSH [tag] 50\t\t\tdsNotDistributed() {\\r\\n      ...\n  JUMPI \t\t\tdsNotDistributed() {\\r\\n      ...\n  PUSH [tag] 51\t\t\t!fundsDistributed, \"Funds have...\n  PUSH [tag] 17\t\t\t!fundsDistributed, \"Funds have...\n  JUMP \t\t\t!fundsDistributed, \"Funds have...\ntag 51\t\t\t!fundsDistributed, \"Funds have...\n  JUMPDEST \t\t\t!fundsDistributed, \"Funds have...\ntag 50\t\t\tdsNotDistributed() {\\r\\n      ...\n  JUMPDEST \t\t\tdsNotDistributed() {\\r\\n      ...\n  PUSH 0\t\t\tm\n  PUSH [tag] 52\t\t\tality of receive() and fundCon...\n  DUP7 \t\t\tontract\n  DUP3 \t\t\tion fu\n  DUP8 \t\t\t\\r\\n    fun\n  ADD \t\t\tce()\\r\\n    function fun\n  PUSH [tag] 22\t\t\tality of receive() and fundCon...\n  JUMP \t\t\tality of receive() and fundCon...\ntag 52\t\t\tality of receive() and fundCon...\n  JUMPDEST \t\t\tality of receive() and fundCon...\n  SWAP4 \t\t\tg functionality of receive() a...\n  POP \t\t\tg functionality of receive() a...\n  POP \t\t\tmbined funding function, optim...\n  PUSH 20\t\t\t 0\n  PUSH [tag] 53\t\t\tEIVE_AMOUNT, \"Invalid amount. ...\n  DUP7 \t\t\t       \n  DUP3 \t\t\ter.\");\n  DUP8 \t\t\tp to 11 E\n  ADD \t\t\tnd up to 11 Ether.\");\\r\n  PUSH [tag] 22\t\t\tEIVE_AMOUNT, \"Invalid amount. ...\n  JUMP \t\t\tEIVE_AMOUNT, \"Invalid amount. ...\ntag 53\t\t\tEIVE_AMOUNT, \"Invalid amount. ...\n  JUMPDEST \t\t\tEIVE_AMOUNT, \"Invalid amount. ...\n  SWAP3 \t\t\t<= MAX_RECEIVE_AMOUNT, \"Invali...\n  POP \t\t\t<= MAX_RECEIVE_AMOUNT, \"Invali...\n  POP \t\t\t\\r\\n        require(msg.value ...\n  PUSH 40\t\t\ttt\n  PUSH [tag] 54\t\t\tng\\r\\n    }\\r\\n\\r\\n    // Dist...\n  DUP7 \t\t\tion dis\n  DUP3 \t\t\t    fu\n  DUP8 \t\t\t function\n  ADD \t\t\tunds function\\r\\n    fun\n  PUSH [tag] 25\t\t\tng\\r\\n    }\\r\\n\\r\\n    // Dist...\n  JUMP \t\t\tng\\r\\n    }\\r\\n\\r\\n    // Dist...\ntag 54\t\t\tng\\r\\n    }\\r\\n\\r\\n    // Dist...\n  JUMPDEST \t\t\tng\\r\\n    }\\r\\n\\r\\n    // Dist...\n  SWAP2 \t\t\track funding\\r\\n    }\\r\\n\\r\\n ...\n  POP \t\t\track funding\\r\\n    }\\r\\n\\r\\n ...\n  POP \t\t\tsg.sender, msg.value); // Emit...\n  SWAP3 \t\t\ter can perform this action.\");...\n  POP \t\t\ter can perform this action.\");...\n  SWAP3 \t\t\ter can perform this action.\");...\n  POP \t\t\ter can perform this action.\");...\n  SWAP3 \t\t\ter can perform this action.\");...\n  JUMP \t\t\ter can perform this action.\");...\ntag 26\t\t\tpayable onlyOwner fundsNotDist...\n  JUMPDEST \t\t\tpayable onlyOwner fundsNotDist...\n  PUSH 0\t\t\ttrant modif\n  DUP3 \t\t\tdress(\n  DUP3 \t\t\tre(\n  MSTORE \t\t\t  require(address(t\n  PUSH 20\t\t\table\n  DUP3 \t\t\tava\n  ADD \t\t\tnds available \n  SWAP1 \t\t\tnce > 0, \"No funds available \n  POP \t\t\tnce > 0, \"No funds available \n  SWAP3 \t\t\tpayable onlyOwner fundsNotDist...\n  SWAP2 \t\t\tpayable onlyOwner fundsNotDist...\n  POP \t\t\tpayable onlyOwner fundsNotDist...\n  POP \t\t\tpayable onlyOwner fundsNotDist...\n  JUMP \t\t\tpayable onlyOwner fundsNotDist...\ntag 27\t\t\te.\");\\r\\n\\r\\n        uint256 c...\n  JUMPDEST \t\t\te.\");\\r\\n\\r\\n        uint256 c...\n  PUSH 496E76616C6964207061727469636970616E74206164647265737365732E0000\t\t\t rs3Share = contractBalance - ...\n  PUSH 0\t\t\tt\n  DUP3 \t\t\t     u\n  ADD \t\t\t\\n        uint2\n  MSTORE \t\t\t/ 100;\\r\\n        uint256 rs3S...\n  POP \t\t\te.\");\\r\\n\\r\\n        uint256 c...\n  JUMP \t\t\te.\");\\r\\n\\r\\n        uint256 c...\ntag 28\t\t\t     fundsDistributed = true;\\...\n  JUMPDEST \t\t\t     fundsDistributed = true;\\...\n  PUSH 0\t\t\td r\n  PUSH [tag] 58\t\t\tack to rs1 - handles rounding ...\n  PUSH 1E\t\t\tal\n  DUP4 \t\t\tver\n  PUSH [tag] 26\t\t\tack to rs1 - handles rounding ...\n  JUMP \t\t\tack to rs1 - handles rounding ...\ntag 58\t\t\tack to rs1 - handles rounding ...\n  JUMPDEST \t\t\tack to rs1 - handles rounding ...\n  SWAP2 \t\t\tlance back to rs1 - handles ro...\n  POP \t\t\tlance back to rs1 - handles ro...\n  PUSH [tag] 59\t\t\t    uint256 remainingBalance =...\n  DUP3 \t\t\t{\\r\\n\n  PUSH [tag] 27\t\t\t    uint256 remainingBalance =...\n  JUMP \t\t\t    uint256 remainingBalance =...\ntag 59\t\t\t    uint256 remainingBalance =...\n  JUMPDEST \t\t\t    uint256 remainingBalance =...\n  PUSH 20\t\t\tem\n  DUP3 \t\t\tfer\n  ADD \t\t\transfer(rema\n  SWAP1 \t\t\t  rs1.transfer(rema\n  POP \t\t\t  rs1.transfer(rema\n  SWAP2 \t\t\t     fundsDistributed = true;\\...\n  SWAP1 \t\t\t     fundsDistributed = true;\\...\n  POP \t\t\t     fundsDistributed = true;\\...\n  JUMP \t\t\t     fundsDistributed = true;\\...\ntag 10\t\t\t);\\r\\n            emit Remaini...\n  JUMPDEST \t\t\t);\\r\\n            emit Remaini...\n  PUSH 0\t\t\td(rs\n  PUSH 20\t\t\tnt\n  DUP3 \t\t\tmitting e\n  ADD \t\t\t// Emitting event \n  SWAP1 \t\t\tShare); // Emitting event \n  POP \t\t\tShare); // Emitting event \n  DUP2 \t\t\tn to chec\n  DUP2 \t\t\tunct\n  SUB \t\t\t// Function to check\n  PUSH 0\t\t\t \n  DUP4 \t\t\t\\r\\n    }\\r\\n\n  ADD \t\t\ttion\\r\\n    }\\r\\n\\r\\n  \n  MSTORE \t\t\tistribution\\r\\n    }\\r\\n\\r\\n  ...\n  PUSH [tag] 61\t\t\te contract\\r\\n    function get...\n  DUP2 \t\t\t\\n\\r\\n \n  PUSH [tag] 28\t\t\te contract\\r\\n    function get...\n  JUMP \t\t\te contract\\r\\n    function get...\ntag 61\t\t\te contract\\r\\n    function get...\n  JUMPDEST \t\t\te contract\\r\\n    function get...\n  SWAP1 \t\t\tce of the contract\\r\\n    func...\n  POP \t\t\tce of the contract\\r\\n    func...\n  SWAP2 \t\t\t);\\r\\n            emit Remaini...\n  SWAP1 \t\t\t);\\r\\n            emit Remaini...\n  POP \t\t\t);\\r\\n            emit Remaini...\n  JUMP \t\t\t);\\r\\n            emit Remaini...\ntag 29\t\t\t function to allow owner to re...\n  JUMPDEST \t\t\t function to allow owner to re...\n  PUSH 50657263656E746167652073686172652073686F756C64206265206265747765\t\t\tlance > 0, \"No funds to recove...\n  PUSH 0\t\t\t)\n  DUP3 \t\t\tess(th\n  ADD \t\t\taddress(this).\n  MSTORE \t\t\tequire(address(this).balance >...\n  PUSH 656E203120616E64203130302E00000000000000000000000000000000000000\t\t\ts).balance);\\r\\n \n  PUSH 20\t\t\ts(\n  DUP3 \t\t\tr(addr\n  ADD \t\t\tnsfer(address(t\n  MSTORE \t\t\trs1.transfer(address(this).bal...\n  POP \t\t\t function to allow owner to re...\n  JUMP \t\t\t function to allow owner to re...\ntag 30\t\t\t\n  JUMPDEST \t\t\t\n  PUSH 0\t\t\t\n  PUSH [tag] 64\t\t\t\n  PUSH 2D\t\t\t\n  DUP4 \t\t\t\n  PUSH [tag] 26\t\t\t\n  JUMP \t\t\t\ntag 64\t\t\t\n  JUMPDEST \t\t\t\n  SWAP2 \t\t\t\n  POP \t\t\t\n  PUSH [tag] 65\t\t\t\n  DUP3 \t\t\t\n  PUSH [tag] 29\t\t\t\n  JUMP \t\t\t\ntag 65\t\t\t\n  JUMPDEST \t\t\t\n  PUSH 40\t\t\t\n  DUP3 \t\t\t\n  ADD \t\t\t\n  SWAP1 \t\t\t\n  POP \t\t\t\n  SWAP2 \t\t\t\n  SWAP1 \t\t\t\n  POP \t\t\t\n  JUMP \t\t\t\ntag 14\t\t\t\n  JUMPDEST \t\t\t\n  PUSH 0\t\t\t\n  PUSH 20\t\t\t\n  DUP3 \t\t\t\n  ADD \t\t\t\n  SWAP1 \t\t\t\n  POP \t\t\t\n  DUP2 \t\t\t\n  DUP2 \t\t\t\n  SUB \t\t\t\n  PUSH 0\t\t\t\n  DUP4 \t\t\t\n  ADD \t\t\t\n  MSTORE \t\t\t\n  PUSH [tag] 67\t\t\t\n  DUP2 \t\t\t\n  PUSH [tag] 30\t\t\t\n  JUMP \t\t\t\ntag 67\t\t\t\n  JUMPDEST \t\t\t\n  SWAP1 \t\t\t\n  POP \t\t\t\n  SWAP2 \t\t\t\n  SWAP1 \t\t\t\n  POP \t\t\t\n  JUMP \t\t\t\ntag 15\t\t\tcontract RevenueSharingContrac...\n  JUMPDEST \t\t\tcontract RevenueSharingContrac...\n  PUSH #[$] 0000000000000000000000000000000000000000000000000000000000000000\t\t\tcontract RevenueSharingContrac...\n  DUP1 \t\t\tcontract RevenueSharingContrac...\n  PUSH [$] 0000000000000000000000000000000000000000000000000000000000000000\t\t\tcontract RevenueSharingContrac...\n  PUSH 0\t\t\tcontract RevenueSharingContrac...\n  CODECOPY \t\t\tcontract RevenueSharingContrac...\n  PUSH 0\t\t\tcontract RevenueSharingContrac...\n  RETURN \t\t\tcontract RevenueSharingContrac...\n.data\n  0:\n    .code\n      PUSH 80\t\t\tcontract RevenueSharingContrac...\n      PUSH 40\t\t\tcontract RevenueSharingContrac...\n      MSTORE \t\t\tcontract RevenueSharingContrac...\n      PUSH 4\t\t\tcontract RevenueSharingContrac...\n      CALLDATASIZE \t\t\tcontract RevenueSharingContrac...\n      LT \t\t\tcontract RevenueSharingContrac...\n      PUSH [tag] 1\t\t\tcontract RevenueSharingContrac...\n      JUMPI \t\t\tcontract RevenueSharingContrac...\n      PUSH 0\t\t\tcontract RevenueSharingContrac...\n      CALLDATALOAD \t\t\tcontract RevenueSharingContrac...\n      PUSH E0\t\t\tcontract RevenueSharingContrac...\n      SHR \t\t\tcontract RevenueSharingContrac...\n      DUP1 \t\t\tcontract RevenueSharingContrac...\n      PUSH BABE2B76\t\t\tcontract RevenueSharingContrac...\n      GT \t\t\tcontract RevenueSharingContrac...\n      PUSH [tag] 12\t\t\tcontract RevenueSharingContrac...\n      JUMPI \t\t\tcontract RevenueSharingContrac...\n      DUP1 \t\t\tcontract RevenueSharingContrac...\n      PUSH BABE2B76\t\t\tcontract RevenueSharingContrac...\n      EQ \t\t\tcontract RevenueSharingContrac...\n      PUSH [tag] 7\t\t\tcontract RevenueSharingContrac...\n      JUMPI \t\t\tcontract RevenueSharingContrac...\n      DUP1 \t\t\tcontract RevenueSharingContrac...\n      PUSH BCF57501\t\t\tcontract RevenueSharingContrac...\n      EQ \t\t\tcontract RevenueSharingContrac...\n      PUSH [tag] 8\t\t\tcontract RevenueSharingContrac...\n      JUMPI \t\t\tcontract RevenueSharingContrac...\n      DUP1 \t\t\tcontract RevenueSharingContrac...\n      PUSH BD097E21\t\t\tcontract RevenueSharingContrac...\n      EQ \t\t\tcontract RevenueSharingContrac...\n      PUSH [tag] 9\t\t\tcontract RevenueSharingContrac...\n      JUMPI \t\t\tcontract RevenueSharingContrac...\n      DUP1 \t\t\tcontract RevenueSharingContrac...\n      PUSH E929AFC4\t\t\tcontract RevenueSharingContrac...\n      EQ \t\t\tcontract RevenueSharingContrac...\n      PUSH [tag] 10\t\t\tcontract RevenueSharingContrac...\n      JUMPI \t\t\tcontract RevenueSharingContrac...\n      DUP1 \t\t\tcontract RevenueSharingContrac...\n      PUSH F11C7F3D\t\t\tcontract RevenueSharingContrac...\n      EQ \t\t\tcontract RevenueSharingContrac...\n      PUSH [tag] 11\t\t\tcontract RevenueSharingContrac...\n      JUMPI \t\t\tcontract RevenueSharingContrac...\n      PUSH [tag] 1\t\t\tcontract RevenueSharingContrac...\n      JUMP \t\t\tcontract RevenueSharingContrac...\n    tag 12\t\t\tcontract RevenueSharingContrac...\n      JUMPDEST \t\t\tcontract RevenueSharingContrac...\n      DUP1 \t\t\tcontract RevenueSharingContrac...\n      PUSH 3A6A4D2E\t\t\tcontract RevenueSharingContrac...\n      EQ \t\t\tcontract RevenueSharingContrac...\n      PUSH [tag] 2\t\t\tcontract RevenueSharingContrac...\n      JUMPI \t\t\tcontract RevenueSharingContrac...\n      DUP1 \t\t\tcontract RevenueSharingContrac...\n      PUSH 3D68ED69\t\t\tcontract RevenueSharingContrac...\n      EQ \t\t\tcontract RevenueSharingContrac...\n      PUSH [tag] 3\t\t\tcontract RevenueSharingContrac...\n      JUMPI \t\t\tcontract RevenueSharingContrac...\n      DUP1 \t\t\tcontract RevenueSharingContrac...\n      PUSH 41A54550\t\t\tcontract RevenueSharingContrac...\n      EQ \t\t\tcontract RevenueSharingContrac...\n      PUSH [tag] 4\t\t\tcontract RevenueSharingContrac...\n      JUMPI \t\t\tcontract RevenueSharingContrac...\n      DUP1 \t\t\tcontract RevenueSharingContrac...\n      PUSH 6F95B3F3\t\t\tcontract RevenueSharingContrac...\n      EQ \t\t\tcontract RevenueSharingContrac...\n      PUSH [tag] 5\t\t\tcontract RevenueSharingContrac...\n      JUMPI \t\t\tcontract RevenueSharingContrac...\n      DUP1 \t\t\tcontract RevenueSharingContrac...\n      PUSH 6F9FB98A\t\t\tcontract RevenueSharingContrac...\n      EQ \t\t\tcontract RevenueSharingContrac...\n      PUSH [tag] 6\t\t\tcontract RevenueSharingContrac...\n      JUMPI \t\t\tcontract RevenueSharingContrac...\n    tag 1\t\t\tcontract RevenueSharingContrac...\n      JUMPDEST \t\t\tcontract RevenueSharingContrac...\n      PUSH 0\t\t\tcontract RevenueSharingContrac...\n      DUP1 \t\t\tcontract RevenueSharingContrac...\n      REVERT \t\t\tcontract RevenueSharingContrac...\n    tag 2\t\t\tfunction distributeFunds() ext...\n      JUMPDEST \t\t\tfunction distributeFunds() ext...\n      PUSH [tag] 13\t\t\tfunction distributeFunds() ext...\n      PUSH [tag] 14\t\t\tfunction distributeFunds() ext...\n      JUMP \t\t\tfunction distributeFunds() ext...\n    tag 13\t\t\tfunction distributeFunds() ext...\n      JUMPDEST \t\t\tfunction distributeFunds() ext...\n      STOP \t\t\tfunction distributeFunds() ext...\n    tag 3\t\t\taddress payable public rs3\n      JUMPDEST \t\t\taddress payable public rs3\n      CALLVALUE \t\t\taddress payable public rs3\n      DUP1 \t\t\taddress payable public rs3\n      ISZERO \t\t\taddress payable public rs3\n      PUSH [tag] 15\t\t\taddress payable public rs3\n      JUMPI \t\t\taddress payable public rs3\n      PUSH 0\t\t\taddress payable public rs3\n      DUP1 \t\t\taddress payable public rs3\n      REVERT \t\t\taddress payable public rs3\n    tag 15\t\t\taddress payable public rs3\n      JUMPDEST \t\t\taddress payable public rs3\n      POP \t\t\taddress payable public rs3\n      PUSH [tag] 16\t\t\taddress payable public rs3\n      PUSH [tag] 17\t\t\taddress payable public rs3\n      JUMP \t\t\taddress payable public rs3\n    tag 16\t\t\taddress payable public rs3\n      JUMPDEST \t\t\taddress payable public rs3\n      PUSH 40\t\t\taddress payable public rs3\n      MLOAD \t\t\taddress payable public rs3\n      PUSH [tag] 18\t\t\taddress payable public rs3\n      SWAP2 \t\t\taddress payable public rs3\n      SWAP1 \t\t\taddress payable public rs3\n      PUSH [tag] 19\t\t\taddress payable public rs3\n      JUMP \t\t\taddress payable public rs3\n    tag 18\t\t\taddress payable public rs3\n      JUMPDEST \t\t\taddress payable public rs3\n      PUSH 40\t\t\taddress payable public rs3\n      MLOAD \t\t\taddress payable public rs3\n      DUP1 \t\t\taddress payable public rs3\n      SWAP2 \t\t\taddress payable public rs3\n      SUB \t\t\taddress payable public rs3\n      SWAP1 \t\t\taddress payable public rs3\n      RETURN \t\t\taddress payable public rs3\n    tag 4\t\t\tuint256 public ps\n      JUMPDEST \t\t\tuint256 public ps\n      CALLVALUE \t\t\tuint256 public ps\n      DUP1 \t\t\tuint256 public ps\n      ISZERO \t\t\tuint256 public ps\n      PUSH [tag] 20\t\t\tuint256 public ps\n      JUMPI \t\t\tuint256 public ps\n      PUSH 0\t\t\tuint256 public ps\n      DUP1 \t\t\tuint256 public ps\n      REVERT \t\t\tuint256 public ps\n    tag 20\t\t\tuint256 public ps\n      JUMPDEST \t\t\tuint256 public ps\n      POP \t\t\tuint256 public ps\n      PUSH [tag] 21\t\t\tuint256 public ps\n      PUSH [tag] 22\t\t\tuint256 public ps\n      JUMP \t\t\tuint256 public ps\n    tag 21\t\t\tuint256 public ps\n      JUMPDEST \t\t\tuint256 public ps\n      PUSH 40\t\t\tuint256 public ps\n      MLOAD \t\t\tuint256 public ps\n      PUSH [tag] 23\t\t\tuint256 public ps\n      SWAP2 \t\t\tuint256 public ps\n      SWAP1 \t\t\tuint256 public ps\n      PUSH [tag] 24\t\t\tuint256 public ps\n      JUMP \t\t\tuint256 public ps\n    tag 23\t\t\tuint256 public ps\n      JUMPDEST \t\t\tuint256 public ps\n      PUSH 40\t\t\tuint256 public ps\n      MLOAD \t\t\tuint256 public ps\n      DUP1 \t\t\tuint256 public ps\n      SWAP2 \t\t\tuint256 public ps\n      SUB \t\t\tuint256 public ps\n      SWAP1 \t\t\tuint256 public ps\n      RETURN \t\t\tuint256 public ps\n    tag 5\t\t\tbool public fundsDistributed\n      JUMPDEST \t\t\tbool public fundsDistributed\n      CALLVALUE \t\t\tbool public fundsDistributed\n      DUP1 \t\t\tbool public fundsDistributed\n      ISZERO \t\t\tbool public fundsDistributed\n      PUSH [tag] 25\t\t\tbool public fundsDistributed\n      JUMPI \t\t\tbool public fundsDistributed\n      PUSH 0\t\t\tbool public fundsDistributed\n      DUP1 \t\t\tbool public fundsDistributed\n      REVERT \t\t\tbool public fundsDistributed\n    tag 25\t\t\tbool public fundsDistributed\n      JUMPDEST \t\t\tbool public fundsDistributed\n      POP \t\t\tbool public fundsDistributed\n      PUSH [tag] 26\t\t\tbool public fundsDistributed\n      PUSH [tag] 27\t\t\tbool public fundsDistributed\n      JUMP \t\t\tbool public fundsDistributed\n    tag 26\t\t\tbool public fundsDistributed\n      JUMPDEST \t\t\tbool public fundsDistributed\n      PUSH 40\t\t\tbool public fundsDistributed\n      MLOAD \t\t\tbool public fundsDistributed\n      PUSH [tag] 28\t\t\tbool public fundsDistributed\n      SWAP2 \t\t\tbool public fundsDistributed\n      SWAP1 \t\t\tbool public fundsDistributed\n      PUSH [tag] 29\t\t\tbool public fundsDistributed\n      JUMP \t\t\tbool public fundsDistributed\n    tag 28\t\t\tbool public fundsDistributed\n      JUMPDEST \t\t\tbool public fundsDistributed\n      PUSH 40\t\t\tbool public fundsDistributed\n      MLOAD \t\t\tbool public fundsDistributed\n      DUP1 \t\t\tbool public fundsDistributed\n      SWAP2 \t\t\tbool public fundsDistributed\n      SUB \t\t\tbool public fundsDistributed\n      SWAP1 \t\t\tbool public fundsDistributed\n      RETURN \t\t\tbool public fundsDistributed\n    tag 6\t\t\tfunction getContractBalance() ...\n      JUMPDEST \t\t\tfunction getContractBalance() ...\n      CALLVALUE \t\t\tfunction getContractBalance() ...\n      DUP1 \t\t\tfunction getContractBalance() ...\n      ISZERO \t\t\tfunction getContractBalance() ...\n      PUSH [tag] 30\t\t\tfunction getContractBalance() ...\n      JUMPI \t\t\tfunction getContractBalance() ...\n      PUSH 0\t\t\tfunction getContractBalance() ...\n      DUP1 \t\t\tfunction getContractBalance() ...\n      REVERT \t\t\tfunction getContractBalance() ...\n    tag 30\t\t\tfunction getContractBalance() ...\n      JUMPDEST \t\t\tfunction getContractBalance() ...\n      POP \t\t\tfunction getContractBalance() ...\n      PUSH [tag] 31\t\t\tfunction getContractBalance() ...\n      PUSH [tag] 32\t\t\tfunction getContractBalance() ...\n      JUMP \t\t\tfunction getContractBalance() ...\n    tag 31\t\t\tfunction getContractBalance() ...\n      JUMPDEST \t\t\tfunction getContractBalance() ...\n      PUSH 40\t\t\tfunction getContractBalance() ...\n      MLOAD \t\t\tfunction getContractBalance() ...\n      PUSH [tag] 33\t\t\tfunction getContractBalance() ...\n      SWAP2 \t\t\tfunction getContractBalance() ...\n      SWAP1 \t\t\tfunction getContractBalance() ...\n      PUSH [tag] 24\t\t\tfunction getContractBalance() ...\n      JUMP \t\t\tfunction getContractBalance() ...\n    tag 33\t\t\tfunction getContractBalance() ...\n      JUMPDEST \t\t\tfunction getContractBalance() ...\n      PUSH 40\t\t\tfunction getContractBalance() ...\n      MLOAD \t\t\tfunction getContractBalance() ...\n      DUP1 \t\t\tfunction getContractBalance() ...\n      SWAP2 \t\t\tfunction getContractBalance() ...\n      SUB \t\t\tfunction getContractBalance() ...\n      SWAP1 \t\t\tfunction getContractBalance() ...\n      RETURN \t\t\tfunction getContractBalance() ...\n    tag 7\t\t\tuint256 public constant MAX_RE...\n      JUMPDEST \t\t\tuint256 public constant MAX_RE...\n      CALLVALUE \t\t\tuint256 public constant MAX_RE...\n      DUP1 \t\t\tuint256 public constant MAX_RE...\n      ISZERO \t\t\tuint256 public constant MAX_RE...\n      PUSH [tag] 34\t\t\tuint256 public constant MAX_RE...\n      JUMPI \t\t\tuint256 public constant MAX_RE...\n      PUSH 0\t\t\tuint256 public constant MAX_RE...\n      DUP1 \t\t\tuint256 public constant MAX_RE...\n      REVERT \t\t\tuint256 public constant MAX_RE...\n    tag 34\t\t\tuint256 public constant MAX_RE...\n      JUMPDEST \t\t\tuint256 public constant MAX_RE...\n      POP \t\t\tuint256 public constant MAX_RE...\n      PUSH [tag] 35\t\t\tuint256 public constant MAX_RE...\n      PUSH [tag] 36\t\t\tuint256 public constant MAX_RE...\n      JUMP \t\t\tuint256 public constant MAX_RE...\n    tag 35\t\t\tuint256 public constant MAX_RE...\n      JUMPDEST \t\t\tuint256 public constant MAX_RE...\n      PUSH 40\t\t\tuint256 public constant MAX_RE...\n      MLOAD \t\t\tuint256 public constant MAX_RE...\n      PUSH [tag] 37\t\t\tuint256 public constant MAX_RE...\n      SWAP2 \t\t\tuint256 public constant MAX_RE...\n      SWAP1 \t\t\tuint256 public constant MAX_RE...\n      PUSH [tag] 24\t\t\tuint256 public constant MAX_RE...\n      JUMP \t\t\tuint256 public constant MAX_RE...\n    tag 37\t\t\tuint256 public constant MAX_RE...\n      JUMPDEST \t\t\tuint256 public constant MAX_RE...\n      PUSH 40\t\t\tuint256 public constant MAX_RE...\n      MLOAD \t\t\tuint256 public constant MAX_RE...\n      DUP1 \t\t\tuint256 public constant MAX_RE...\n      SWAP2 \t\t\tuint256 public constant MAX_RE...\n      SUB \t\t\tuint256 public constant MAX_RE...\n      SWAP1 \t\t\tuint256 public constant MAX_RE...\n      RETURN \t\t\tuint256 public constant MAX_RE...\n    tag 8\t\t\tfunction recoverStuckFunds() e...\n      JUMPDEST \t\t\tfunction recoverStuckFunds() e...\n      CALLVALUE \t\t\tfunction recoverStuckFunds() e...\n      DUP1 \t\t\tfunction recoverStuckFunds() e...\n      ISZERO \t\t\tfunction recoverStuckFunds() e...\n      PUSH [tag] 38\t\t\tfunction recoverStuckFunds() e...\n      JUMPI \t\t\tfunction recoverStuckFunds() e...\n      PUSH 0\t\t\tfunction recoverStuckFunds() e...\n      DUP1 \t\t\tfunction recoverStuckFunds() e...\n      REVERT \t\t\tfunction recoverStuckFunds() e...\n    tag 38\t\t\tfunction recoverStuckFunds() e...\n      JUMPDEST \t\t\tfunction recoverStuckFunds() e...\n      POP \t\t\tfunction recoverStuckFunds() e...\n      PUSH [tag] 39\t\t\tfunction recoverStuckFunds() e...\n      PUSH [tag] 40\t\t\tfunction recoverStuckFunds() e...\n      JUMP \t\t\tfunction recoverStuckFunds() e...\n    tag 39\t\t\tfunction recoverStuckFunds() e...\n      JUMPDEST \t\t\tfunction recoverStuckFunds() e...\n      STOP \t\t\tfunction recoverStuckFunds() e...\n    tag 9\t\t\tfunction fundContract() extern...\n      JUMPDEST \t\t\tfunction fundContract() extern...\n      PUSH [tag] 41\t\t\tfunction fundContract() extern...\n      PUSH [tag] 42\t\t\tfunction fundContract() extern...\n      JUMP \t\t\tfunction fundContract() extern...\n    tag 41\t\t\tfunction fundContract() extern...\n      JUMPDEST \t\t\tfunction fundContract() extern...\n      STOP \t\t\tfunction fundContract() extern...\n    tag 10\t\t\taddress payable public rs2\n      JUMPDEST \t\t\taddress payable public rs2\n      CALLVALUE \t\t\taddress payable public rs2\n      DUP1 \t\t\taddress payable public rs2\n      ISZERO \t\t\taddress payable public rs2\n      PUSH [tag] 43\t\t\taddress payable public rs2\n      JUMPI \t\t\taddress payable public rs2\n      PUSH 0\t\t\taddress payable public rs2\n      DUP1 \t\t\taddress payable public rs2\n      REVERT \t\t\taddress payable public rs2\n    tag 43\t\t\taddress payable public rs2\n      JUMPDEST \t\t\taddress payable public rs2\n      POP \t\t\taddress payable public rs2\n      PUSH [tag] 44\t\t\taddress payable public rs2\n      PUSH [tag] 45\t\t\taddress payable public rs2\n      JUMP \t\t\taddress payable public rs2\n    tag 44\t\t\taddress payable public rs2\n      JUMPDEST \t\t\taddress payable public rs2\n      PUSH 40\t\t\taddress payable public rs2\n      MLOAD \t\t\taddress payable public rs2\n      PUSH [tag] 46\t\t\taddress payable public rs2\n      SWAP2 \t\t\taddress payable public rs2\n      SWAP1 \t\t\taddress payable public rs2\n      PUSH [tag] 19\t\t\taddress payable public rs2\n      JUMP \t\t\taddress payable public rs2\n    tag 46\t\t\taddress payable public rs2\n      JUMPDEST \t\t\taddress payable public rs2\n      PUSH 40\t\t\taddress payable public rs2\n      MLOAD \t\t\taddress payable public rs2\n      DUP1 \t\t\taddress payable public rs2\n      SWAP2 \t\t\taddress payable public rs2\n      SUB \t\t\taddress payable public rs2\n      SWAP1 \t\t\taddress payable public rs2\n      RETURN \t\t\taddress payable public rs2\n    tag 11\t\t\taddress payable public rs1\n      JUMPDEST \t\t\taddress payable public rs1\n      CALLVALUE \t\t\taddress payable public rs1\n      DUP1 \t\t\taddress payable public rs1\n      ISZERO \t\t\taddress payable public rs1\n      PUSH [tag] 47\t\t\taddress payable public rs1\n      JUMPI \t\t\taddress payable public rs1\n      PUSH 0\t\t\taddress payable public rs1\n      DUP1 \t\t\taddress payable public rs1\n      REVERT \t\t\taddress payable public rs1\n    tag 47\t\t\taddress payable public rs1\n      JUMPDEST \t\t\taddress payable public rs1\n      POP \t\t\taddress payable public rs1\n      PUSH [tag] 48\t\t\taddress payable public rs1\n      PUSH [tag] 49\t\t\taddress payable public rs1\n      JUMP \t\t\taddress payable public rs1\n    tag 48\t\t\taddress payable public rs1\n      JUMPDEST \t\t\taddress payable public rs1\n      PUSH 40\t\t\taddress payable public rs1\n      MLOAD \t\t\taddress payable public rs1\n      PUSH [tag] 50\t\t\taddress payable public rs1\n      SWAP2 \t\t\taddress payable public rs1\n      SWAP1 \t\t\taddress payable public rs1\n      PUSH [tag] 19\t\t\taddress payable public rs1\n      JUMP \t\t\taddress payable public rs1\n    tag 50\t\t\taddress payable public rs1\n      JUMPDEST \t\t\taddress payable public rs1\n      PUSH 40\t\t\taddress payable public rs1\n      MLOAD \t\t\taddress payable public rs1\n      DUP1 \t\t\taddress payable public rs1\n      SWAP2 \t\t\taddress payable public rs1\n      SUB \t\t\taddress payable public rs1\n      SWAP1 \t\t\taddress payable public rs1\n      RETURN \t\t\taddress payable public rs1\n    tag 14\t\t\tfunction distributeFunds() ext...\n      JUMPDEST \t\t\tfunction distributeFunds() ext...\n      PUSH 1\t\t\trs1\n      PUSH 0\t\t\trs1\n      SWAP1 \t\t\trs1\n      SLOAD \t\t\trs1\n      SWAP1 \t\t\trs1\n      PUSH 100\t\t\trs1\n      EXP \t\t\trs1\n      SWAP1 \t\t\trs1\n      DIV \t\t\trs1\n      PUSH FFFFFFFFFFFFFFFFFFFFFFFFFFFFFFFFFFFFFFFF\t\t\trs1\n      AND \t\t\trs1\n      PUSH FFFFFFFFFFFFFFFFFFFFFFFFFFFFFFFFFFFFFFFF\t\t\tmsg.sender == rs1\n      AND \t\t\tmsg.sender == rs1\n      CALLER \t\t\tmsg.sender\n      PUSH FFFFFFFFFFFFFFFFFFFFFFFFFFFFFFFFFFFFFFFF\t\t\tmsg.sender == rs1\n      AND \t\t\tmsg.sender == rs1\n      EQ \t\t\tmsg.sender == rs1\n      PUSH [tag] 52\t\t\trequire(msg.sender == rs1, \"On...\n      JUMPI \t\t\trequire(msg.sender == rs1, \"On...\n      PUSH 40\t\t\trequire(msg.sender == rs1, \"On...\n      MLOAD \t\t\trequire(msg.sender == rs1, \"On...\n      PUSH 8C379A000000000000000000000000000000000000000000000000000000000\t\t\trequire(msg.sender == rs1, \"On...\n      DUP2 \t\t\trequire(msg.sender == rs1, \"On...\n      MSTORE \t\t\trequire(msg.sender == rs1, \"On...\n      PUSH 4\t\t\trequire(msg.sender == rs1, \"On...\n      ADD \t\t\trequire(msg.sender == rs1, \"On...\n      PUSH [tag] 53\t\t\trequire(msg.sender == rs1, \"On...\n      SWAP1 \t\t\trequire(msg.sender == rs1, \"On...\n      PUSH [tag] 54\t\t\trequire(msg.sender == rs1, \"On...\n      JUMP \t\t\trequire(msg.sender == rs1, \"On...\n    tag 53\t\t\trequire(msg.sender == rs1, \"On...\n      JUMPDEST \t\t\trequire(msg.sender == rs1, \"On...\n      PUSH 40\t\t\trequire(msg.sender == rs1, \"On...\n      MLOAD \t\t\trequire(msg.sender == rs1, \"On...\n      DUP1 \t\t\trequire(msg.sender == rs1, \"On...\n      SWAP2 \t\t\trequire(msg.sender == rs1, \"On...\n      SUB \t\t\trequire(msg.sender == rs1, \"On...\n      SWAP1 \t\t\trequire(msg.sender == rs1, \"On...\n      REVERT \t\t\trequire(msg.sender == rs1, \"On...\n    tag 52\t\t\trequire(msg.sender == rs1, \"On...\n      JUMPDEST \t\t\trequire(msg.sender == rs1, \"On...\n      PUSH 5\t\t\tfundsDistributed\n      PUSH 0\t\t\tfundsDistributed\n      SWAP1 \t\t\tfundsDistributed\n      SLOAD \t\t\tfundsDistributed\n      SWAP1 \t\t\tfundsDistributed\n      PUSH 100\t\t\tfundsDistributed\n      EXP \t\t\tfundsDistributed\n      SWAP1 \t\t\tfundsDistributed\n      DIV \t\t\tfundsDistributed\n      PUSH FF\t\t\tfundsDistributed\n      AND \t\t\tfundsDistributed\n      ISZERO \t\t\t!fundsDistributed\n      PUSH [tag] 56\t\t\trequire(!fundsDistributed, \"Fu...\n      JUMPI \t\t\trequire(!fundsDistributed, \"Fu...\n      PUSH 40\t\t\trequire(!fundsDistributed, \"Fu...\n      MLOAD \t\t\trequire(!fundsDistributed, \"Fu...\n      PUSH 8C379A000000000000000000000000000000000000000000000000000000000\t\t\trequire(!fundsDistributed, \"Fu...\n      DUP2 \t\t\trequire(!fundsDistributed, \"Fu...\n      MSTORE \t\t\trequire(!fundsDistributed, \"Fu...\n      PUSH 4\t\t\trequire(!fundsDistributed, \"Fu...\n      ADD \t\t\trequire(!fundsDistributed, \"Fu...\n      PUSH [tag] 57\t\t\trequire(!fundsDistributed, \"Fu...\n      SWAP1 \t\t\trequire(!fundsDistributed, \"Fu...\n      PUSH [tag] 58\t\t\trequire(!fundsDistributed, \"Fu...\n      JUMP \t\t\trequire(!fundsDistributed, \"Fu...\n    tag 57\t\t\trequire(!fundsDistributed, \"Fu...\n      JUMPDEST \t\t\trequire(!fundsDistributed, \"Fu...\n      PUSH 40\t\t\trequire(!fundsDistributed, \"Fu...\n      MLOAD \t\t\trequire(!fundsDistributed, \"Fu...\n      DUP1 \t\t\trequire(!fundsDistributed, \"Fu...\n      SWAP2 \t\t\trequire(!fundsDistributed, \"Fu...\n      SUB \t\t\trequire(!fundsDistributed, \"Fu...\n      SWAP1 \t\t\trequire(!fundsDistributed, \"Fu...\n      REVERT \t\t\trequire(!fundsDistributed, \"Fu...\n    tag 56\t\t\trequire(!fundsDistributed, \"Fu...\n      JUMPDEST \t\t\trequire(!fundsDistributed, \"Fu...\n      PUSH [tag] 60\t\t\t rs3Share = contractB\n      PUSH [tag] 61\t\t\t rs3Share = contrac\n      JUMP \t\t\t rs3Share = contractB\n    tag 60\t\t\t rs3Share = contractB\n      JUMPDEST \t\t\t rs3Share = contractB\n      PUSH 0\t\t\t0\n      SELFBALANCE \t\t\taddress(this).balance\n      GT \t\t\taddress(this).balance > 0\n      PUSH [tag] 63\t\t\trequire(address(this).balance ...\n      JUMPI \t\t\trequire(address(this).balance ...\n      PUSH 40\t\t\trequire(address(this).balance ...\n      MLOAD \t\t\trequire(address(this).balance ...\n      PUSH 8C379A000000000000000000000000000000000000000000000000000000000\t\t\trequire(address(this).balance ...\n      DUP2 \t\t\trequire(address(this).balance ...\n      MSTORE \t\t\trequire(address(this).balance ...\n      PUSH 4\t\t\trequire(address(this).balance ...\n      ADD \t\t\trequire(address(this).balance ...\n      PUSH [tag] 64\t\t\trequire(address(this).balance ...\n      SWAP1 \t\t\trequire(address(this).balance ...\n      PUSH [tag] 65\t\t\trequire(address(this).balance ...\n      JUMP \t\t\trequire(address(this).balance ...\n    tag 64\t\t\trequire(address(this).balance ...\n      JUMPDEST \t\t\trequire(address(this).balance ...\n      PUSH 40\t\t\trequire(address(this).balance ...\n      MLOAD \t\t\trequire(address(this).balance ...\n      DUP1 \t\t\trequire(address(this).balance ...\n      SWAP2 \t\t\trequire(address(this).balance ...\n      SUB \t\t\trequire(address(this).balance ...\n      SWAP1 \t\t\trequire(address(this).balance ...\n      REVERT \t\t\trequire(address(this).balance ...\n    tag 63\t\t\trequire(address(this).balance ...\n      JUMPDEST \t\t\trequire(address(this).balance ...\n      PUSH 0\t\t\tuint256 contractBalance\n      SELFBALANCE \t\t\taddress(this).balance\n      SWAP1 \t\t\tuint256 contractBalance = addr...\n      POP \t\t\tuint256 contractBalance = addr...\n      PUSH 0\t\t\tuint256 rs2Share\n      PUSH 64\t\t\t100\n      PUSH 4\t\t\tps\n      SLOAD \t\t\tps\n      DUP4 \t\t\tcontractBalance\n      PUSH [tag] 66\t\t\tcontractBalance * ps\n      SWAP2 \t\t\tcontractBalance * ps\n      SWAP1 \t\t\tcontractBalance * ps\n      PUSH [tag] 67\t\t\tcontractBalance * ps\n      JUMP \t\t\tcontractBalance * ps\n    tag 66\t\t\tcontractBalance * ps\n      JUMPDEST \t\t\tcontractBalance * ps\n      PUSH [tag] 68\t\t\t(contractBalance * ps) / 100\n      SWAP2 \t\t\t(contractBalance * ps) / 100\n      SWAP1 \t\t\t(contractBalance * ps) / 100\n      PUSH [tag] 69\t\t\t(contractBalance * ps) / 100\n      JUMP \t\t\t(contractBalance * ps) / 100\n    tag 68\t\t\t(contractBalance * ps) / 100\n      JUMPDEST \t\t\t(contractBalance * ps) / 100\n      SWAP1 \t\t\tuint256 rs2Share = (contractBa...\n      POP \t\t\tuint256 rs2Share = (contractBa...\n      PUSH 0\t\t\tuint256 rs3Share\n      DUP2 \t\t\trs2Share\n      DUP4 \t\t\tcontractBalance\n      PUSH [tag] 70\t\t\tcontractBalance - rs2Share\n      SWAP2 \t\t\tcontractBalance - rs2Share\n      SWAP1 \t\t\tcontractBalance - rs2Share\n      PUSH [tag] 71\t\t\tcontractBalance - rs2Share\n      JUMP \t\t\tcontractBalance - rs2Share\n    tag 70\t\t\tcontractBalance - rs2Share\n      JUMPDEST \t\t\tcontractBalance - rs2Share\n      SWAP1 \t\t\tuint256 rs3Share = contractBal...\n      POP \t\t\tuint256 rs3Share = contractBal...\n      PUSH 1\t\t\ttrue\n      PUSH 5\t\t\tfundsDistributed\n      PUSH 0\t\t\tfundsDistributed\n      PUSH 100\t\t\tfundsDistributed = true\n      EXP \t\t\tfundsDistributed = true\n      DUP2 \t\t\tfundsDistributed = true\n      SLOAD \t\t\tfundsDistributed = true\n      DUP2 \t\t\tfundsDistributed = true\n      PUSH FF\t\t\tfundsDistributed = true\n      MUL \t\t\tfundsDistributed = true\n      NOT \t\t\tfundsDistributed = true\n      AND \t\t\tfundsDistributed = true\n      SWAP1 \t\t\tfundsDistributed = true\n      DUP4 \t\t\tfundsDistributed = true\n      ISZERO \t\t\tfundsDistributed = true\n      ISZERO \t\t\tfundsDistributed = true\n      MUL \t\t\tfundsDistributed = true\n      OR \t\t\tfundsDistributed = true\n      SWAP1 \t\t\tfundsDistributed = true\n      SSTORE \t\t\tfundsDistributed = true\n      POP \t\t\tfundsDistributed = true\n      PUSH 2\t\t\trs2\n      PUSH 0\t\t\trs2\n      SWAP1 \t\t\trs2\n      SLOAD \t\t\trs2\n      SWAP1 \t\t\trs2\n      PUSH 100\t\t\trs2\n      EXP \t\t\trs2\n      SWAP1 \t\t\trs2\n      DIV \t\t\trs2\n      PUSH FFFFFFFFFFFFFFFFFFFFFFFFFFFFFFFFFFFFFFFF\t\t\trs2\n      AND \t\t\trs2\n      PUSH FFFFFFFFFFFFFFFFFFFFFFFFFFFFFFFFFFFFFFFF\t\t\trs2.transfer\n      AND \t\t\trs2.transfer\n      PUSH 8FC\t\t\trs2.transfer(rs2Share)\n      DUP4 \t\t\trs2Share\n      SWAP1 \t\t\trs2.transfer(rs2Share)\n      DUP2 \t\t\trs2.transfer(rs2Share)\n      ISZERO \t\t\trs2.transfer(rs2Share)\n      MUL \t\t\trs2.transfer(rs2Share)\n      SWAP1 \t\t\trs2.transfer(rs2Share)\n      PUSH 40\t\t\trs2.transfer(rs2Share)\n      MLOAD \t\t\trs2.transfer(rs2Share)\n      PUSH 0\t\t\trs2.transfer(rs2Share)\n      PUSH 40\t\t\trs2.transfer(rs2Share)\n      MLOAD \t\t\trs2.transfer(rs2Share)\n      DUP1 \t\t\trs2.transfer(rs2Share)\n      DUP4 \t\t\trs2.transfer(rs2Share)\n      SUB \t\t\trs2.transfer(rs2Share)\n      DUP2 \t\t\trs2.transfer(rs2Share)\n      DUP6 \t\t\trs2.transfer(rs2Share)\n      DUP9 \t\t\trs2.transfer(rs2Share)\n      DUP9 \t\t\trs2.transfer(rs2Share)\n      CALL \t\t\trs2.transfer(rs2Share)\n      SWAP4 \t\t\trs2.transfer(rs2Share)\n      POP \t\t\trs2.transfer(rs2Share)\n      POP \t\t\trs2.transfer(rs2Share)\n      POP \t\t\trs2.transfer(rs2Share)\n      POP \t\t\trs2.transfer(rs2Share)\n      ISZERO \t\t\trs2.transfer(rs2Share)\n      DUP1 \t\t\trs2.transfer(rs2Share)\n      ISZERO \t\t\trs2.transfer(rs2Share)\n      PUSH [tag] 73\t\t\trs2.transfer(rs2Share)\n      JUMPI \t\t\trs2.transfer(rs2Share)\n      RETURNDATASIZE \t\t\trs2.transfer(rs2Share)\n      PUSH 0\t\t\trs2.transfer(rs2Share)\n      DUP1 \t\t\trs2.transfer(rs2Share)\n      RETURNDATACOPY \t\t\trs2.transfer(rs2Share)\n      RETURNDATASIZE \t\t\trs2.transfer(rs2Share)\n      PUSH 0\t\t\trs2.transfer(rs2Share)\n      REVERT \t\t\trs2.transfer(rs2Share)\n    tag 73\t\t\trs2.transfer(rs2Share)\n      JUMPDEST \t\t\trs2.transfer(rs2Share)\n      POP \t\t\trs2.transfer(rs2Share)\n      PUSH 3\t\t\trs3\n      PUSH 0\t\t\trs3\n      SWAP1 \t\t\trs3\n      SLOAD \t\t\trs3\n      SWAP1 \t\t\trs3\n      PUSH 100\t\t\trs3\n      EXP \t\t\trs3\n      SWAP1 \t\t\trs3\n      DIV \t\t\trs3\n      PUSH FFFFFFFFFFFFFFFFFFFFFFFFFFFFFFFFFFFFFFFF\t\t\trs3\n      AND \t\t\trs3\n      PUSH FFFFFFFFFFFFFFFFFFFFFFFFFFFFFFFFFFFFFFFF\t\t\trs3.transfer\n      AND \t\t\trs3.transfer\n      PUSH 8FC\t\t\trs3.transfer(rs3Share)\n      DUP3 \t\t\trs3Share\n      SWAP1 \t\t\trs3.transfer(rs3Share)\n      DUP2 \t\t\trs3.transfer(rs3Share)\n      ISZERO \t\t\trs3.transfer(rs3Share)\n      MUL \t\t\trs3.transfer(rs3Share)\n      SWAP1 \t\t\trs3.transfer(rs3Share)\n      PUSH 40\t\t\trs3.transfer(rs3Share)\n      MLOAD \t\t\trs3.transfer(rs3Share)\n      PUSH 0\t\t\trs3.transfer(rs3Share)\n      PUSH 40\t\t\trs3.transfer(rs3Share)\n      MLOAD \t\t\trs3.transfer(rs3Share)\n      DUP1 \t\t\trs3.transfer(rs3Share)\n      DUP4 \t\t\trs3.transfer(rs3Share)\n      SUB \t\t\trs3.transfer(rs3Share)\n      DUP2 \t\t\trs3.transfer(rs3Share)\n      DUP6 \t\t\trs3.transfer(rs3Share)\n      DUP9 \t\t\trs3.transfer(rs3Share)\n      DUP9 \t\t\trs3.transfer(rs3Share)\n      CALL \t\t\trs3.transfer(rs3Share)\n      SWAP4 \t\t\trs3.transfer(rs3Share)\n      POP \t\t\trs3.transfer(rs3Share)\n      POP \t\t\trs3.transfer(rs3Share)\n      POP \t\t\trs3.transfer(rs3Share)\n      POP \t\t\trs3.transfer(rs3Share)\n      ISZERO \t\t\trs3.transfer(rs3Share)\n      DUP1 \t\t\trs3.transfer(rs3Share)\n      ISZERO \t\t\trs3.transfer(rs3Share)\n      PUSH [tag] 75\t\t\trs3.transfer(rs3Share)\n      JUMPI \t\t\trs3.transfer(rs3Share)\n      RETURNDATASIZE \t\t\trs3.transfer(rs3Share)\n      PUSH 0\t\t\trs3.transfer(rs3Share)\n      DUP1 \t\t\trs3.transfer(rs3Share)\n      RETURNDATACOPY \t\t\trs3.transfer(rs3Share)\n      RETURNDATASIZE \t\t\trs3.transfer(rs3Share)\n      PUSH 0\t\t\trs3.transfer(rs3Share)\n      REVERT \t\t\trs3.transfer(rs3Share)\n    tag 75\t\t\trs3.transfer(rs3Share)\n      JUMPDEST \t\t\trs3.transfer(rs3Share)\n      POP \t\t\trs3.transfer(rs3Share)\n      PUSH 0\t\t\tuint256 remainingBalance\n      SELFBALANCE \t\t\taddress(this).balance\n      SWAP1 \t\t\tuint256 remainingBalance = add...\n      POP \t\t\tuint256 remainingBalance = add...\n      PUSH 0\t\t\t0\n      DUP2 \t\t\tremainingBalance\n      GT \t\t\tremainingBalance > 0\n      ISZERO \t\t\tif (remainingBalance > 0) {\\r\\...\n      PUSH [tag] 76\t\t\tif (remainingBalance > 0) {\\r\\...\n      JUMPI \t\t\tif (remainingBalance > 0) {\\r\\...\n      PUSH 1\t\t\trs1\n      PUSH 0\t\t\trs1\n      SWAP1 \t\t\trs1\n      SLOAD \t\t\trs1\n      SWAP1 \t\t\trs1\n      PUSH 100\t\t\trs1\n      EXP \t\t\trs1\n      SWAP1 \t\t\trs1\n      DIV \t\t\trs1\n      PUSH FFFFFFFFFFFFFFFFFFFFFFFFFFFFFFFFFFFFFFFF\t\t\trs1\n      AND \t\t\trs1\n      PUSH FFFFFFFFFFFFFFFFFFFFFFFFFFFFFFFFFFFFFFFF\t\t\trs1.transfer\n      AND \t\t\trs1.transfer\n      PUSH 8FC\t\t\trs1.transfer(remainingBalance)\n      DUP3 \t\t\tremainingBalance\n      SWAP1 \t\t\trs1.transfer(remainingBalance)\n      DUP2 \t\t\trs1.transfer(remainingBalance)\n      ISZERO \t\t\trs1.transfer(remainingBalance)\n      MUL \t\t\trs1.transfer(remainingBalance)\n      SWAP1 \t\t\trs1.transfer(remainingBalance)\n      PUSH 40\t\t\trs1.transfer(remainingBalance)\n      MLOAD \t\t\trs1.transfer(remainingBalance)\n      PUSH 0\t\t\trs1.transfer(remainingBalance)\n      PUSH 40\t\t\trs1.transfer(remainingBalance)\n      MLOAD \t\t\trs1.transfer(remainingBalance)\n      DUP1 \t\t\trs1.transfer(remainingBalance)\n      DUP4 \t\t\trs1.transfer(remainingBalance)\n      SUB \t\t\trs1.transfer(remainingBalance)\n      DUP2 \t\t\trs1.transfer(remainingBalance)\n      DUP6 \t\t\trs1.transfer(remainingBalance)\n      DUP9 \t\t\trs1.transfer(remainingBalance)\n      DUP9 \t\t\trs1.transfer(remainingBalance)\n      CALL \t\t\trs1.transfer(remainingBalance)\n      SWAP4 \t\t\trs1.transfer(remainingBalance)\n      POP \t\t\trs1.transfer(remainingBalance)\n      POP \t\t\trs1.transfer(remainingBalance)\n      POP \t\t\trs1.transfer(remainingBalance)\n      POP \t\t\trs1.transfer(remainingBalance)\n      ISZERO \t\t\trs1.transfer(remainingBalance)\n      DUP1 \t\t\trs1.transfer(remainingBalance)\n      ISZERO \t\t\trs1.transfer(remainingBalance)\n      PUSH [tag] 78\t\t\trs1.transfer(remainingBalance)\n      JUMPI \t\t\trs1.transfer(remainingBalance)\n      RETURNDATASIZE \t\t\trs1.transfer(remainingBalance)\n      PUSH 0\t\t\trs1.transfer(remainingBalance)\n      DUP1 \t\t\trs1.transfer(remainingBalance)\n      RETURNDATACOPY \t\t\trs1.transfer(remainingBalance)\n      RETURNDATASIZE \t\t\trs1.transfer(remainingBalance)\n      PUSH 0\t\t\trs1.transfer(remainingBalance)\n      REVERT \t\t\trs1.transfer(remainingBalance)\n    tag 78\t\t\trs1.transfer(remainingBalance)\n      JUMPDEST \t\t\trs1.transfer(remainingBalance)\n      POP \t\t\trs1.transfer(remainingBalance)\n      PUSH 262600A14409BF795E747AB7EB71CB691CCBDBDEBA406804EA8627E9A0CE3164\t\t\tRemainingBalanceReturned(rs1, ...\n      PUSH 1\t\t\trs1\n      PUSH 0\t\t\trs1\n      SWAP1 \t\t\trs1\n      SLOAD \t\t\trs1\n      SWAP1 \t\t\trs1\n      PUSH 100\t\t\trs1\n      EXP \t\t\trs1\n      SWAP1 \t\t\trs1\n      DIV \t\t\trs1\n      PUSH FFFFFFFFFFFFFFFFFFFFFFFFFFFFFFFFFFFFFFFF\t\t\trs1\n      AND \t\t\trs1\n      DUP3 \t\t\tremainingBalance\n      PUSH 40\t\t\tRemainingBalanceReturned(rs1, ...\n      MLOAD \t\t\tRemainingBalanceReturned(rs1, ...\n      PUSH [tag] 79\t\t\tRemainingBalanceReturned(rs1, ...\n      SWAP3 \t\t\tRemainingBalanceReturned(rs1, ...\n      SWAP2 \t\t\tRemainingBalanceReturned(rs1, ...\n      SWAP1 \t\t\tRemainingBalanceReturned(rs1, ...\n      PUSH [tag] 80\t\t\tRemainingBalanceReturned(rs1, ...\n      JUMP \t\t\tRemainingBalanceReturned(rs1, ...\n    tag 79\t\t\tRemainingBalanceReturned(rs1, ...\n      JUMPDEST \t\t\tRemainingBalanceReturned(rs1, ...\n      PUSH 40\t\t\tRemainingBalanceReturned(rs1, ...\n      MLOAD \t\t\tRemainingBalanceReturned(rs1, ...\n      DUP1 \t\t\tRemainingBalanceReturned(rs1, ...\n      SWAP2 \t\t\tRemainingBalanceReturned(rs1, ...\n      SUB \t\t\tRemainingBalanceReturned(rs1, ...\n      SWAP1 \t\t\tRemainingBalanceReturned(rs1, ...\n      LOG1 \t\t\tRemainingBalanceReturned(rs1, ...\n    tag 76\t\t\tif (remainingBalance > 0) {\\r\\...\n      JUMPDEST \t\t\tif (remainingBalance > 0) {\\r\\...\n      PUSH 40D8C854B6D5329FD5FCCAE04F5A931D7529963FBAB81ACED7337394E737CB4D\t\t\tFundsDistributed(rs2Share, rs3...\n      DUP4 \t\t\trs2Share\n      DUP4 \t\t\trs3Share\n      PUSH 40\t\t\tFundsDistributed(rs2Share, rs3...\n      MLOAD \t\t\tFundsDistributed(rs2Share, rs3...\n      PUSH [tag] 81\t\t\tFundsDistributed(rs2Share, rs3...\n      SWAP3 \t\t\tFundsDistributed(rs2Share, rs3...\n      SWAP2 \t\t\tFundsDistributed(rs2Share, rs3...\n      SWAP1 \t\t\tFundsDistributed(rs2Share, rs3...\n      PUSH [tag] 82\t\t\tFundsDistributed(rs2Share, rs3...\n      JUMP \t\t\tFundsDistributed(rs2Share, rs3...\n    tag 81\t\t\tFundsDistributed(rs2Share, rs3...\n      JUMPDEST \t\t\tFundsDistributed(rs2Share, rs3...\n      PUSH 40\t\t\tFundsDistributed(rs2Share, rs3...\n      MLOAD \t\t\tFundsDistributed(rs2Share, rs3...\n      DUP1 \t\t\tFundsDistributed(rs2Share, rs3...\n      SWAP2 \t\t\tFundsDistributed(rs2Share, rs3...\n      SUB \t\t\tFundsDistributed(rs2Share, rs3...\n      SWAP1 \t\t\tFundsDistributed(rs2Share, rs3...\n      LOG1 \t\t\tFundsDistributed(rs2Share, rs3...\n      POP \t\t\t{ // Using OpenZeppelin's nonR...\n      POP \t\t\t{ // Using OpenZeppelin's nonR...\n      POP \t\t\t{ // Using OpenZeppelin's nonR...\n      POP \t\t\t{ // Using OpenZeppelin's nonR...\n      PUSH [tag] 83\t\t\t\\n        fundsDistri\n      PUSH [tag] 84\t\t\t\\n        fundsDist\n      JUMP \t\t\t\\n        fundsDistri\n    tag 83\t\t\t\\n        fundsDistri\n      JUMPDEST \t\t\t\\n        fundsDistri\n      JUMP \t\t\tfunction distributeFunds() ext...\n    tag 17\t\t\taddress payable public rs3\n      JUMPDEST \t\t\taddress payable public rs3\n      PUSH 3\t\t\taddress payable public rs3\n      PUSH 0\t\t\taddress payable public rs3\n      SWAP1 \t\t\taddress payable public rs3\n      SLOAD \t\t\taddress payable public rs3\n      SWAP1 \t\t\taddress payable public rs3\n      PUSH 100\t\t\taddress payable public rs3\n      EXP \t\t\taddress payable public rs3\n      SWAP1 \t\t\taddress payable public rs3\n      DIV \t\t\taddress payable public rs3\n      PUSH FFFFFFFFFFFFFFFFFFFFFFFFFFFFFFFFFFFFFFFF\t\t\taddress payable public rs3\n      AND \t\t\taddress payable public rs3\n      DUP2 \t\t\taddress payable public rs3\n      JUMP \t\t\taddress payable public rs3\n    tag 22\t\t\tuint256 public ps\n      JUMPDEST \t\t\tuint256 public ps\n      PUSH 4\t\t\tuint256 public ps\n      SLOAD \t\t\tuint256 public ps\n      DUP2 \t\t\tuint256 public ps\n      JUMP \t\t\tuint256 public ps\n    tag 27\t\t\tbool public fundsDistributed\n      JUMPDEST \t\t\tbool public fundsDistributed\n      PUSH 5\t\t\tbool public fundsDistributed\n      PUSH 0\t\t\tbool public fundsDistributed\n      SWAP1 \t\t\tbool public fundsDistributed\n      SLOAD \t\t\tbool public fundsDistributed\n      SWAP1 \t\t\tbool public fundsDistributed\n      PUSH 100\t\t\tbool public fundsDistributed\n      EXP \t\t\tbool public fundsDistributed\n      SWAP1 \t\t\tbool public fundsDistributed\n      DIV \t\t\tbool public fundsDistributed\n      PUSH FF\t\t\tbool public fundsDistributed\n      AND \t\t\tbool public fundsDistributed\n      DUP2 \t\t\tbool public fundsDistributed\n      JUMP \t\t\tbool public fundsDistributed\n    tag 32\t\t\tfunction getContractBalance() ...\n      JUMPDEST \t\t\tfunction getContractBalance() ...\n      PUSH 0\t\t\tuint256\n      SELFBALANCE \t\t\taddress(this).balance\n      SWAP1 \t\t\treturn address(this).balance\n      POP \t\t\treturn address(this).balance\n      SWAP1 \t\t\tfunction getContractBalance() ...\n      JUMP \t\t\tfunction getContractBalance() ...\n    tag 36\t\t\tuint256 public constant MAX_RE...\n      JUMPDEST \t\t\tuint256 public constant MAX_RE...\n      PUSH 98A7D9B8314C0000\t\t\t11 ether\n      DUP2 \t\t\tuint256 public constant MAX_RE...\n      JUMP \t\t\tuint256 public constant MAX_RE...\n    tag 40\t\t\tfunction recoverStuckFunds() e...\n      JUMPDEST \t\t\tfunction recoverStuckFunds() e...\n      PUSH 1\t\t\trs1\n      PUSH 0\t\t\trs1\n      SWAP1 \t\t\trs1\n      SLOAD \t\t\trs1\n      SWAP1 \t\t\trs1\n      PUSH 100\t\t\trs1\n      EXP \t\t\trs1\n      SWAP1 \t\t\trs1\n      DIV \t\t\trs1\n      PUSH FFFFFFFFFFFFFFFFFFFFFFFFFFFFFFFFFFFFFFFF\t\t\trs1\n      AND \t\t\trs1\n      PUSH FFFFFFFFFFFFFFFFFFFFFFFFFFFFFFFFFFFFFFFF\t\t\tmsg.sender == rs1\n      AND \t\t\tmsg.sender == rs1\n      CALLER \t\t\tmsg.sender\n      PUSH FFFFFFFFFFFFFFFFFFFFFFFFFFFFFFFFFFFFFFFF\t\t\tmsg.sender == rs1\n      AND \t\t\tmsg.sender == rs1\n      EQ \t\t\tmsg.sender == rs1\n      PUSH [tag] 87\t\t\trequire(msg.sender == rs1, \"On...\n      JUMPI \t\t\trequire(msg.sender == rs1, \"On...\n      PUSH 40\t\t\trequire(msg.sender == rs1, \"On...\n      MLOAD \t\t\trequire(msg.sender == rs1, \"On...\n      PUSH 8C379A000000000000000000000000000000000000000000000000000000000\t\t\trequire(msg.sender == rs1, \"On...\n      DUP2 \t\t\trequire(msg.sender == rs1, \"On...\n      MSTORE \t\t\trequire(msg.sender == rs1, \"On...\n      PUSH 4\t\t\trequire(msg.sender == rs1, \"On...\n      ADD \t\t\trequire(msg.sender == rs1, \"On...\n      PUSH [tag] 88\t\t\trequire(msg.sender == rs1, \"On...\n      SWAP1 \t\t\trequire(msg.sender == rs1, \"On...\n      PUSH [tag] 54\t\t\trequire(msg.sender == rs1, \"On...\n      JUMP \t\t\trequire(msg.sender == rs1, \"On...\n    tag 88\t\t\trequire(msg.sender == rs1, \"On...\n      JUMPDEST \t\t\trequire(msg.sender == rs1, \"On...\n      PUSH 40\t\t\trequire(msg.sender == rs1, \"On...\n      MLOAD \t\t\trequire(msg.sender == rs1, \"On...\n      DUP1 \t\t\trequire(msg.sender == rs1, \"On...\n      SWAP2 \t\t\trequire(msg.sender == rs1, \"On...\n      SUB \t\t\trequire(msg.sender == rs1, \"On...\n      SWAP1 \t\t\trequire(msg.sender == rs1, \"On...\n      REVERT \t\t\trequire(msg.sender == rs1, \"On...\n    tag 87\t\t\trequire(msg.sender == rs1, \"On...\n      JUMPDEST \t\t\trequire(msg.sender == rs1, \"On...\n      PUSH 0\t\t\t0\n      SELFBALANCE \t\t\taddress(this).balance\n      GT \t\t\taddress(this).balance > 0\n      PUSH [tag] 90\t\t\trequire(address(this).balance ...\n      JUMPI \t\t\trequire(address(this).balance ...\n      PUSH 40\t\t\trequire(address(this).balance ...\n      MLOAD \t\t\trequire(address(this).balance ...\n      PUSH 8C379A000000000000000000000000000000000000000000000000000000000\t\t\trequire(address(this).balance ...\n      DUP2 \t\t\trequire(address(this).balance ...\n      MSTORE \t\t\trequire(address(this).balance ...\n      PUSH 4\t\t\trequire(address(this).balance ...\n      ADD \t\t\trequire(address(this).balance ...\n      PUSH [tag] 91\t\t\trequire(address(this).balance ...\n      SWAP1 \t\t\trequire(address(this).balance ...\n      PUSH [tag] 92\t\t\trequire(address(this).balance ...\n      JUMP \t\t\trequire(address(this).balance ...\n    tag 91\t\t\trequire(address(this).balance ...\n      JUMPDEST \t\t\trequire(address(this).balance ...\n      PUSH 40\t\t\trequire(address(this).balance ...\n      MLOAD \t\t\trequire(address(this).balance ...\n      DUP1 \t\t\trequire(address(this).balance ...\n      SWAP2 \t\t\trequire(address(this).balance ...\n      SUB \t\t\trequire(address(this).balance ...\n      SWAP1 \t\t\trequire(address(this).balance ...\n      REVERT \t\t\trequire(address(this).balance ...\n    tag 90\t\t\trequire(address(this).balance ...\n      JUMPDEST \t\t\trequire(address(this).balance ...\n      PUSH 1\t\t\trs1\n      PUSH 0\t\t\trs1\n      SWAP1 \t\t\trs1\n      SLOAD \t\t\trs1\n      SWAP1 \t\t\trs1\n      PUSH 100\t\t\trs1\n      EXP \t\t\trs1\n      SWAP1 \t\t\trs1\n      DIV \t\t\trs1\n      PUSH FFFFFFFFFFFFFFFFFFFFFFFFFFFFFFFFFFFFFFFF\t\t\trs1\n      AND \t\t\trs1\n      PUSH FFFFFFFFFFFFFFFFFFFFFFFFFFFFFFFFFFFFFFFF\t\t\trs1.transfer\n      AND \t\t\trs1.transfer\n      PUSH 8FC\t\t\trs1.transfer(address(this).bal...\n      SELFBALANCE \t\t\taddress(this).balance\n      SWAP1 \t\t\trs1.transfer(address(this).bal...\n      DUP2 \t\t\trs1.transfer(address(this).bal...\n      ISZERO \t\t\trs1.transfer(address(this).bal...\n      MUL \t\t\trs1.transfer(address(this).bal...\n      SWAP1 \t\t\trs1.transfer(address(this).bal...\n      PUSH 40\t\t\trs1.transfer(address(this).bal...\n      MLOAD \t\t\trs1.transfer(address(this).bal...\n      PUSH 0\t\t\trs1.transfer(address(this).bal...\n      PUSH 40\t\t\trs1.transfer(address(this).bal...\n      MLOAD \t\t\trs1.transfer(address(this).bal...\n      DUP1 \t\t\trs1.transfer(address(this).bal...\n      DUP4 \t\t\trs1.transfer(address(this).bal...\n      SUB \t\t\trs1.transfer(address(this).bal...\n      DUP2 \t\t\trs1.transfer(address(this).bal...\n      DUP6 \t\t\trs1.transfer(address(this).bal...\n      DUP9 \t\t\trs1.transfer(address(this).bal...\n      DUP9 \t\t\trs1.transfer(address(this).bal...\n      CALL \t\t\trs1.transfer(address(this).bal...\n      SWAP4 \t\t\trs1.transfer(address(this).bal...\n      POP \t\t\trs1.transfer(address(this).bal...\n      POP \t\t\trs1.transfer(address(this).bal...\n      POP \t\t\trs1.transfer(address(this).bal...\n      POP \t\t\trs1.transfer(address(this).bal...\n      ISZERO \t\t\trs1.transfer(address(this).bal...\n      DUP1 \t\t\trs1.transfer(address(this).bal...\n      ISZERO \t\t\trs1.transfer(address(this).bal...\n      PUSH [tag] 94\t\t\trs1.transfer(address(this).bal...\n      JUMPI \t\t\trs1.transfer(address(this).bal...\n      RETURNDATASIZE \t\t\trs1.transfer(address(this).bal...\n      PUSH 0\t\t\trs1.transfer(address(this).bal...\n      DUP1 \t\t\trs1.transfer(address(this).bal...\n      RETURNDATACOPY \t\t\trs1.transfer(address(this).bal...\n      RETURNDATASIZE \t\t\trs1.transfer(address(this).bal...\n      PUSH 0\t\t\trs1.transfer(address(this).bal...\n      REVERT \t\t\trs1.transfer(address(this).bal...\n    tag 94\t\t\trs1.transfer(address(this).bal...\n      JUMPDEST \t\t\trs1.transfer(address(this).bal...\n      POP \t\t\trs1.transfer(address(this).bal...\n      JUMP \t\t\tfunction recoverStuckFunds() e...\n    tag 42\t\t\tfunction fundContract() extern...\n      JUMPDEST \t\t\tfunction fundContract() extern...\n      PUSH 0\t\t\t0\n      CALLVALUE \t\t\tmsg.value\n      GT \t\t\tmsg.value > 0\n      DUP1 \t\t\tmsg.value > 0 && msg.value <= ...\n      ISZERO \t\t\tmsg.value > 0 && msg.value <= ...\n      PUSH [tag] 96\t\t\tmsg.value > 0 && msg.value <= ...\n      JUMPI \t\t\tmsg.value > 0 && msg.value <= ...\n      POP \t\t\tmsg.value > 0 && msg.value <= ...\n      PUSH 98A7D9B8314C0000\t\t\t11 ether\n      CALLVALUE \t\t\tmsg.value\n      GT \t\t\tmsg.value <= MAX_RECEIVE_AMOUN...\n      ISZERO \t\t\tmsg.value <= MAX_RECEIVE_AMOUN...\n    tag 96\t\t\tmsg.value > 0 && msg.value <= ...\n      JUMPDEST \t\t\tmsg.value > 0 && msg.value <= ...\n      PUSH [tag] 97\t\t\trequire(msg.value > 0 && msg.v...\n      JUMPI \t\t\trequire(msg.value > 0 && msg.v...\n      PUSH 40\t\t\trequire(msg.value > 0 && msg.v...\n      MLOAD \t\t\trequire(msg.value > 0 && msg.v...\n      PUSH 8C379A000000000000000000000000000000000000000000000000000000000\t\t\trequire(msg.value > 0 && msg.v...\n      DUP2 \t\t\trequire(msg.value > 0 && msg.v...\n      MSTORE \t\t\trequire(msg.value > 0 && msg.v...\n      PUSH 4\t\t\trequire(msg.value > 0 && msg.v...\n      ADD \t\t\trequire(msg.value > 0 && msg.v...\n      PUSH [tag] 98\t\t\trequire(msg.value > 0 && msg.v...\n      SWAP1 \t\t\trequire(msg.value > 0 && msg.v...\n      PUSH [tag] 99\t\t\trequire(msg.value > 0 && msg.v...\n      JUMP \t\t\trequire(msg.value > 0 && msg.v...\n    tag 98\t\t\trequire(msg.value > 0 && msg.v...\n      JUMPDEST \t\t\trequire(msg.value > 0 && msg.v...\n      PUSH 40\t\t\trequire(msg.value > 0 && msg.v...\n      MLOAD \t\t\trequire(msg.value > 0 && msg.v...\n      DUP1 \t\t\trequire(msg.value > 0 && msg.v...\n      SWAP2 \t\t\trequire(msg.value > 0 && msg.v...\n      SUB \t\t\trequire(msg.value > 0 && msg.v...\n      SWAP1 \t\t\trequire(msg.value > 0 && msg.v...\n      REVERT \t\t\trequire(msg.value > 0 && msg.v...\n    tag 97\t\t\trequire(msg.value > 0 && msg.v...\n      JUMPDEST \t\t\trequire(msg.value > 0 && msg.v...\n      PUSH 939F6F4877FAF071412E527BC4C6D0BD65AD077E52B57334F7765265647A7F1\t\t\tContractFunded(msg.sender, msg...\n      CALLER \t\t\tmsg.sender\n      CALLVALUE \t\t\tmsg.value\n      PUSH 40\t\t\tContractFunded(msg.sender, msg...\n      MLOAD \t\t\tContractFunded(msg.sender, msg...\n      PUSH [tag] 100\t\t\tContractFunded(msg.sender, msg...\n      SWAP3 \t\t\tContractFunded(msg.sender, msg...\n      SWAP2 \t\t\tContractFunded(msg.sender, msg...\n      SWAP1 \t\t\tContractFunded(msg.sender, msg...\n      PUSH [tag] 101\t\t\tContractFunded(msg.sender, msg...\n      JUMP \t\t\tContractFunded(msg.sender, msg...\n    tag 100\t\t\tContractFunded(msg.sender, msg...\n      JUMPDEST \t\t\tContractFunded(msg.sender, msg...\n      PUSH 40\t\t\tContractFunded(msg.sender, msg...\n      MLOAD \t\t\tContractFunded(msg.sender, msg...\n      DUP1 \t\t\tContractFunded(msg.sender, msg...\n      SWAP2 \t\t\tContractFunded(msg.sender, msg...\n      SUB \t\t\tContractFunded(msg.sender, msg...\n      SWAP1 \t\t\tContractFunded(msg.sender, msg...\n      LOG1 \t\t\tContractFunded(msg.sender, msg...\n      JUMP \t\t\tfunction fundContract() extern...\n    tag 45\t\t\taddress payable public rs2\n      JUMPDEST \t\t\taddress payable public rs2\n      PUSH 2\t\t\taddress payable public rs2\n      PUSH 0\t\t\taddress payable public rs2\n      SWAP1 \t\t\taddress payable public rs2\n      SLOAD \t\t\taddress payable public rs2\n      SWAP1 \t\t\taddress payable public rs2\n      PUSH 100\t\t\taddress payable public rs2\n      EXP \t\t\taddress payable public rs2\n      SWAP1 \t\t\taddress payable public rs2\n      DIV \t\t\taddress payable public rs2\n      PUSH FFFFFFFFFFFFFFFFFFFFFFFFFFFFFFFFFFFFFFFF\t\t\taddress payable public rs2\n      AND \t\t\taddress payable public rs2\n      DUP2 \t\t\taddress payable public rs2\n      JUMP \t\t\taddress payable public rs2\n    tag 49\t\t\taddress payable public rs1\n      JUMPDEST \t\t\taddress payable public rs1\n      PUSH 1\t\t\taddress payable public rs1\n      PUSH 0\t\t\taddress payable public rs1\n      SWAP1 \t\t\taddress payable public rs1\n      SLOAD \t\t\taddress payable public rs1\n      SWAP1 \t\t\taddress payable public rs1\n      PUSH 100\t\t\taddress payable public rs1\n      EXP \t\t\taddress payable public rs1\n      SWAP1 \t\t\taddress payable public rs1\n      DIV \t\t\taddress payable public rs1\n      PUSH FFFFFFFFFFFFFFFFFFFFFFFFFFFFFFFFFFFFFFFF\t\t\taddress payable public rs1\n      AND \t\t\taddress payable public rs1\n      DUP2 \t\t\taddress payable public rs1\n      JUMP \t\t\taddress payable public rs1\n    tag 61\t\t\t\\r\\n\\r\\n        // Transfer fu...\n      JUMPDEST \t\t\t\\r\\n\\r\\n        // Transfer fu...\n      PUSH 2\t\t\to\n      PUSH 0\t\t\t back t\n      SLOAD \t\t\t back t\n      SUB \t\t\t back to rs1 - hand\n      PUSH [tag] 103\t\t\t balance back to rs1 - handles...\n      JUMPI \t\t\t balance back to rs1 - handles...\n      PUSH 40\t\t\t balance back to rs1 - handles...\n      MLOAD \t\t\t balance back to rs1 - handles...\n      PUSH 8C379A000000000000000000000000000000000000000000000000000000000\t\t\t balance back to rs1 - handles...\n      DUP2 \t\t\t balance back to rs1 - handles...\n      MSTORE \t\t\t balance back to rs1 - handles...\n      PUSH 4\t\t\t balance back to rs1 - handles...\n      ADD \t\t\t balance back to rs1 - handles...\n      PUSH [tag] 104\t\t\t balance back to rs1 - handles...\n      SWAP1 \t\t\t balance back to rs1 - handles...\n      PUSH [tag] 105\t\t\t balance back to rs1 - handles...\n      JUMP \t\t\t balance back to rs1 - handles...\n    tag 104\t\t\t balance back to rs1 - handles...\n      JUMPDEST \t\t\t balance back to rs1 - handles...\n      PUSH 40\t\t\t balance back to rs1 - handles...\n      MLOAD \t\t\t balance back to rs1 - handles...\n      DUP1 \t\t\t balance back to rs1 - handles...\n      SWAP2 \t\t\t balance back to rs1 - handles...\n      SUB \t\t\t balance back to rs1 - handles...\n      SWAP1 \t\t\t balance back to rs1 - handles...\n      REVERT \t\t\t balance back to rs1 - handles...\n    tag 103\t\t\t balance back to rs1 - handles...\n      JUMPDEST \t\t\t balance back to rs1 - handles...\n      PUSH 2\t\t\to\n      PUSH 0\t\t\t;\\r\\n    \n      DUP2 \t\t\t;\\r\\n        if (rem\n      SWAP1 \t\t\t;\\r\\n        if (rem\n      SSTORE \t\t\t;\\r\\n        if (rem\n      POP \t\t\t;\\r\\n        if (rem\n      JUMP \t\t\t\\r\\n\\r\\n        // Transfer fu...\n    tag 84\t\t\t > 0) {\\r\\n            rs1.tra...\n      JUMPDEST \t\t\t > 0) {\\r\\n            rs1.tra...\n      PUSH 1\t\t\t_\n      PUSH 0\t\t\t   }\\r\\n\\r\n      DUP2 \t\t\t   }\\r\\n\\r\\n        emit F\n      SWAP1 \t\t\t   }\\r\\n\\r\\n        emit F\n      SSTORE \t\t\t   }\\r\\n\\r\\n        emit F\n      POP \t\t\t   }\\r\\n\\r\\n        emit F\n      JUMP \t\t\t > 0) {\\r\\n            rs1.tra...\n    tag 107\t\t\t-License-Identifier: MIT\\r\\npr...\n      JUMPDEST \t\t\t-License-Identifier: MIT\\r\\npr...\n      PUSH 0\t\t\tdity ^0\n      PUSH FFFFFFFFFFFFFFFFFFFFFFFFFFFFFFFFFFFFFFFF\t\t\tontracts/security/ReentrancyGu...\n      DUP3 \t\t\tpelin\n      AND \t\t\tnzeppelin/contracts/security/R...\n      SWAP1 \t\t\tmport \"@openzeppelin/contracts...\n      POP \t\t\tmport \"@openzeppelin/contracts...\n      SWAP2 \t\t\t-License-Identifier: MIT\\r\\npr...\n      SWAP1 \t\t\t-License-Identifier: MIT\\r\\npr...\n      POP \t\t\t-License-Identifier: MIT\\r\\npr...\n      JUMP \t\t\t-License-Identifier: MIT\\r\\npr...\n    tag 108\t\t\tentrancyGuard for additional s...\n      JUMPDEST \t\t\tentrancyGuard for additional s...\n      PUSH 0\t\t\tract Re\n      PUSH [tag] 139\t\t\ts ReentrancyGuard {\\r\\n   \n      DUP3 \t\t\t{\\r\\n  \n      PUSH [tag] 107\t\t\ts ReentrancyGuard {\\r\\n   \n      JUMP \t\t\ts ReentrancyGuard {\\r\\n   \n    tag 139\t\t\ts ReentrancyGuard {\\r\\n   \n      JUMPDEST \t\t\ts ReentrancyGuard {\\r\\n   \n      SWAP1 \t\t\tgContract is ReentrancyGuard {...\n      POP \t\t\tgContract is ReentrancyGuard {...\n      SWAP2 \t\t\tentrancyGuard for additional s...\n      SWAP1 \t\t\tentrancyGuard for additional s...\n      POP \t\t\tentrancyGuard for additional s...\n      JUMP \t\t\tentrancyGuard for additional s...\n    tag 109\t\t\ts\\r\\n    address payable publi...\n      JUMPDEST \t\t\ts\\r\\n    address payable publi...\n      PUSH [tag] 141\t\t\t   uint256 public ps;\\r\\n    b...\n      DUP2 \t\t\t bool\n      PUSH [tag] 108\t\t\t   uint256 public ps;\\r\\n    b...\n      JUMP \t\t\t   uint256 public ps;\\r\\n    b...\n    tag 141\t\t\t   uint256 public ps;\\r\\n    b...\n      JUMPDEST \t\t\t   uint256 public ps;\\r\\n    b...\n      DUP3 \t\t\t3;\\r\n      MSTORE \t\t\tblic rs3;\\r\\n    uint256 publi...\n      POP \t\t\ts\\r\\n    address payable publi...\n      POP \t\t\ts\\r\\n    address payable publi...\n      JUMP \t\t\ts\\r\\n    address payable publi...\n    tag 19\t\t\tistributed;\\r\\n    uint256 pub...\n      JUMPDEST \t\t\tistributed;\\r\\n    uint256 pub...\n      PUSH 0\t\t\tribu\n      PUSH 20\t\t\tha\n      DUP3 \t\t\tint256 rs\n      ADD \t\t\te, uint256 rs3Shar\n      SWAP1 \t\t\t rs2Share, uint256 rs3Shar\n      POP \t\t\t rs2Share, uint256 rs3Shar\n      PUSH [tag] 143\t\t\tvent ContractFunded(address se...\n      PUSH 0\t\t\tr\n      DUP4 \t\t\tBalanceRe\n      ADD \t\t\tningBalanceReturn\n      DUP5 \t\t\tent Re\n      PUSH [tag] 109\t\t\tvent ContractFunded(address se...\n      JUMP \t\t\tvent ContractFunded(address se...\n    tag 143\t\t\tvent ContractFunded(address se...\n      JUMPDEST \t\t\tvent ContractFunded(address se...\n      SWAP3 \t\t\tistributed;\\r\\n    uint256 pub...\n      SWAP2 \t\t\tistributed;\\r\\n    uint256 pub...\n      POP \t\t\tistributed;\\r\\n    uint256 pub...\n      POP \t\t\tistributed;\\r\\n    uint256 pub...\n      JUMP \t\t\tistributed;\\r\\n    uint256 pub...\n    tag 110\t\t\tipient, uint256 amount);\\r\\n\\r...\n      JUMPDEST \t\t\tipient, uint256 amount);\\r\\n\\r...\n      PUSH 0\t\t\tnstruct\n      DUP2 \t\t\tdress\n      SWAP1 \t\t\tstructor(address\n      POP \t\t\tstructor(address\n      SWAP2 \t\t\tipient, uint256 amount);\\r\\n\\r...\n      SWAP1 \t\t\tipient, uint256 amount);\\r\\n\\r...\n      POP \t\t\tipient, uint256 amount);\\r\\n\\r...\n      JUMP \t\t\tipient, uint256 amount);\\r\\n\\r...\n    tag 111\t\t\t2, address payable _rs3, uint2...\n      JUMPDEST \t\t\t2, address payable _rs3, uint2...\n      PUSH [tag] 146\t\t\t_rs3 != address(0), \"Inv\n      DUP2 \t\t\t, \"In\n      PUSH [tag] 110\t\t\t_rs3 != address(0), \"Inv\n      JUMP \t\t\t_rs3 != address(0), \"Inv\n    tag 146\t\t\t_rs3 != address(0), \"Inv\n      JUMPDEST \t\t\t_rs3 != address(0), \"Inv\n      DUP3 \t\t\t) &\n      MSTORE \t\t\tdress(0) && _rs3 != address(0)...\n      POP \t\t\t2, address payable _rs3, uint2...\n      POP \t\t\t2, address payable _rs3, uint2...\n      JUMP \t\t\t2, address payable _rs3, uint2...\n    tag 24\t\t\tant addresses.\");\\r\\n        r...\n      JUMPDEST \t\t\tant addresses.\");\\r\\n        r...\n      PUSH 0\t\t\t 1 a\n      PUSH 20\t\t\te(\n      DUP3 \t\t\ts1 = paya\n      ADD \t\t\t   rs1 = payable(m\n      SWAP1 \t\t\t\\n\\r\\n        rs1 = payable(m\n      POP \t\t\t\\n\\r\\n        rs1 = payable(m\n      PUSH [tag] 148\t\t\t;\\r\\n        rs2 = _rs2;\\r\\n  ...\n      PUSH 0\t\t\t}\n      DUP4 \t\t\t _ps;\\r\\n  \n      ADD \t\t\tps = _ps;\\r\\n    }\\r\n      DUP5 \t\t\t\\n     \n      PUSH [tag] 111\t\t\t;\\r\\n        rs2 = _rs2;\\r\\n  ...\n      JUMP \t\t\t;\\r\\n        rs2 = _rs2;\\r\\n  ...\n    tag 148\t\t\t;\\r\\n        rs2 = _rs2;\\r\\n  ...\n      JUMPDEST \t\t\t;\\r\\n        rs2 = _rs2;\\r\\n  ...\n      SWAP3 \t\t\tant addresses.\");\\r\\n        r...\n      SWAP2 \t\t\tant addresses.\");\\r\\n        r...\n      POP \t\t\tant addresses.\");\\r\\n        r...\n      POP \t\t\tant addresses.\");\\r\\n        r...\n      JUMP \t\t\tant addresses.\");\\r\\n        r...\n    tag 112\t\t\tfier to ensure only the contra...\n      JUMPDEST \t\t\tfier to ensure only the contra...\n      PUSH 0\t\t\twner ca\n      DUP2 \t\t\tier o\n      ISZERO \t\t\t  modifier on\n      ISZERO \t\t\tons\\r\\n    modifier onl\n      SWAP1 \t\t\tertain actions\\r\\n    modifier...\n      POP \t\t\tertain actions\\r\\n    modifier...\n      SWAP2 \t\t\tfier to ensure only the contra...\n      SWAP1 \t\t\tfier to ensure only the contra...\n      POP \t\t\tfier to ensure only the contra...\n      JUMP \t\t\tfier to ensure only the contra...\n    tag 113\t\t\t        require(msg.sender == ...\n      JUMPDEST \t\t\t        require(msg.sender == ...\n      PUSH [tag] 151\t\t\ton.\");\\r\\n        _;\\r\\n \n      DUP2 \t\t\t _;\\r\\n\n      PUSH [tag] 112\t\t\ton.\");\\r\\n        _;\\r\\n \n      JUMP \t\t\ton.\");\\r\\n        _;\\r\\n \n    tag 151\t\t\ton.\");\\r\\n        _;\\r\\n \n      JUMPDEST \t\t\ton.\");\\r\\n        _;\\r\\n \n      DUP3 \t\t\t ac\n      MSTORE \t\t\trm this action.\");\\r\\n        ...\n      POP \t\t\t        require(msg.sender == ...\n      POP \t\t\t        require(msg.sender == ...\n      JUMP \t\t\t        require(msg.sender == ...\n    tag 29\t\t\t/ Modifier to ensure funds are...\n      JUMPDEST \t\t\t/ Modifier to ensure funds are...\n      PUSH 0\t\t\ttrib\n      PUSH 20\t\t\tst\n      DUP3 \t\t\tre(!funds\n      ADD \t\t\tequire(!fundsDistr\n      SWAP1 \t\t\t       require(!fundsDistr\n      POP \t\t\t       require(!fundsDistr\n      PUSH [tag] 153\t\t\tunds have already been distrib...\n      PUSH 0\t\t\t \n      DUP4 \t\t\t\\n    }\\r\\n\\r\n      ADD \t\t\t _;\\r\\n    }\\r\\n\\r\\n   \n      DUP5 \t\t\t\\r\\n    \n      PUSH [tag] 113\t\t\tunds have already been distrib...\n      JUMP \t\t\tunds have already been distrib...\n    tag 153\t\t\tunds have already been distrib...\n      JUMPDEST \t\t\tunds have already been distrib...\n      SWAP3 \t\t\t/ Modifier to ensure funds are...\n      SWAP2 \t\t\t/ Modifier to ensure funds are...\n      POP \t\t\t/ Modifier to ensure funds are...\n      POP \t\t\t/ Modifier to ensure funds are...\n      JUMP \t\t\t/ Modifier to ensure funds are...\n    tag 114\t\t\tunding function, optimized by ...\n      JUMPDEST \t\t\tunding function, optimized by ...\n      PUSH 0\t\t\tance()\\r\\n   \n      DUP3 \t\t\t) exte\n      DUP3 \t\t\trac\n      MSTORE \t\t\tundContract() exter\n      PUSH 20\t\t\tg.va\n      DUP3 \t\t\tre(\n      ADD \t\t\tequire(msg.val\n      SWAP1 \t\t\tle {\\r\\n        require(msg.va...\n      POP \t\t\tle {\\r\\n        require(msg.va...\n      SWAP3 \t\t\tunding function, optimized by ...\n      SWAP2 \t\t\tunding function, optimized by ...\n      POP \t\t\tunding function, optimized by ...\n      POP \t\t\tunding function, optimized by ...\n      JUMP \t\t\tunding function, optimized by ...\n    tag 115\t\t\tg.value <= MAX_RECEIVE_AMOUNT,...\n      JUMPDEST \t\t\tg.value <= MAX_RECEIVE_AMOUNT,...\n      PUSH 4F6E6C792074686520636F6E7472616374206F776E65722063616E2070657266\t\t\tting event to track funding\\r\\...\n      PUSH 0\t\t\tE\n      DUP3 \t\t\tue); /\n      ADD \t\t\t.value); // Em\n      MSTORE \t\t\ter, msg.value); // Emitting ev...\n      PUSH 6F726D207468697320616374696F6E2E00000000000000000000000000000000\t\t\tn\\r\\n    function di\n      PUSH 20\t\t\tnc\n      DUP3 \t\t\tfunds \n      ADD \t\t\tute funds funct\n      MSTORE \t\t\tDistribute funds function\\r\\n ...\n      POP \t\t\tg.value <= MAX_RECEIVE_AMOUNT,...\n      JUMP \t\t\tg.value <= MAX_RECEIVE_AMOUNT,...\n    tag 116\t\t\t) external payable onlyOwner f...\n      JUMPDEST \t\t\t) external payable onlyOwner f...\n      PUSH 0\t\t\tala\n      PUSH [tag] 157\t\t\t available to distribute.\");\\r...\n      PUSH 30\t\t\t= \n      DUP4 \t\t\tanc\n      PUSH [tag] 114\t\t\t available to distribute.\");\\r...\n      JUMP \t\t\t available to distribute.\");\\r...\n    tag 157\t\t\t available to distribute.\");\\r...\n      JUMPDEST \t\t\t available to distribute.\");\\r...\n      SWAP2 \t\t\to funds available to distribut...\n      POP \t\t\to funds available to distribut...\n      PUSH [tag] 158\t\t\tis).balance;\\r\\n        uint25...\n      DUP3 \t\t\ts3S\n      PUSH [tag] 115\t\t\tis).balance;\\r\\n        uint25...\n      JUMP \t\t\tis).balance;\\r\\n        uint25...\n    tag 158\t\t\tis).balance;\\r\\n        uint25...\n      JUMPDEST \t\t\tis).balance;\\r\\n        uint25...\n      PUSH 40\t\t\ts2\n      DUP3 \t\t\te -\n      ADD \t\t\tlance - rs2S\n      SWAP1 \t\t\ttractBalance - rs2S\n      POP \t\t\ttractBalance - rs2S\n      SWAP2 \t\t\t) external payable onlyOwner f...\n      SWAP1 \t\t\t) external payable onlyOwner f...\n      POP \t\t\t) external payable onlyOwner f...\n      JUMP \t\t\t) external payable onlyOwner f...\n    tag 54\t\t\t     fundsDistributed = true;\\...\n      JUMPDEST \t\t\t     fundsDistributed = true;\\...\n      PUSH 0\t\t\t to \n      PUSH 20\t\t\tet\n      DUP3 \t\t\terrors by\n      ADD \t\t\ting errors by retu\n      SWAP1 \t\t\tes rounding errors by retu\n      POP \t\t\tes rounding errors by retu\n      DUP2 \t\t\tmainingBa\n      DUP2 \t\t\t256 \n      SUB \t\t\tuint256 remainingBal\n      PUSH 0\t\t\t \n      DUP4 \t\t\tlance\\r\\n  \n      ADD \t\t\tr balance\\r\\n      \n      MSTORE \t\t\tleftover balance\\r\\n        ui...\n      PUSH [tag] 160\t\t\ts).balance;\\r\\n        if (rem...\n      DUP2 \t\t\tceRe\n      PUSH [tag] 116\t\t\ts).balance;\\r\\n        if (rem...\n      JUMP \t\t\ts).balance;\\r\\n        if (rem...\n    tag 160\t\t\ts).balance;\\r\\n        if (rem...\n      JUMPDEST \t\t\ts).balance;\\r\\n        if (rem...\n      SWAP1 \t\t\tress(this).balance;\\r\\n       ...\n      POP \t\t\tress(this).balance;\\r\\n       ...\n      SWAP2 \t\t\t     fundsDistributed = true;\\...\n      SWAP1 \t\t\t     fundsDistributed = true;\\...\n      POP \t\t\t     fundsDistributed = true;\\...\n      JUMP \t\t\t     fundsDistributed = true;\\...\n    tag 117\t\t\tmainingBalance); // Emitting e...\n      JUMPDEST \t\t\tmainingBalance); // Emitting e...\n      PUSH 46756E6473206861766520616C7265616479206265656E206469737472696275\t\t\tmitting event to track distrib...\n      PUSH 0\t\t\t/\n      DUP3 \t\t\tShare)\n      ADD \t\t\t rs3Share); //\n      MSTORE \t\t\t2Share, rs3Share); // Emitting...\n      PUSH 7465642E00000000000000000000000000000000000000000000000000000000\t\t\tk the \n      PUSH 20\t\t\t c\n      DUP3 \t\t\tction \n      ADD \t\t\t Function to ch\n      MSTORE \t\t\t\\n    // Function to check the...\n      POP \t\t\tmainingBalance); // Emitting e...\n      JUMP \t\t\tmainingBalance); // Emitting e...\n    tag 118\t\t\t contract\\r\\n    function getC...\n      JUMPDEST \t\t\t contract\\r\\n    function getC...\n      PUSH 0\t\t\tk f\n      PUSH [tag] 163\t\t\twner to recover any stuck fund...\n      PUSH 24\t\t\t) \n      DUP4 \t\t\tund\n      PUSH [tag] 114\t\t\twner to recover any stuck fund...\n      JUMP \t\t\twner to recover any stuck fund...\n    tag 163\t\t\twner to recover any stuck fund...\n      JUMPDEST \t\t\twner to recover any stuck fund...\n      SWAP2 \t\t\tallow owner to recover any stu...\n      POP \t\t\tallow owner to recover any stu...\n      PUSH [tag] 164\t\t\tnlyOwner {\\r\\n        require(...\n      DUP3 \t\t\trs1\n      PUSH [tag] 117\t\t\tnlyOwner {\\r\\n        require(...\n      JUMP \t\t\tnlyOwner {\\r\\n        require(...\n    tag 164\t\t\tnlyOwner {\\r\\n        require(...\n      JUMPDEST \t\t\tnlyOwner {\\r\\n        require(...\n      PUSH 40\t\t\tla\n      DUP3 \t\t\ts).\n      ADD \t\t\t(this).balan\n      SWAP1 \t\t\taddress(this).balan\n      POP \t\t\taddress(this).balan\n      SWAP2 \t\t\t contract\\r\\n    function getC...\n      SWAP1 \t\t\t contract\\r\\n    function getC...\n      POP \t\t\t contract\\r\\n    function getC...\n      JUMP \t\t\t contract\\r\\n    function getC...\n    tag 58\t\t\t\\n}\\r\\n\n      JUMPDEST \t\t\t\\n}\\r\\n\n      PUSH 0\t\t\t\n      PUSH 20\t\t\t\n      DUP3 \t\t\t\n      ADD \t\t\t\n      SWAP1 \t\t\t\n      POP \t\t\t\n      DUP2 \t\t\t\n      DUP2 \t\t\t\n      SUB \t\t\t\n      PUSH 0\t\t\t\n      DUP4 \t\t\t\n      ADD \t\t\t\n      MSTORE \t\t\t\n      PUSH [tag] 166\t\t\t\n      DUP2 \t\t\t\n      PUSH [tag] 118\t\t\t\n      JUMP \t\t\t\n    tag 166\t\t\t\n      JUMPDEST \t\t\t\n      SWAP1 \t\t\t\n      POP \t\t\t\n      SWAP2 \t\t\t\\n}\\r\\n\n      SWAP1 \t\t\t\\n}\\r\\n\n      POP \t\t\t\\n}\\r\\n\n      JUMP \t\t\t\\n}\\r\\n\n    tag 119\t\t\t\n      JUMPDEST \t\t\t\n      PUSH 4E6F2066756E647320617661696C61626C6520746F2064697374726962757465\t\t\t\n      PUSH 0\t\t\t\n      DUP3 \t\t\t\n      ADD \t\t\t\n      MSTORE \t\t\t\n      PUSH 2E00000000000000000000000000000000000000000000000000000000000000\t\t\t\n      PUSH 20\t\t\t\n      DUP3 \t\t\t\n      ADD \t\t\t\n      MSTORE \t\t\t\n      POP \t\t\t\n      JUMP \t\t\t\n    tag 120\t\t\t\n      JUMPDEST \t\t\t\n      PUSH 0\t\t\t\n      PUSH [tag] 169\t\t\t\n      PUSH 21\t\t\t\n      DUP4 \t\t\t\n      PUSH [tag] 114\t\t\t\n      JUMP \t\t\t\n    tag 169\t\t\t\n      JUMPDEST \t\t\t\n      SWAP2 \t\t\t\n      POP \t\t\t\n      PUSH [tag] 170\t\t\t\n      DUP3 \t\t\t\n      PUSH [tag] 119\t\t\t\n      JUMP \t\t\t\n    tag 170\t\t\t\n      JUMPDEST \t\t\t\n      PUSH 40\t\t\t\n      DUP3 \t\t\t\n      ADD \t\t\t\n      SWAP1 \t\t\t\n      POP \t\t\t\n      SWAP2 \t\t\t\n      SWAP1 \t\t\t\n      POP \t\t\t\n      JUMP \t\t\t\n    tag 65\t\t\t\n      JUMPDEST \t\t\t\n      PUSH 0\t\t\t\n      PUSH 20\t\t\t\n      DUP3 \t\t\t\n      ADD \t\t\t\n      SWAP1 \t\t\t\n      POP \t\t\t\n      DUP2 \t\t\t\n      DUP2 \t\t\t\n      SUB \t\t\t\n      PUSH 0\t\t\t\n      DUP4 \t\t\t\n      ADD \t\t\t\n      MSTORE \t\t\t\n      PUSH [tag] 172\t\t\t\n      DUP2 \t\t\t\n      PUSH [tag] 120\t\t\t\n      JUMP \t\t\t\n    tag 172\t\t\t\n      JUMPDEST \t\t\t\n      SWAP1 \t\t\t\n      POP \t\t\t\n      SWAP2 \t\t\t\n      SWAP1 \t\t\t\n      POP \t\t\t\n      JUMP \t\t\t\n    tag 121\t\t\t\n      JUMPDEST \t\t\t\n      PUSH 4E487B7100000000000000000000000000000000000000000000000000000000\t\t\t\n      PUSH 0\t\t\t\n      MSTORE \t\t\t\n      PUSH 11\t\t\t\n      PUSH 4\t\t\t\n      MSTORE \t\t\t\n      PUSH 24\t\t\t\n      PUSH 0\t\t\t\n      REVERT \t\t\t\n    tag 67\t\t\t\n      JUMPDEST \t\t\t\n      PUSH 0\t\t\t\n      PUSH [tag] 175\t\t\t\n      DUP3 \t\t\t\n      PUSH [tag] 110\t\t\t\n      JUMP \t\t\t\n    tag 175\t\t\t\n      JUMPDEST \t\t\t\n      SWAP2 \t\t\t\n      POP \t\t\t\n      PUSH [tag] 176\t\t\t\n      DUP4 \t\t\t\n      PUSH [tag] 110\t\t\t\n      JUMP \t\t\t\n    tag 176\t\t\t\n      JUMPDEST \t\t\t\n      SWAP3 \t\t\t\n      POP \t\t\t\n      DUP3 \t\t\t\n      DUP3 \t\t\t\n      MUL \t\t\t\n      PUSH [tag] 177\t\t\t\n      DUP2 \t\t\t\n      PUSH [tag] 110\t\t\t\n      JUMP \t\t\t\n    tag 177\t\t\t\n      JUMPDEST \t\t\t\n      SWAP2 \t\t\t\n      POP \t\t\t\n      DUP3 \t\t\t\n      DUP3 \t\t\t\n      DIV \t\t\t\n      DUP5 \t\t\t\n      EQ \t\t\t\n      DUP4 \t\t\t\n      ISZERO \t\t\t\n      OR \t\t\t\n      PUSH [tag] 178\t\t\t\n      JUMPI \t\t\t\n      PUSH [tag] 179\t\t\t\n      PUSH [tag] 121\t\t\t\n      JUMP \t\t\t\n    tag 179\t\t\t\n      JUMPDEST \t\t\t\n    tag 178\t\t\t\n      JUMPDEST \t\t\t\n      POP \t\t\t\n      SWAP3 \t\t\t\n      SWAP2 \t\t\t\n      POP \t\t\t\n      POP \t\t\t\n      JUMP \t\t\t\n    tag 122\t\t\t\n      JUMPDEST \t\t\t\n      PUSH 4E487B7100000000000000000000000000000000000000000000000000000000\t\t\t\n      PUSH 0\t\t\t\n      MSTORE \t\t\t\n      PUSH 12\t\t\t\n      PUSH 4\t\t\t\n      MSTORE \t\t\t\n      PUSH 24\t\t\t\n      PUSH 0\t\t\t\n      REVERT \t\t\t\n    tag 69\t\t\t\n      JUMPDEST \t\t\t\n      PUSH 0\t\t\t\n      PUSH [tag] 182\t\t\t\n      DUP3 \t\t\t\n      PUSH [tag] 110\t\t\t\n      JUMP \t\t\t\n    tag 182\t\t\t\n      JUMPDEST \t\t\t\n      SWAP2 \t\t\t\n      POP \t\t\t\n      PUSH [tag] 183\t\t\t\n      DUP4 \t\t\t\n      PUSH [tag] 110\t\t\t\n      JUMP \t\t\t\n    tag 183\t\t\t\n      JUMPDEST \t\t\t\n      SWAP3 \t\t\t\n      POP \t\t\t\n      DUP3 \t\t\t\n      PUSH [tag] 184\t\t\t\n      JUMPI \t\t\t\n      PUSH [tag] 185\t\t\t\n      PUSH [tag] 122\t\t\t\n      JUMP \t\t\t\n    tag 185\t\t\t\n      JUMPDEST \t\t\t\n    tag 184\t\t\t\n      JUMPDEST \t\t\t\n      DUP3 \t\t\t\n      DUP3 \t\t\t\n      DIV \t\t\t\n      SWAP1 \t\t\t\n      POP \t\t\t\n      SWAP3 \t\t\t\n      SWAP2 \t\t\t\n      POP \t\t\t\n      POP \t\t\t\n      JUMP \t\t\t\n    tag 71\t\t\t\n      JUMPDEST \t\t\t\n      PUSH 0\t\t\t\n      PUSH [tag] 187\t\t\t\n      DUP3 \t\t\t\n      PUSH [tag] 110\t\t\t\n      JUMP \t\t\t\n    tag 187\t\t\t\n      JUMPDEST \t\t\t\n      SWAP2 \t\t\t\n      POP \t\t\t\n      PUSH [tag] 188\t\t\t\n      DUP4 \t\t\t\n      PUSH [tag] 110\t\t\t\n      JUMP \t\t\t\n    tag 188\t\t\t\n      JUMPDEST \t\t\t\n      SWAP3 \t\t\t\n      POP \t\t\t\n      DUP3 \t\t\t\n      DUP3 \t\t\t\n      SUB \t\t\t\n      SWAP1 \t\t\t\n      POP \t\t\t\n      DUP2 \t\t\t\n      DUP2 \t\t\t\n      GT \t\t\t\n      ISZERO \t\t\t\n      PUSH [tag] 189\t\t\t\n      JUMPI \t\t\t\n      PUSH [tag] 190\t\t\t\n      PUSH [tag] 121\t\t\t\n      JUMP \t\t\t\n    tag 190\t\t\t\n      JUMPDEST \t\t\t\n    tag 189\t\t\t\n      JUMPDEST \t\t\t\n      SWAP3 \t\t\t\n      SWAP2 \t\t\t\n      POP \t\t\t\n      POP \t\t\t\n      JUMP \t\t\t\n    tag 123\t\t\t\n      JUMPDEST \t\t\t\n      PUSH 0\t\t\t\n      DUP2 \t\t\t\n      SWAP1 \t\t\t\n      POP \t\t\t\n      SWAP2 \t\t\t\n      SWAP1 \t\t\t\n      POP \t\t\t\n      JUMP \t\t\t\n    tag 124\t\t\t\n      JUMPDEST \t\t\t\n      PUSH 0\t\t\t\n      PUSH [tag] 193\t\t\t\n      PUSH [tag] 194\t\t\t\n      PUSH [tag] 195\t\t\t\n      DUP5 \t\t\t\n      PUSH [tag] 107\t\t\t\n      JUMP \t\t\t\n    tag 195\t\t\t\n      JUMPDEST \t\t\t\n      PUSH [tag] 123\t\t\t\n      JUMP \t\t\t\n    tag 194\t\t\t\n      JUMPDEST \t\t\t\n      PUSH [tag] 107\t\t\t\n      JUMP \t\t\t\n    tag 193\t\t\t\n      JUMPDEST \t\t\t\n      SWAP1 \t\t\t\n      POP \t\t\t\n      SWAP2 \t\t\t\n      SWAP1 \t\t\t\n      POP \t\t\t\n      JUMP \t\t\t\n    tag 125\t\t\t\n      JUMPDEST \t\t\t\n      PUSH 0\t\t\t\n      PUSH [tag] 197\t\t\t\n      DUP3 \t\t\t\n      PUSH [tag] 124\t\t\t\n      JUMP \t\t\t\n    tag 197\t\t\t\n      JUMPDEST \t\t\t\n      SWAP1 \t\t\t\n      POP \t\t\t\n      SWAP2 \t\t\t\n      SWAP1 \t\t\t\n      POP \t\t\t\n      JUMP \t\t\t\n    tag 126\t\t\t\n      JUMPDEST \t\t\t\n      PUSH 0\t\t\t\n      PUSH [tag] 199\t\t\t\n      DUP3 \t\t\t\n      PUSH [tag] 125\t\t\t\n      JUMP \t\t\t\n    tag 199\t\t\t\n      JUMPDEST \t\t\t\n      SWAP1 \t\t\t\n      POP \t\t\t\n      SWAP2 \t\t\t\n      SWAP1 \t\t\t\n      POP \t\t\t\n      JUMP \t\t\t\n    tag 127\t\t\t\n      JUMPDEST \t\t\t\n      PUSH [tag] 201\t\t\t\n      DUP2 \t\t\t\n      PUSH [tag] 126\t\t\t\n      JUMP \t\t\t\n    tag 201\t\t\t\n      JUMPDEST \t\t\t\n      DUP3 \t\t\t\n      MSTORE \t\t\t\n      POP \t\t\t\n      POP \t\t\t\n      JUMP \t\t\t\n    tag 80\t\t\t\n      JUMPDEST \t\t\t\n      PUSH 0\t\t\t\n      PUSH 40\t\t\t\n      DUP3 \t\t\t\n      ADD \t\t\t\n      SWAP1 \t\t\t\n      POP \t\t\t\n      PUSH [tag] 203\t\t\t\n      PUSH 0\t\t\t\n      DUP4 \t\t\t\n      ADD \t\t\t\n      DUP6 \t\t\t\n      PUSH [tag] 127\t\t\t\n      JUMP \t\t\t\n    tag 203\t\t\t\n      JUMPDEST \t\t\t\n      PUSH [tag] 204\t\t\t\n      PUSH 20\t\t\t\n      DUP4 \t\t\t\n      ADD \t\t\t\n      DUP5 \t\t\t\n      PUSH [tag] 111\t\t\t\n      JUMP \t\t\t\n    tag 204\t\t\t\n      JUMPDEST \t\t\t\n      SWAP4 \t\t\t\n      SWAP3 \t\t\t\n      POP \t\t\t\n      POP \t\t\t\n      POP \t\t\t\n      JUMP \t\t\t\n    tag 82\t\t\t\n      JUMPDEST \t\t\t\n      PUSH 0\t\t\t\n      PUSH 40\t\t\t\n      DUP3 \t\t\t\n      ADD \t\t\t\n      SWAP1 \t\t\t\n      POP \t\t\t\n      PUSH [tag] 206\t\t\t\n      PUSH 0\t\t\t\n      DUP4 \t\t\t\n      ADD \t\t\t\n      DUP6 \t\t\t\n      PUSH [tag] 111\t\t\t\n      JUMP \t\t\t\n    tag 206\t\t\t\n      JUMPDEST \t\t\t\n      PUSH [tag] 207\t\t\t\n      PUSH 20\t\t\t\n      DUP4 \t\t\t\n      ADD \t\t\t\n      DUP5 \t\t\t\n      PUSH [tag] 111\t\t\t\n      JUMP \t\t\t\n    tag 207\t\t\t\n      JUMPDEST \t\t\t\n      SWAP4 \t\t\t\n      SWAP3 \t\t\t\n      POP \t\t\t\n      POP \t\t\t\n      POP \t\t\t\n      JUMP \t\t\t\n    tag 128\t\t\t\n      JUMPDEST \t\t\t\n      PUSH 4E6F2066756E647320746F207265636F7665722E000000000000000000000000\t\t\t\n      PUSH 0\t\t\t\n      DUP3 \t\t\t\n      ADD \t\t\t\n      MSTORE \t\t\t\n      POP \t\t\t\n      JUMP \t\t\t\n    tag 129\t\t\t\n      JUMPDEST \t\t\t\n      PUSH 0\t\t\t\n      PUSH [tag] 210\t\t\t\n      PUSH 14\t\t\t\n      DUP4 \t\t\t\n      PUSH [tag] 114\t\t\t\n      JUMP \t\t\t\n    tag 210\t\t\t\n      JUMPDEST \t\t\t\n      SWAP2 \t\t\t\n      POP \t\t\t\n      PUSH [tag] 211\t\t\t\n      DUP3 \t\t\t\n      PUSH [tag] 128\t\t\t\n      JUMP \t\t\t\n    tag 211\t\t\t\n      JUMPDEST \t\t\t\n      PUSH 20\t\t\t\n      DUP3 \t\t\t\n      ADD \t\t\t\n      SWAP1 \t\t\t\n      POP \t\t\t\n      SWAP2 \t\t\t\n      SWAP1 \t\t\t\n      POP \t\t\t\n      JUMP \t\t\t\n    tag 92\t\t\t\n      JUMPDEST \t\t\t\n      PUSH 0\t\t\t\n      PUSH 20\t\t\t\n      DUP3 \t\t\t\n      ADD \t\t\t\n      SWAP1 \t\t\t\n      POP \t\t\t\n      DUP2 \t\t\t\n      DUP2 \t\t\t\n      SUB \t\t\t\n      PUSH 0\t\t\t\n      DUP4 \t\t\t\n      ADD \t\t\t\n      MSTORE \t\t\t\n      PUSH [tag] 213\t\t\t\n      DUP2 \t\t\t\n      PUSH [tag] 129\t\t\t\n      JUMP \t\t\t\n    tag 213\t\t\t\n      JUMPDEST \t\t\t\n      SWAP1 \t\t\t\n      POP \t\t\t\n      SWAP2 \t\t\t\n      SWAP1 \t\t\t\n      POP \t\t\t\n      JUMP \t\t\t\n    tag 130\t\t\t\n      JUMPDEST \t\t\t\n      PUSH 496E76616C696420616D6F756E742E20596F752063616E2073656E6420757020\t\t\t\n      PUSH 0\t\t\t\n      DUP3 \t\t\t\n      ADD \t\t\t\n      MSTORE \t\t\t\n      PUSH 746F2031312045746865722E0000000000000000000000000000000000000000\t\t\t\n      PUSH 20\t\t\t\n      DUP3 \t\t\t\n      ADD \t\t\t\n      MSTORE \t\t\t\n      POP \t\t\t\n      JUMP \t\t\t\n    tag 131\t\t\t\n      JUMPDEST \t\t\t\n      PUSH 0\t\t\t\n      PUSH [tag] 216\t\t\t\n      PUSH 2C\t\t\t\n      DUP4 \t\t\t\n      PUSH [tag] 114\t\t\t\n      JUMP \t\t\t\n    tag 216\t\t\t\n      JUMPDEST \t\t\t\n      SWAP2 \t\t\t\n      POP \t\t\t\n      PUSH [tag] 217\t\t\t\n      DUP3 \t\t\t\n      PUSH [tag] 130\t\t\t\n      JUMP \t\t\t\n    tag 217\t\t\t\n      JUMPDEST \t\t\t\n      PUSH 40\t\t\t\n      DUP3 \t\t\t\n      ADD \t\t\t\n      SWAP1 \t\t\t\n      POP \t\t\t\n      SWAP2 \t\t\t\n      SWAP1 \t\t\t\n      POP \t\t\t\n      JUMP \t\t\t\n    tag 99\t\t\t\n      JUMPDEST \t\t\t\n      PUSH 0\t\t\t\n      PUSH 20\t\t\t\n      DUP3 \t\t\t\n      ADD \t\t\t\n      SWAP1 \t\t\t\n      POP \t\t\t\n      DUP2 \t\t\t\n      DUP2 \t\t\t\n      SUB \t\t\t\n      PUSH 0\t\t\t\n      DUP4 \t\t\t\n      ADD \t\t\t\n      MSTORE \t\t\t\n      PUSH [tag] 219\t\t\t\n      DUP2 \t\t\t\n      PUSH [tag] 131\t\t\t\n      JUMP \t\t\t\n    tag 219\t\t\t\n      JUMPDEST \t\t\t\n      SWAP1 \t\t\t\n      POP \t\t\t\n      SWAP2 \t\t\t\n      SWAP1 \t\t\t\n      POP \t\t\t\n      JUMP \t\t\t\n    tag 132\t\t\t\n      JUMPDEST \t\t\t\n      PUSH 0\t\t\t\n      PUSH [tag] 221\t\t\t\n      DUP3 \t\t\t\n      PUSH [tag] 107\t\t\t\n      JUMP \t\t\t\n    tag 221\t\t\t\n      JUMPDEST \t\t\t\n      SWAP1 \t\t\t\n      POP \t\t\t\n      SWAP2 \t\t\t\n      SWAP1 \t\t\t\n      POP \t\t\t\n      JUMP \t\t\t\n    tag 133\t\t\t\n      JUMPDEST \t\t\t\n      PUSH [tag] 223\t\t\t\n      DUP2 \t\t\t\n      PUSH [tag] 132\t\t\t\n      JUMP \t\t\t\n    tag 223\t\t\t\n      JUMPDEST \t\t\t\n      DUP3 \t\t\t\n      MSTORE \t\t\t\n      POP \t\t\t\n      POP \t\t\t\n      JUMP \t\t\t\n    tag 101\t\t\t\n      JUMPDEST \t\t\t\n      PUSH 0\t\t\t\n      PUSH 40\t\t\t\n      DUP3 \t\t\t\n      ADD \t\t\t\n      SWAP1 \t\t\t\n      POP \t\t\t\n      PUSH [tag] 225\t\t\t\n      PUSH 0\t\t\t\n      DUP4 \t\t\t\n      ADD \t\t\t\n      DUP6 \t\t\t\n      PUSH [tag] 133\t\t\t\n      JUMP \t\t\t\n    tag 225\t\t\t\n      JUMPDEST \t\t\t\n      PUSH [tag] 226\t\t\t\n      PUSH 20\t\t\t\n      DUP4 \t\t\t\n      ADD \t\t\t\n      DUP5 \t\t\t\n      PUSH [tag] 111\t\t\t\n      JUMP \t\t\t\n    tag 226\t\t\t\n      JUMPDEST \t\t\t\n      SWAP4 \t\t\t\n      SWAP3 \t\t\t\n      POP \t\t\t\n      POP \t\t\t\n      POP \t\t\t\n      JUMP \t\t\t\n    tag 134\t\t\t\n      JUMPDEST \t\t\t\n      PUSH 5265656E7472616E637947756172643A207265656E7472616E742063616C6C00\t\t\t\n      PUSH 0\t\t\t\n      DUP3 \t\t\t\n      ADD \t\t\t\n      MSTORE \t\t\t\n      POP \t\t\t\n      JUMP \t\t\t\n    tag 135\t\t\t\n      JUMPDEST \t\t\t\n      PUSH 0\t\t\t\n      PUSH [tag] 229\t\t\t\n      PUSH 1F\t\t\t\n      DUP4 \t\t\t\n      PUSH [tag] 114\t\t\t\n      JUMP \t\t\t\n    tag 229\t\t\t\n      JUMPDEST \t\t\t\n      SWAP2 \t\t\t\n      POP \t\t\t\n      PUSH [tag] 230\t\t\t\n      DUP3 \t\t\t\n      PUSH [tag] 134\t\t\t\n      JUMP \t\t\t\n    tag 230\t\t\t\n      JUMPDEST \t\t\t\n      PUSH 20\t\t\t\n      DUP3 \t\t\t\n      ADD \t\t\t\n      SWAP1 \t\t\t\n      POP \t\t\t\n      SWAP2 \t\t\t\n      SWAP1 \t\t\t\n      POP \t\t\t\n      JUMP \t\t\t\n    tag 105\t\t\t\n      JUMPDEST \t\t\t\n      PUSH 0\t\t\t\n      PUSH 20\t\t\t\n      DUP3 \t\t\t\n      ADD \t\t\t\n      SWAP1 \t\t\t\n      POP \t\t\t\n      DUP2 \t\t\t\n      DUP2 \t\t\t\n      SUB \t\t\t\n      PUSH 0\t\t\t\n      DUP4 \t\t\t\n      ADD \t\t\t\n      MSTORE \t\t\t\n      PUSH [tag] 232\t\t\t\n      DUP2 \t\t\t\n      PUSH [tag] 135\t\t\t\n      JUMP \t\t\t\n    tag 232\t\t\t\n      JUMPDEST \t\t\t\n      SWAP1 \t\t\t\n      POP \t\t\t\n      SWAP2 \t\t\t\n      SWAP1 \t\t\t\n      POP \t\t\t\n      JUMP \t\t\t\n    .data\n"
}