{
   "_format": "hh-sol-artifact-1",
   "contractName": "Donations",
   "sourceName": "contracts/Donations.sol",
   "abi": [
      {
         "inputs": [
            {
               "internalType": "address",
               "name": "_projectWallet",
               "type": "address"
            },
            {
               "internalType": "address",
               "name": "_communityWallet",
               "type": "address"
            }
         ],
         "stateMutability": "nonpayable",
         "type": "constructor"
      },
      {
         "inputs": [
            {
               "internalType": "address",
               "name": "target",
               "type": "address"
            }
         ],
         "name": "AddressEmptyCode",
         "type": "error"
      },
      {
         "inputs": [
            {
               "internalType": "address",
               "name": "account",
               "type": "address"
            }
         ],
         "name": "AddressInsufficientBalance",
         "type": "error"
      },
      {
         "inputs": [],
         "name": "FailedInnerCall",
         "type": "error"
      },
      {
         "inputs": [
            {
               "internalType": "address",
               "name": "owner",
               "type": "address"
            }
         ],
         "name": "OwnableInvalidOwner",
         "type": "error"
      },
      {
         "inputs": [
            {
               "internalType": "address",
               "name": "account",
               "type": "address"
            }
         ],
         "name": "OwnableUnauthorizedAccount",
         "type": "error"
      },
      {
         "inputs": [
            {
               "internalType": "address",
               "name": "token",
               "type": "address"
            }
         ],
         "name": "SafeERC20FailedOperation",
         "type": "error"
      },
      {
         "anonymous": false,
         "inputs": [
            {
               "indexed": true,
               "internalType": "address",
               "name": "donor",
               "type": "address"
            },
            {
               "indexed": false,
               "internalType": "uint256",
               "name": "amount",
               "type": "uint256"
            },
            {
               "indexed": true,
               "internalType": "address",
               "name": "tokenAddress",
               "type": "address"
            },
            {
               "indexed": false,
               "internalType": "string",
               "name": "recipientType",
               "type": "string"
            },
            {
               "indexed": false,
               "internalType": "string",
               "name": "donorName",
               "type": "string"
            },
            {
               "indexed": false,
               "internalType": "bool",
               "name": "isAnonymous",
               "type": "bool"
            }
         ],
         "name": "DonationReceived",
         "type": "event"
      },
      {
         "anonymous": false,
         "inputs": [
            {
               "indexed": true,
               "internalType": "address",
               "name": "previousOwner",
               "type": "address"
            },
            {
               "indexed": true,
               "internalType": "address",
               "name": "newOwner",
               "type": "address"
            }
         ],
         "name": "OwnershipTransferred",
         "type": "event"
      },
      {
         "anonymous": false,
         "inputs": [
            {
               "indexed": true,
               "internalType": "address",
               "name": "newProjectWallet",
               "type": "address"
            },
            {
               "indexed": true,
               "internalType": "address",
               "name": "newCommunityWallet",
               "type": "address"
            }
         ],
         "name": "WalletAddressesUpdated",
         "type": "event"
      },
      {
         "inputs": [
            {
               "internalType": "uint256",
               "name": "amount",
               "type": "uint256"
            },
            {
               "internalType": "address",
               "name": "tokenAddress",
               "type": "address"
            },
            {
               "internalType": "bool",
               "name": "toProject",
               "type": "bool"
            },
            {
               "internalType": "string",
               "name": "donorName",
               "type": "string"
            },
            {
               "internalType": "bool",
               "name": "isAnonymous",
               "type": "bool"
            }
         ],
         "name": "donate",
         "outputs": [],
         "stateMutability": "nonpayable",
         "type": "function"
      },
      {
         "inputs": [],
         "name": "getWalletAddresses",
         "outputs": [
            {
               "internalType": "address",
               "name": "",
               "type": "address"
            },
            {
               "internalType": "address",
               "name": "",
               "type": "address"
            }
         ],
         "stateMutability": "view",
         "type": "function"
      },
      {
         "inputs": [],
         "name": "owner",
         "outputs": [
            {
               "internalType": "address",
               "name": "",
               "type": "address"
            }
         ],
         "stateMutability": "view",
         "type": "function"
      },
      {
         "inputs": [],
         "name": "renounceOwnership",
         "outputs": [],
         "stateMutability": "nonpayable",
         "type": "function"
      },
      {
         "inputs": [
            {
               "internalType": "address",
               "name": "newOwner",
               "type": "address"
            }
         ],
         "name": "transferOwnership",
         "outputs": [],
         "stateMutability": "nonpayable",
         "type": "function"
      },
      {
         "inputs": [
            {
               "internalType": "address",
               "name": "newProjectWallet",
               "type": "address"
            },
            {
               "internalType": "address",
               "name": "newCommunityWallet",
               "type": "address"
            }
         ],
         "name": "updateWalletAddresses",
         "outputs": [],
         "stateMutability": "nonpayable",
         "type": "function"
      }
   ],
   "bytecode": "0x608060405234801561001057600080fd5b50604051610ac9380380610ac983398101604081905261002f916101c7565b338061005657604051631e4fbdf760e01b8152600060048201526024015b60405180910390fd5b61005f8161015b565b506001600160a01b0382166100c45760405162461bcd60e51b815260206004820152602560248201527f70726f6a6563742077616c6c657420616464726573732063616e6e6f74206265604482015264207a65726f60d81b606482015260840161004d565b6001600160a01b03811661012a5760405162461bcd60e51b815260206004820152602760248201527f636f6d6d756e6974792077616c6c657420616464726573732063616e6e6f74206044820152666265207a65726f60c81b606482015260840161004d565b600180546001600160a01b039384166001600160a01b031991821617909155600280549290931691161790556101fa565b600080546001600160a01b038381166001600160a01b0319831681178455604051919092169283917f8be0079c531659141344cd1fd0a4f28419497f9722a3daafe3b4186f6b6457e09190a35050565b80516001600160a01b03811681146101c257600080fd5b919050565b600080604083850312156101da57600080fd5b6101e3836101ab565b91506101f1602084016101ab565b90509250929050565b6108c0806102096000396000f3fe608060405234801561001057600080fd5b50600436106100625760003560e01c80632fe5e28014610067578063715018a61461007c5780638ada528e146100845780638da5cb5b146100af578063bd1e4704146100ca578063f2fde38b146100dd575b600080fd5b61007a6100753660046106b8565b6100f0565b005b61007a610288565b600154600254604080516001600160a01b039384168152929091166020830152015b60405180910390f35b6000546040516001600160a01b0390911681526020016100a6565b61007a6100d836600461076b565b61029c565b61007a6100eb36600461079e565b6103d4565b600086116101575760405162461bcd60e51b815260206004820152602960248201527f446f6e6174696f6e20616d6f756e74206d7573742062652067726561746572206044820152687468616e207a65726f60b81b60648201526084015b60405180910390fd5b6001600160a01b0385166101ad5760405162461bcd60e51b815260206004820152601c60248201527f546f6b656e20616464726573732063616e6e6f74206265207a65726f00000000604482015260640161014e565b6000846101c5576002546001600160a01b03166101d2565b6001546001600160a01b03165b90506101e96001600160a01b03871633838a610412565b6001600160a01b038616337f1569e7f6ee5cc1ed2d8c09cd781ef25c6a5ff1badb03caa793fe57b1355153c989886102425760405180604001604052806009815260200168436f6d6d756e69747960b81b815250610263565b60405180604001604052806007815260200166141c9bda9958dd60ca1b8152505b8888886040516102779594939291906107dd565b60405180910390a350505050505050565b610290610472565b61029a600061049f565b565b6102a4610472565b6001600160a01b03821661030c5760405162461bcd60e51b815260206004820152602960248201527f4e65772070726f6a6563742077616c6c657420616464726573732063616e6e6f60448201526874206265207a65726f60b81b606482015260840161014e565b6001600160a01b0381166103765760405162461bcd60e51b815260206004820152602b60248201527f4e657720636f6d6d756e6974792077616c6c657420616464726573732063616e60448201526a6e6f74206265207a65726f60a81b606482015260840161014e565b600180546001600160a01b03199081166001600160a01b03858116918217909355600280549092169284169283179091556040517f9a8c8fa3712295847a4821fbeb42ea3c20ff67c3485396dce224cc6d73748f8890600090a35050565b6103dc610472565b6001600160a01b03811661040657604051631e4fbdf760e01b81526000600482015260240161014e565b61040f8161049f565b50565b604080516001600160a01b0385811660248301528416604482015260648082018490528251808303909101815260849091019091526020810180516001600160e01b03166323b872dd60e01b17905261046c9085906104ef565b50505050565b6000546001600160a01b0316331461029a5760405163118cdaa760e01b815233600482015260240161014e565b600080546001600160a01b038381166001600160a01b0319831681178455604051919092169283917f8be0079c531659141344cd1fd0a4f28419497f9722a3daafe3b4186f6b6457e09190a35050565b60006105046001600160a01b03841683610557565b905080516000141580156105295750808060200190518101906105279190610851565b155b1561055257604051635274afe760e01b81526001600160a01b038416600482015260240161014e565b505050565b60606105658383600061056c565b9392505050565b6060814710156105915760405163cd78605960e01b815230600482015260240161014e565b600080856001600160a01b031684866040516105ad919061086e565b60006040518083038185875af1925050503d80600081146105ea576040519150601f19603f3d011682016040523d82523d6000602084013e6105ef565b606091505b50915091506105ff868383610609565b9695505050505050565b60608261061e5761061982610665565b610565565b815115801561063557506001600160a01b0384163b155b1561065e57604051639996b31560e01b81526001600160a01b038516600482015260240161014e565b5080610565565b8051156106755780518082602001fd5b604051630a12f52160e11b815260040160405180910390fd5b80356001600160a01b03811681146106a557600080fd5b919050565b801515811461040f57600080fd5b60008060008060008060a087890312156106d157600080fd5b863595506106e16020880161068e565b945060408701356106f1816106aa565b9350606087013567ffffffffffffffff8082111561070e57600080fd5b818901915089601f83011261072257600080fd5b81358181111561073157600080fd5b8a602082850101111561074357600080fd5b602083019550809450505050608087013561075d816106aa565b809150509295509295509295565b6000806040838503121561077e57600080fd5b6107878361068e565b91506107956020840161068e565b90509250929050565b6000602082840312156107b057600080fd5b6105658261068e565b60005b838110156107d45781810151838201526020016107bc565b50506000910152565b85815260806020820152600085518060808401526108028160a0850160208a016107b9565b601f1980601f8301168401915060a08483030160408501528560a0830152858760c0840137600060c0878401015260c081601f8801168301019250505082151560608301529695505050505050565b60006020828403121561086357600080fd5b8151610565816106aa565b600082516108808184602087016107b9565b919091019291505056fea2646970667358221220335ccac94d204d9f6c5301b37614c2f94f2eeb14052bf135ec2608e997da12e264736f6c63430008140033",
   "linkReferences": {},
   "deployedLinkReferences": {}
}