{
  "_format": "hh-sol-artifact-1",
  "contractName": "RevenueSharingContract",
  "sourceName": "contracts/RevenueSharingContract.sol",
  "abi": [
    {
      "inputs": [
        {
          "internalType": "address",
          "name": "_rs2",
          "type": "address"
        },
        {
          "internalType": "address",
          "name": "_rs3",
          "type": "address"
        },
        {
          "internalType": "uint128",
          "name": "_ps",
          "type": "uint128"
        }
      ],
      "stateMutability": "nonpayable",
      "type": "constructor"
    },
    {
      "inputs": [],
      "name": "ReentrancyGuardReentrantCall",
      "type": "error"
    },
    {
      "anonymous": false,
      "inputs": [
        {
          "indexed": false,
          "internalType": "uint256",
          "name": "rs2Share",
          "type": "uint256"
        },
        {
          "indexed": false,
          "internalType": "uint256",
          "name": "rs3Share",
          "type": "uint256"
        }
      ],
      "name": "FundsDistributed",
      "type": "event"
    },
    {
      "inputs": [],
      "name": "controller",
      "outputs": [
        {
          "internalType": "address",
          "name": "",
          "type": "address"
        }
      ],
      "stateMutability": "view",
      "type": "function"
    },
    {
      "inputs": [
        {
          "internalType": "uint256",
          "name": "amount",
          "type": "uint256"
        }
      ],
      "name": "distributeFunds",
      "outputs": [],
      "stateMutability": "nonpayable",
      "type": "function"
    },
    {
      "inputs": [
        {
          "internalType": "address",
          "name": "_controller",
          "type": "address"
        },
        {
          "internalType": "address",
          "name": "_rs2",
          "type": "address"
        },
        {
          "internalType": "address",
          "name": "_rs3",
          "type": "address"
        },
        {
          "internalType": "uint128",
          "name": "_ps",
          "type": "uint128"
        },
        {
          "internalType": "address",
          "name": "_usdc",
          "type": "address"
        }
      ],
      "name": "initialize",
      "outputs": [],
      "stateMutability": "nonpayable",
      "type": "function"
    },
    {
      "inputs": [],
      "name": "ps",
      "outputs": [
        {
          "internalType": "uint128",
          "name": "",
          "type": "uint128"
        }
      ],
      "stateMutability": "view",
      "type": "function"
    },
    {
      "inputs": [],
      "name": "rs2",
      "outputs": [
        {
          "internalType": "address",
          "name": "",
          "type": "address"
        }
      ],
      "stateMutability": "view",
      "type": "function"
    },
    {
      "inputs": [],
      "name": "rs3",
      "outputs": [
        {
          "internalType": "address",
          "name": "",
          "type": "address"
        }
      ],
      "stateMutability": "view",
      "type": "function"
    },
    {
      "inputs": [],
      "name": "usdc",
      "outputs": [
        {
          "internalType": "address",
          "name": "",
          "type": "address"
        }
      ],
      "stateMutability": "view",
      "type": "function"
    }
  ],
  "bytecode": "0x608060405234801561001057600080fd5b506040516108bc3803806108bc83398101604081905261002f91610058565b50506001600055506100ac565b80516001600160a01b038116811461005357600080fd5b919050565b60008060006060848603121561006d57600080fd5b6100768461003c565b92506100846020850161003c565b60408501519092506001600160801b03811681146100a157600080fd5b809150509250925092565b610801806100bb6000396000f3fe608060405234801561001057600080fd5b506004361061007d5760003560e01c8063e929afc41161005b578063e929afc4146100f0578063f726f71514610103578063f77c479114610118578063fcd2cfa71461012b57600080fd5b80633d68ed69146100825780633e413bee146100b257806341a54550146100c5575b600080fd5b600354610095906001600160a01b031681565b6040516001600160a01b0390911681526020015b60405180910390f35b600554610095906001600160a01b031681565b6004546100d8906001600160801b031681565b6040516001600160801b0390911681526020016100a9565b600254610095906001600160a01b031681565b610116610111366004610679565b61013e565b005b600154610095906001600160a01b031681565b6101166101393660046106ae565b61048c565b61014661064f565b6001546001600160a01b031633146101ba5760405162461bcd60e51b815260206004820152602c60248201527f4f6e6c792074686520636f6e74726f6c6c65722063616e20706572666f726d2060448201526b3a3434b99030b1ba34b7b71760a11b60648201526084015b60405180910390fd5b6005546040516370a0823160e01b81523060048201526000916001600160a01b0316906370a0823190602401602060405180830381865afa158015610203573d6000803e3d6000fd5b505050506040513d601f19601f820116820180604052508101906102279190610721565b9050818110156102835760405162461bcd60e51b815260206004820152602160248201527f496e73756666696369656e742066756e647320746f20646973747269627574656044820152601760f91b60648201526084016101b1565b60045460009060649061029f906001600160801b031685610750565b6102a9919061076d565b905060006102b7828561078f565b60055460025460405163a9059cbb60e01b81526001600160a01b03918216600482015260248101869052929350169063a9059cbb906044016020604051808303816000875af115801561030e573d6000803e3d6000fd5b505050506040513d601f19601f8201168201806040525081019061033291906107a2565b61037e5760405162461bcd60e51b815260206004820152601c60248201527f4661696c656420746f206469737472696275746520746f207273322e0000000060448201526064016101b1565b60055460035460405163a9059cbb60e01b81526001600160a01b0391821660048201526024810184905291169063a9059cbb906044016020604051808303816000875af11580156103d3573d6000803e3d6000fd5b505050506040513d601f19601f820116820180604052508101906103f791906107a2565b6104435760405162461bcd60e51b815260206004820152601c60248201527f4661696c656420746f206469737472696275746520746f207273332e0000000060448201526064016101b1565b60408051838152602081018390527f40d8c854b6d5329fd5fccae04f5a931d7529963fbab81aced7337394e737cb4d910160405180910390a15050506104896001600055565b50565b6001546001600160a01b0316156104e55760405162461bcd60e51b815260206004820181905260248201527f436f6e74726f6c6c65722068617320616c7265616479206265656e207365742e60448201526064016101b1565b6001600160a01b0384161580159061050557506001600160a01b03831615155b6105515760405162461bcd60e51b815260206004820152601e60248201527f496e76616c6964207061727469636970616e74206164647265737365732e000060448201526064016101b1565b6000826001600160801b031611801561057457506064826001600160801b031611155b6105d65760405162461bcd60e51b815260206004820152602d60248201527f50657263656e746167652073686172652073686f756c6420626520626574776560448201526c32b710189030b732101898181760991b60648201526084016101b1565b600180546001600160a01b03199081166001600160a01b03978816179091556002805482169587169590951790945560038054851693861693909317909255600480546fffffffffffffffffffffffffffffffff19166001600160801b0392909216919091179055600580549092169216919091179055565b60026000540361067257604051633ee5aeb560e01b815260040160405180910390fd5b6002600055565b60006020828403121561068b57600080fd5b5035919050565b80356001600160a01b03811681146106a957600080fd5b919050565b600080600080600060a086880312156106c657600080fd5b6106cf86610692565b94506106dd60208701610692565b93506106eb60408701610692565b925060608601356001600160801b038116811461070757600080fd5b915061071560808701610692565b90509295509295909350565b60006020828403121561073357600080fd5b5051919050565b634e487b7160e01b600052601160045260246000fd5b80820281158282048414176107675761076761073a565b92915050565b60008261078a57634e487b7160e01b600052601260045260246000fd5b500490565b818103818111156107675761076761073a565b6000602082840312156107b457600080fd5b815180151581146107c457600080fd5b939250505056fea26469706673582212208def459da6afdbd513a0d7a7b0e304449bf6d23e1a3da51687686bbfd0a0f99364736f6c63430008150033",
  "linkReferences": {},
  "deployedLinkReferences": {}
}