{
  "_format": "hh-sol-artifact-1",
  "contractName": "Controller",
  "sourceName": "contracts/Controller.sol",
  "abi": [
    {
      "inputs": [
        {
          "internalType": "contract ISwapRouter",
          "name": "_swapRouter",
          "type": "address"
        },
        {
          "internalType": "address",
          "name": "_usdt",
          "type": "address"
        },
        {
          "internalType": "address",
          "name": "_usdc",
          "type": "address"
        },
        {
          "internalType": "address",
          "name": "_rs2",
          "type": "address"
        },
        {
          "internalType": "address",
          "name": "_rs3",
          "type": "address"
        },
        {
          "internalType": "uint128",
          "name": "_ps",
          "type": "uint128"
        }
      ],
      "stateMutability": "nonpayable",
      "type": "constructor"
    },
    {
      "anonymous": false,
      "inputs": [
        {
          "indexed": false,
          "internalType": "string",
          "name": "contractName",
          "type": "string"
        },
        {
          "indexed": false,
          "internalType": "address",
          "name": "contractAddress",
          "type": "address"
        }
      ],
      "name": "ContractDeployed",
      "type": "event"
    },
    {
      "anonymous": false,
      "inputs": [
        {
          "indexed": true,
          "internalType": "address",
          "name": "sender",
          "type": "address"
        },
        {
          "indexed": false,
          "internalType": "uint256",
          "name": "amount",
          "type": "uint256"
        }
      ],
      "name": "ContractFunded",
      "type": "event"
    },
    {
      "inputs": [],
      "name": "conversionContract",
      "outputs": [
        {
          "internalType": "address",
          "name": "",
          "type": "address"
        }
      ],
      "stateMutability": "view",
      "type": "function"
    },
    {
      "inputs": [],
      "name": "deployContracts",
      "outputs": [],
      "stateMutability": "nonpayable",
      "type": "function"
    },
    {
      "inputs": [],
      "name": "fundContract",
      "outputs": [],
      "stateMutability": "payable",
      "type": "function"
    },
    {
      "inputs": [],
      "name": "revenueSharingContract",
      "outputs": [
        {
          "internalType": "address",
          "name": "",
          "type": "address"
        }
      ],
      "stateMutability": "view",
      "type": "function"
    },
    {
      "inputs": [],
      "name": "storageContract",
      "outputs": [
        {
          "internalType": "address",
          "name": "",
          "type": "address"
        }
      ],
      "stateMutability": "view",
      "type": "function"
    },
    {
      "inputs": [],
      "name": "swapRouter",
      "outputs": [
        {
          "internalType": "contract ISwapRouter",
          "name": "",
          "type": "address"
        }
      ],
      "stateMutability": "view",
      "type": "function"
    },
    {
      "inputs": [],
      "name": "ticketPurchaseContract",
      "outputs": [
        {
          "internalType": "address",
          "name": "",
          "type": "address"
        }
      ],
      "stateMutability": "view",
      "type": "function"
    }
  ],
  "bytecode": "0x608060405234801561001057600080fd5b50604051611f4f380380611f4f83398101604081905261002f916100c9565b600480546001600160a01b03199081166001600160a01b0398891617909155600580548216968816969096179095556006805486169487169490941790935560078054851692861692909217909155600880549093169316929092179055600980546001600160801b0319166001600160801b0390921691909117905561015c565b6001600160a01b03811681146100c657600080fd5b50565b60008060008060008060c087890312156100e257600080fd5b86516100ed816100b1565b60208801519096506100fe816100b1565b604088015190955061010f816100b1565b6060880151909450610120816100b1565b6080880151909350610131816100b1565b60a08801519092506001600160801b038116811461014e57600080fd5b809150509295509295509295565b611de48061016b6000396000f3fe6080604052600436106100705760003560e01c8063208aae5a1161004e578063208aae5a146100e85780634f8406dc14610108578063bd097e2114610128578063c31c9c071461013057600080fd5b80631081259e14610075578063119ae61b1461008c57806311ce0267146100c8575b600080fd5b34801561008157600080fd5b5061008a610150565b005b34801561009857600080fd5b506000546100ac906001600160a01b031681565b6040516001600160a01b03909116815260200160405180910390f35b3480156100d457600080fd5b506002546100ac906001600160a01b031681565b3480156100f457600080fd5b506003546100ac906001600160a01b031681565b34801561011457600080fd5b506001546100ac906001600160a01b031681565b61008a6104a7565b34801561013c57600080fd5b506004546100ac906001600160a01b031681565b6004546005546006546002546040516000946001600160a01b03908116943094908216939082169291169061018490610547565b6001600160a01b0395861681529385166020850152918416604084015283166060830152909116608082015260a001604051809103906000f0801580156101cf573d6000803e3d6000fd5b50600180546001600160a01b0383166001600160a01b03199091168117909155604080518181526012818301527110dbdb9d995c9cda5bdb90dbdb9d1c9858dd60721b60608201526020810192909252519192507f4da8c8e82a6cdcd021dddec73a637b429d2b0a9b303638f1258ff8a35c3e5d86919081900360800190a1600060405161025c90610554565b604051809103906000f080158015610278573d6000803e3d6000fd5b50600280546001600160a01b0383166001600160a01b0319909116811790915560408051818152600f818301526e1cdd1bdc9859d950dbdb9d1c9858dd608a1b60608201526020810192909252519192507f4da8c8e82a6cdcd021dddec73a637b429d2b0a9b303638f1258ff8a35c3e5d86919081900360800190a16007546008546009546040516000936001600160a01b039081169316916001600160801b03169061032490610561565b6001600160a01b0393841681529290911660208301526001600160801b03166040820152606001604051809103906000f080158015610367573d6000803e3d6000fd5b50600380546001600160a01b0383166001600160a01b03199091168117909155604080518181526016818301527514995d995b9d5954da185c9a5b99d0dbdb9d1c9858dd60521b60608201526020810192909252519192507f4da8c8e82a6cdcd021dddec73a637b429d2b0a9b303638f1258ff8a35c3e5d86919081900360800190a1600254604051636e1c585160e11b81526001600160a01b0391821660048201529084169063dc38b0a290602401600060405180830381600087803b15801561043157600080fd5b505af1158015610445573d6000803e3d6000fd5b5050604051633d49db9360e21b81523060048201526001600160a01b038516925063f5276e4c9150602401600060405180830381600087803b15801561048a57600080fd5b505af115801561049e573d6000803e3d6000fd5b50505050505050565b600034116105105760405162461bcd60e51b815260206004820152602c60248201527f496e76616c696420616d6f756e742e204d7573742073656e64206d6f7265207460448201526b3430b710181022ba3432b91760a11b606482015260840160405180910390fd5b60405134815233907f0939f6f4877faf071412e527bc4c6d0bd65ad077e52b57334f7765265647a7f19060200160405180910390a2565b6108e18061056f83390190565b6106a380610e5083390190565b6108bc806114f38339019056fe608060405234801561001057600080fd5b506040516108e13803806108e183398101604081905261002f91610055565b50505050506100ba565b80516001600160a01b038116811461005057600080fd5b919050565b600080600080600060a0868803121561006d57600080fd5b61007686610039565b945061008460208701610039565b935061009260408701610039565b92506100a060608701610039565b91506100ae60808701610039565b90509295509295909350565b610818806100c96000396000f3fe608060405234801561001057600080fd5b50600436106100935760003560e01c80633e413bee116100665780633e413bee14610111578063495cd72214610124578063c31c9c071461012c578063dc38b0a21461013f578063f77c47911461016f57600080fd5b80630d8503061461009857806311ce0267146100be5780631459457a146100e95780632f48ab7d146100fe575b600080fd5b6100ab6100a6366004610563565b610182565b6040519081526020015b60405180910390f35b6004546100d1906001600160a01b031681565b6040516001600160a01b0390911681526020016100b5565b6100fc6100f73660046105a1565b610360565b005b6002546100d1906001600160a01b031681565b6003546100d1906001600160a01b031681565b6100fc610418565b6000546100d1906001600160a01b031681565b6100fc61014d366004610606565b600480546001600160a01b0319166001600160a01b0392909216919091179055565b6001546100d1906001600160a01b031681565b6001546000906001600160a01b031633146101b85760405162461bcd60e51b81526004016101af90610628565b60405180910390fd5b604080516002808252606082018352600092602083019080368337505060025482519293506001600160a01b0316918391506000906101f9576101f9610674565b6001600160a01b03928316602091820292909201015260035482519116908290600190811061022a5761022a610674565b6001600160a01b039092166020928302919091018201526040516000916102539184910161068a565b60408051601f198184030181526000805460a0850184528285526004546001600160a01b039081166020870152929550909391169163c04b8d599190810161029c42600f6106d7565b8152602001898152602001888152506040518263ffffffff1660e01b81526004016102c7919061071c565b6020604051808303816000875af11580156102e6573d6000803e3d6000fd5b505050506040513d601f19601f8201168201806040525081019061030a919061078b565b60045460408051898152602081018490529293506001600160a01b03909116917faaa4b2048061a375cf651aa7fc1f1dd79339417406b0b83d0722ad30d312b327910160405180910390a2925050505b92915050565b6001546001600160a01b0316156103b95760405162461bcd60e51b815260206004820181905260248201527f436f6e74726f6c6c65722068617320616c7265616479206265656e207365742e60448201526064016101af565b600080546001600160a01b03199081166001600160a01b03978816179091556001805482169587169590951790945560028054851693861693909317909255600380548416918516919091179055600480549092169216919091179055565b6001546001600160a01b031633146104425760405162461bcd60e51b81526004016101af90610628565b600254600054610461916001600160a01b039081169116600019610463565b565b604080516001600160a01b038481166024830152604480830185905283518084039091018152606490920183526020820180516001600160e01b031663095ea7b360e01b17905291516000928392908716916104bf91906107a4565b6000604051808303816000865af19150503d80600081146104fc576040519150601f19603f3d011682016040523d82523d6000602084013e610501565b606091505b509150915081801561052b57508051158061052b57508080602001905181019061052b91906107c0565b61055c5760405162461bcd60e51b8152602060048201526002602482015261534160f01b60448201526064016101af565b5050505050565b6000806040838503121561057657600080fd5b50508035926020909101359150565b80356001600160a01b038116811461059c57600080fd5b919050565b600080600080600060a086880312156105b957600080fd5b6105c286610585565b94506105d060208701610585565b93506105de60408701610585565b92506105ec60608701610585565b91506105fa60808701610585565b90509295509295909350565b60006020828403121561061857600080fd5b61062182610585565b9392505050565b6020808252602c908201527f4f6e6c792074686520636f6e74726f6c6c65722063616e20706572666f726d2060408201526b3a3434b99030b1ba34b7b71760a11b606082015260800190565b634e487b7160e01b600052603260045260246000fd5b6020808252825182820181905260009190848201906040850190845b818110156106cb5783516001600160a01b0316835292840192918401916001016106a6565b50909695505050505050565b8082018082111561035a57634e487b7160e01b600052601160045260246000fd5b60005b838110156107135781810151838201526020016106fb565b50506000910152565b602081526000825160a0602084015280518060c08501526107448160e08601602085016106f8565b60018060a01b0360208601511660408501526040850151606085015260608501516080850152608085015160a085015260e0601f19601f8301168501019250505092915050565b60006020828403121561079d57600080fd5b5051919050565b600082516107b68184602087016106f8565b9190910192915050565b6000602082840312156107d257600080fd5b8151801515811461062157600080fdfea264697066735822122020377fba186529bc3349c422fc6fc9f09d916d229d8888573d98716e414cf70f64736f6c6343000815003360806040526305f5e10060035534801561001857600080fd5b5061067b806100286000396000f3fe608060405234801561001057600080fd5b50600436106100885760003560e01c8063960bfe041161005b578063960bfe04146100fc578063d8952a491461010f578063f5276e4c14610122578063f77c47911461013557600080fd5b8063208aae5a1461008d5780633519a2f8146100bd5780633e413bee146100d257806342cde4e8146100e5575b600080fd5b6001546100a0906001600160a01b031681565b6040516001600160a01b0390911681526020015b60405180910390f35b6100d06100cb366004610534565b610148565b005b6002546100a0906001600160a01b031681565b6100ee60035481565b6040519081526020016100b4565b6100d061010a366004610534565b610432565b6100d061011d366004610569565b610461565b6100d061013036600461059c565b6104b9565b6000546100a0906001600160a01b031681565b6002546040516323b872dd60e01b8152336004820152306024820152604481018390526001600160a01b03909116906323b872dd906064016020604051808303816000875af115801561019f573d6000803e3d6000fd5b505050506040513d601f19601f820116820180604052508101906101c391906105be565b61020c5760405162461bcd60e51b81526020600482015260156024820152742aa9a221903a3930b739b332b9103330b4b632b21760591b60448201526064015b60405180910390fd5b60405181815233907f0939f6f4877faf071412e527bc4c6d0bd65ad077e52b57334f7765265647a7f19060200160405180910390a26002546040516370a0823160e01b81523060048201526000916001600160a01b0316906370a0823190602401602060405180830381865afa15801561028a573d6000803e3d6000fd5b505050506040513d601f19601f820116820180604052508101906102ae91906105e0565b9050600354811061042e5760025460015460405163095ea7b360e01b81526001600160a01b0391821660048201526024810184905291169063095ea7b3906044016020604051808303816000875af115801561030e573d6000803e3d6000fd5b505050506040513d601f19601f8201168201806040525081019061033291906105be565b6103965760405162461bcd60e51b815260206004820152602f60248201527f5553444320617070726f76616c20746f20526576656e756553686172696e674360448201526e37b73a3930b1ba103330b4b632b21760891b6064820152608401610203565b60015460405163f726f71560e01b8152600481018390526001600160a01b039091169063f726f71590602401600060405180830381600087803b1580156103dc57600080fd5b505af11580156103f0573d6000803e3d6000fd5b505050507f881adf09c54e7bf747aad0ea1f2100013c801e9dca4fb31cc70ff6352810840b8160405161042591815260200190565b60405180910390a15b5050565b6000546001600160a01b0316331461045c5760405162461bcd60e51b8152600401610203906105f9565b600355565b6000546001600160a01b0316331461048b5760405162461bcd60e51b8152600401610203906105f9565b600180546001600160a01b039384166001600160a01b03199182161790915560028054929093169116179055565b6000546001600160a01b0316156105125760405162461bcd60e51b815260206004820181905260248201527f436f6e74726f6c6c65722068617320616c7265616479206265656e207365742e6044820152606401610203565b600080546001600160a01b0319166001600160a01b0392909216919091179055565b60006020828403121561054657600080fd5b5035919050565b80356001600160a01b038116811461056457600080fd5b919050565b6000806040838503121561057c57600080fd5b6105858361054d565b91506105936020840161054d565b90509250929050565b6000602082840312156105ae57600080fd5b6105b78261054d565b9392505050565b6000602082840312156105d057600080fd5b815180151581146105b757600080fd5b6000602082840312156105f257600080fd5b5051919050565b6020808252602c908201527f4f6e6c792074686520636f6e74726f6c6c65722063616e20706572666f726d2060408201526b3a3434b99030b1ba34b7b71760a11b60608201526080019056fea2646970667358221220d1565507830d3805d98bdcb05ce63514233fd90de59b81cdc3a6a9eca3939a4564736f6c63430008150033608060405234801561001057600080fd5b506040516108bc3803806108bc83398101604081905261002f91610058565b50506001600055506100ac565b80516001600160a01b038116811461005357600080fd5b919050565b60008060006060848603121561006d57600080fd5b6100768461003c565b92506100846020850161003c565b60408501519092506001600160801b03811681146100a157600080fd5b809150509250925092565b610801806100bb6000396000f3fe608060405234801561001057600080fd5b506004361061007d5760003560e01c8063e929afc41161005b578063e929afc4146100f0578063f726f71514610103578063f77c479114610118578063fcd2cfa71461012b57600080fd5b80633d68ed69146100825780633e413bee146100b257806341a54550146100c5575b600080fd5b600354610095906001600160a01b031681565b6040516001600160a01b0390911681526020015b60405180910390f35b600554610095906001600160a01b031681565b6004546100d8906001600160801b031681565b6040516001600160801b0390911681526020016100a9565b600254610095906001600160a01b031681565b610116610111366004610679565b61013e565b005b600154610095906001600160a01b031681565b6101166101393660046106ae565b61048c565b61014661064f565b6001546001600160a01b031633146101ba5760405162461bcd60e51b815260206004820152602c60248201527f4f6e6c792074686520636f6e74726f6c6c65722063616e20706572666f726d2060448201526b3a3434b99030b1ba34b7b71760a11b60648201526084015b60405180910390fd5b6005546040516370a0823160e01b81523060048201526000916001600160a01b0316906370a0823190602401602060405180830381865afa158015610203573d6000803e3d6000fd5b505050506040513d601f19601f820116820180604052508101906102279190610721565b9050818110156102835760405162461bcd60e51b815260206004820152602160248201527f496e73756666696369656e742066756e647320746f20646973747269627574656044820152601760f91b60648201526084016101b1565b60045460009060649061029f906001600160801b031685610750565b6102a9919061076d565b905060006102b7828561078f565b60055460025460405163a9059cbb60e01b81526001600160a01b03918216600482015260248101869052929350169063a9059cbb906044016020604051808303816000875af115801561030e573d6000803e3d6000fd5b505050506040513d601f19601f8201168201806040525081019061033291906107a2565b61037e5760405162461bcd60e51b815260206004820152601c60248201527f4661696c656420746f206469737472696275746520746f207273322e0000000060448201526064016101b1565b60055460035460405163a9059cbb60e01b81526001600160a01b0391821660048201526024810184905291169063a9059cbb906044016020604051808303816000875af11580156103d3573d6000803e3d6000fd5b505050506040513d601f19601f820116820180604052508101906103f791906107a2565b6104435760405162461bcd60e51b815260206004820152601c60248201527f4661696c656420746f206469737472696275746520746f207273332e0000000060448201526064016101b1565b60408051838152602081018390527f40d8c854b6d5329fd5fccae04f5a931d7529963fbab81aced7337394e737cb4d910160405180910390a15050506104896001600055565b50565b6001546001600160a01b0316156104e55760405162461bcd60e51b815260206004820181905260248201527f436f6e74726f6c6c65722068617320616c7265616479206265656e207365742e60448201526064016101b1565b6001600160a01b0384161580159061050557506001600160a01b03831615155b6105515760405162461bcd60e51b815260206004820152601e60248201527f496e76616c6964207061727469636970616e74206164647265737365732e000060448201526064016101b1565b6000826001600160801b031611801561057457506064826001600160801b031611155b6105d65760405162461bcd60e51b815260206004820152602d60248201527f50657263656e746167652073686172652073686f756c6420626520626574776560448201526c32b710189030b732101898181760991b60648201526084016101b1565b600180546001600160a01b03199081166001600160a01b03978816179091556002805482169587169590951790945560038054851693861693909317909255600480546fffffffffffffffffffffffffffffffff19166001600160801b0392909216919091179055600580549092169216919091179055565b60026000540361067257604051633ee5aeb560e01b815260040160405180910390fd5b6002600055565b60006020828403121561068b57600080fd5b5035919050565b80356001600160a01b03811681146106a957600080fd5b919050565b600080600080600060a086880312156106c657600080fd5b6106cf86610692565b94506106dd60208701610692565b93506106eb60408701610692565b925060608601356001600160801b038116811461070757600080fd5b915061071560808701610692565b90509295509295909350565b60006020828403121561073357600080fd5b5051919050565b634e487b7160e01b600052601160045260246000fd5b80820281158282048414176107675761076761073a565b92915050565b60008261078a57634e487b7160e01b600052601260045260246000fd5b500490565b818103818111156107675761076761073a565b6000602082840312156107b457600080fd5b815180151581146107c457600080fd5b939250505056fea26469706673582212208def459da6afdbd513a0d7a7b0e304449bf6d23e1a3da51687686bbfd0a0f99364736f6c63430008150033a26469706673582212202ab0979dcd88e94c294edeacb7aa416c3537f89b7cac4921877fd130475c788264736f6c63430008150033",
  "linkReferences": {},
  "deployedLinkReferences": {}
}